{
	"contracts/EventRewards.sol": {
		"EventRewards": {
			"abi": [
				{
					"inputs": [
						{
							"internalType": "address",
							"name": "_loginCoinAddress",
							"type": "address"
						},
						{
							"internalType": "uint256",
							"name": "_initialRewardAmount",
							"type": "uint256"
						}
					],
					"stateMutability": "nonpayable",
					"type": "constructor"
				},
				{
					"inputs": [
						{
							"internalType": "address",
							"name": "",
							"type": "address"
						}
					],
					"name": "eventAttendees",
					"outputs": [
						{
							"internalType": "bool",
							"name": "",
							"type": "bool"
						}
					],
					"stateMutability": "view",
					"type": "function"
				},
				{
					"inputs": [],
					"name": "loginCoin",
					"outputs": [
						{
							"internalType": "contract IERC20Upgradeable",
							"name": "",
							"type": "address"
						}
					],
					"stateMutability": "view",
					"type": "function"
				},
				{
					"inputs": [],
					"name": "rewardAmount",
					"outputs": [
						{
							"internalType": "uint256",
							"name": "",
							"type": "uint256"
						}
					],
					"stateMutability": "view",
					"type": "function"
				},
				{
					"inputs": [
						{
							"internalType": "address",
							"name": "attendee",
							"type": "address"
						}
					],
					"name": "rewardAttendance",
					"outputs": [],
					"stateMutability": "nonpayable",
					"type": "function"
				},
				{
					"inputs": [
						{
							"internalType": "uint256",
							"name": "newRewardAmount",
							"type": "uint256"
						}
					],
					"name": "setRewardAmount",
					"outputs": [],
					"stateMutability": "nonpayable",
					"type": "function"
				}
			],
			"devdoc": {
				"kind": "dev",
				"methods": {},
				"version": 1
			},
			"evm": {
				"assembly": "    /* \"contracts/EventRewards.sol\":139:858  contract EventRewards {... */\n  mstore(0x40, 0x80)\n    /* \"contracts/EventRewards.sol\":293:472  constructor(address _loginCoinAddress, uint256 _initialRewardAmount) {... */\n  callvalue\n  dup1\n  iszero\n  tag_1\n  jumpi\n  0x00\n  dup1\n  revert\ntag_1:\n  pop\n  mload(0x40)\n  sub(codesize, bytecodeSize)\n  dup1\n  bytecodeSize\n  dup4\n  codecopy\n  dup2\n  dup2\n  add\n  0x40\n  mstore\n  dup2\n  add\n  swap1\n  tag_2\n  swap2\n  swap1\n  tag_3\n  jump\t// in\ntag_2:\n    /* \"contracts/EventRewards.sol\":402:419  _loginCoinAddress */\n  dup2\n    /* \"contracts/EventRewards.sol\":372:381  loginCoin */\n  0x00\n  dup1\n    /* \"contracts/EventRewards.sol\":372:420  loginCoin = IERC20Upgradeable(_loginCoinAddress) */\n  0x0100\n  exp\n  dup2\n  sload\n  dup2\n  0xffffffffffffffffffffffffffffffffffffffff\n  mul\n  not\n  and\n  swap1\n  dup4\n  0xffffffffffffffffffffffffffffffffffffffff\n  and\n  mul\n  or\n  swap1\n  sstore\n  pop\n    /* \"contracts/EventRewards.sol\":445:465  _initialRewardAmount */\n  dup1\n    /* \"contracts/EventRewards.sol\":430:442  rewardAmount */\n  0x02\n    /* \"contracts/EventRewards.sol\":430:465  rewardAmount = _initialRewardAmount */\n  dup2\n  swap1\n  sstore\n  pop\n    /* \"contracts/EventRewards.sol\":293:472  constructor(address _loginCoinAddress, uint256 _initialRewardAmount) {... */\n  pop\n  pop\n    /* \"contracts/EventRewards.sol\":139:858  contract EventRewards {... */\n  jump(tag_6)\n    /* \"#utility.yul\":88:205   */\ntag_8:\n    /* \"#utility.yul\":197:198   */\n  0x00\n    /* \"#utility.yul\":194:195   */\n  dup1\n    /* \"#utility.yul\":187:199   */\n  revert\n    /* \"#utility.yul\":334:460   */\ntag_10:\n    /* \"#utility.yul\":371:378   */\n  0x00\n    /* \"#utility.yul\":411:453   */\n  0xffffffffffffffffffffffffffffffffffffffff\n    /* \"#utility.yul\":404:409   */\n  dup3\n    /* \"#utility.yul\":400:454   */\n  and\n    /* \"#utility.yul\":389:454   */\n  swap1\n  pop\n    /* \"#utility.yul\":334:460   */\n  swap2\n  swap1\n  pop\n  jump\t// out\n    /* \"#utility.yul\":466:562   */\ntag_11:\n    /* \"#utility.yul\":503:510   */\n  0x00\n    /* \"#utility.yul\":532:556   */\n  tag_23\n    /* \"#utility.yul\":550:555   */\n  dup3\n    /* \"#utility.yul\":532:556   */\n  tag_10\n  jump\t// in\ntag_23:\n    /* \"#utility.yul\":521:556   */\n  swap1\n  pop\n    /* \"#utility.yul\":466:562   */\n  swap2\n  swap1\n  pop\n  jump\t// out\n    /* \"#utility.yul\":568:690   */\ntag_12:\n    /* \"#utility.yul\":641:665   */\n  tag_25\n    /* \"#utility.yul\":659:664   */\n  dup2\n    /* \"#utility.yul\":641:665   */\n  tag_11\n  jump\t// in\ntag_25:\n    /* \"#utility.yul\":634:639   */\n  dup2\n    /* \"#utility.yul\":631:666   */\n  eq\n    /* \"#utility.yul\":621:684   */\n  tag_26\n  jumpi\n    /* \"#utility.yul\":680:681   */\n  0x00\n    /* \"#utility.yul\":677:678   */\n  dup1\n    /* \"#utility.yul\":670:682   */\n  revert\n    /* \"#utility.yul\":621:684   */\ntag_26:\n    /* \"#utility.yul\":568:690   */\n  pop\n  jump\t// out\n    /* \"#utility.yul\":696:839   */\ntag_13:\n    /* \"#utility.yul\":753:758   */\n  0x00\n    /* \"#utility.yul\":784:790   */\n  dup2\n    /* \"#utility.yul\":778:791   */\n  mload\n    /* \"#utility.yul\":769:791   */\n  swap1\n  pop\n    /* \"#utility.yul\":800:833   */\n  tag_28\n    /* \"#utility.yul\":827:832   */\n  dup2\n    /* \"#utility.yul\":800:833   */\n  tag_12\n  jump\t// in\ntag_28:\n    /* \"#utility.yul\":696:839   */\n  swap3\n  swap2\n  pop\n  pop\n  jump\t// out\n    /* \"#utility.yul\":845:922   */\ntag_14:\n    /* \"#utility.yul\":882:889   */\n  0x00\n    /* \"#utility.yul\":911:916   */\n  dup2\n    /* \"#utility.yul\":900:916   */\n  swap1\n  pop\n    /* \"#utility.yul\":845:922   */\n  swap2\n  swap1\n  pop\n  jump\t// out\n    /* \"#utility.yul\":928:1050   */\ntag_15:\n    /* \"#utility.yul\":1001:1025   */\n  tag_31\n    /* \"#utility.yul\":1019:1024   */\n  dup2\n    /* \"#utility.yul\":1001:1025   */\n  tag_14\n  jump\t// in\ntag_31:\n    /* \"#utility.yul\":994:999   */\n  dup2\n    /* \"#utility.yul\":991:1026   */\n  eq\n    /* \"#utility.yul\":981:1044   */\n  tag_32\n  jumpi\n    /* \"#utility.yul\":1040:1041   */\n  0x00\n    /* \"#utility.yul\":1037:1038   */\n  dup1\n    /* \"#utility.yul\":1030:1042   */\n  revert\n    /* \"#utility.yul\":981:1044   */\ntag_32:\n    /* \"#utility.yul\":928:1050   */\n  pop\n  jump\t// out\n    /* \"#utility.yul\":1056:1199   */\ntag_16:\n    /* \"#utility.yul\":1113:1118   */\n  0x00\n    /* \"#utility.yul\":1144:1150   */\n  dup2\n    /* \"#utility.yul\":1138:1151   */\n  mload\n    /* \"#utility.yul\":1129:1151   */\n  swap1\n  pop\n    /* \"#utility.yul\":1160:1193   */\n  tag_34\n    /* \"#utility.yul\":1187:1192   */\n  dup2\n    /* \"#utility.yul\":1160:1193   */\n  tag_15\n  jump\t// in\ntag_34:\n    /* \"#utility.yul\":1056:1199   */\n  swap3\n  swap2\n  pop\n  pop\n  jump\t// out\n    /* \"#utility.yul\":1205:1712   */\ntag_3:\n    /* \"#utility.yul\":1284:1290   */\n  0x00\n    /* \"#utility.yul\":1292:1298   */\n  dup1\n    /* \"#utility.yul\":1341:1343   */\n  0x40\n    /* \"#utility.yul\":1329:1338   */\n  dup4\n    /* \"#utility.yul\":1320:1327   */\n  dup6\n    /* \"#utility.yul\":1316:1339   */\n  sub\n    /* \"#utility.yul\":1312:1344   */\n  slt\n    /* \"#utility.yul\":1309:1428   */\n  iszero\n  tag_36\n  jumpi\n    /* \"#utility.yul\":1347:1426   */\n  tag_37\n  tag_8\n  jump\t// in\ntag_37:\n    /* \"#utility.yul\":1309:1428   */\ntag_36:\n    /* \"#utility.yul\":1467:1468   */\n  0x00\n    /* \"#utility.yul\":1492:1556   */\n  tag_38\n    /* \"#utility.yul\":1548:1555   */\n  dup6\n    /* \"#utility.yul\":1539:1545   */\n  dup3\n    /* \"#utility.yul\":1528:1537   */\n  dup7\n    /* \"#utility.yul\":1524:1546   */\n  add\n    /* \"#utility.yul\":1492:1556   */\n  tag_13\n  jump\t// in\ntag_38:\n    /* \"#utility.yul\":1482:1556   */\n  swap3\n  pop\n    /* \"#utility.yul\":1438:1566   */\n  pop\n    /* \"#utility.yul\":1605:1607   */\n  0x20\n    /* \"#utility.yul\":1631:1695   */\n  tag_39\n    /* \"#utility.yul\":1687:1694   */\n  dup6\n    /* \"#utility.yul\":1678:1684   */\n  dup3\n    /* \"#utility.yul\":1667:1676   */\n  dup7\n    /* \"#utility.yul\":1663:1685   */\n  add\n    /* \"#utility.yul\":1631:1695   */\n  tag_16\n  jump\t// in\ntag_39:\n    /* \"#utility.yul\":1621:1695   */\n  swap2\n  pop\n    /* \"#utility.yul\":1576:1705   */\n  pop\n    /* \"#utility.yul\":1205:1712   */\n  swap3\n  pop\n  swap3\n  swap1\n  pop\n  jump\t// out\n    /* \"contracts/EventRewards.sol\":139:858  contract EventRewards {... */\ntag_6:\n  dataSize(sub_0)\n  dup1\n  dataOffset(sub_0)\n  0x00\n  codecopy\n  0x00\n  return\nstop\n\nsub_0: assembly {\n        /* \"contracts/EventRewards.sol\":139:858  contract EventRewards {... */\n      mstore(0x40, 0x80)\n      callvalue\n      dup1\n      iszero\n      tag_1\n      jumpi\n      0x00\n      dup1\n      revert\n    tag_1:\n      pop\n      jumpi(tag_2, lt(calldatasize, 0x04))\n      shr(0xe0, calldataload(0x00))\n      dup1\n      0x1f4894b1\n      eq\n      tag_3\n      jumpi\n      dup1\n      0x5eaf4014\n      eq\n      tag_4\n      jumpi\n      dup1\n      0xa8a65a78\n      eq\n      tag_5\n      jumpi\n      dup1\n      0xf12182a6\n      eq\n      tag_6\n      jumpi\n      dup1\n      0xf7b2a7be\n      eq\n      tag_7\n      jumpi\n    tag_2:\n      0x00\n      dup1\n      revert\n        /* \"contracts/EventRewards.sol\":207:253  mapping(address => bool) public eventAttendees */\n    tag_3:\n      tag_8\n      0x04\n      dup1\n      calldatasize\n      sub\n      dup2\n      add\n      swap1\n      tag_9\n      swap2\n      swap1\n      tag_10\n      jump\t// in\n    tag_9:\n      tag_11\n      jump\t// in\n    tag_8:\n      mload(0x40)\n      tag_12\n      swap2\n      swap1\n      tag_13\n      jump\t// in\n    tag_12:\n      mload(0x40)\n      dup1\n      swap2\n      sub\n      swap1\n      return\n        /* \"contracts/EventRewards.sol\":167:201  IERC20Upgradeable public loginCoin */\n    tag_4:\n      tag_14\n      tag_15\n      jump\t// in\n    tag_14:\n      mload(0x40)\n      tag_16\n      swap2\n      swap1\n      tag_17\n      jump\t// in\n    tag_16:\n      mload(0x40)\n      dup1\n      swap2\n      sub\n      swap1\n      return\n        /* \"contracts/EventRewards.sol\":752:856  function setRewardAmount(uint256 newRewardAmount) public {... */\n    tag_5:\n      tag_18\n      0x04\n      dup1\n      calldatasize\n      sub\n      dup2\n      add\n      swap1\n      tag_19\n      swap2\n      swap1\n      tag_20\n      jump\t// in\n    tag_19:\n      tag_21\n      jump\t// in\n    tag_18:\n      stop\n        /* \"contracts/EventRewards.sol\":478:746  function rewardAttendance(address attendee) public {... */\n    tag_6:\n      tag_22\n      0x04\n      dup1\n      calldatasize\n      sub\n      dup2\n      add\n      swap1\n      tag_23\n      swap2\n      swap1\n      tag_10\n      jump\t// in\n    tag_23:\n      tag_24\n      jump\t// in\n    tag_22:\n      stop\n        /* \"contracts/EventRewards.sol\":259:286  uint256 public rewardAmount */\n    tag_7:\n      tag_25\n      tag_26\n      jump\t// in\n    tag_25:\n      mload(0x40)\n      tag_27\n      swap2\n      swap1\n      tag_28\n      jump\t// in\n    tag_27:\n      mload(0x40)\n      dup1\n      swap2\n      sub\n      swap1\n      return\n        /* \"contracts/EventRewards.sol\":207:253  mapping(address => bool) public eventAttendees */\n    tag_11:\n      mstore(0x20, 0x01)\n      dup1\n      0x00\n      mstore\n      keccak256(0x00, 0x40)\n      0x00\n      swap2\n      pop\n      sload\n      swap1\n      0x0100\n      exp\n      swap1\n      div\n      0xff\n      and\n      dup2\n      jump\t// out\n        /* \"contracts/EventRewards.sol\":167:201  IERC20Upgradeable public loginCoin */\n    tag_15:\n      0x00\n      dup1\n      sload\n      swap1\n      0x0100\n      exp\n      swap1\n      div\n      0xffffffffffffffffffffffffffffffffffffffff\n      and\n      dup2\n      jump\t// out\n        /* \"contracts/EventRewards.sol\":752:856  function setRewardAmount(uint256 newRewardAmount) public {... */\n    tag_21:\n        /* \"contracts/EventRewards.sol\":834:849  newRewardAmount */\n      dup1\n        /* \"contracts/EventRewards.sol\":819:831  rewardAmount */\n      0x02\n        /* \"contracts/EventRewards.sol\":819:849  rewardAmount = newRewardAmount */\n      dup2\n      swap1\n      sstore\n      pop\n        /* \"contracts/EventRewards.sol\":752:856  function setRewardAmount(uint256 newRewardAmount) public {... */\n      pop\n      jump\t// out\n        /* \"contracts/EventRewards.sol\":478:746  function rewardAttendance(address attendee) public {... */\n    tag_24:\n        /* \"contracts/EventRewards.sol\":548:562  eventAttendees */\n      0x01\n        /* \"contracts/EventRewards.sol\":548:572  eventAttendees[attendee] */\n      0x00\n        /* \"contracts/EventRewards.sol\":563:571  attendee */\n      dup3\n        /* \"contracts/EventRewards.sol\":548:572  eventAttendees[attendee] */\n      0xffffffffffffffffffffffffffffffffffffffff\n      and\n      0xffffffffffffffffffffffffffffffffffffffff\n      and\n      dup2\n      mstore\n      0x20\n      add\n      swap1\n      dup2\n      mstore\n      0x20\n      add\n      0x00\n      keccak256\n      0x00\n      swap1\n      sload\n      swap1\n      0x0100\n      exp\n      swap1\n      div\n      0xff\n      and\n        /* \"contracts/EventRewards.sol\":547:572  !eventAttendees[attendee] */\n      iszero\n        /* \"contracts/EventRewards.sol\":539:611  require(!eventAttendees[attendee], \"Attendee has already been rewarded\") */\n      tag_31\n      jumpi\n      mload(0x40)\n      0x08c379a000000000000000000000000000000000000000000000000000000000\n      dup2\n      mstore\n      0x04\n      add\n      tag_32\n      swap1\n      tag_33\n      jump\t// in\n    tag_32:\n      mload(0x40)\n      dup1\n      swap2\n      sub\n      swap1\n      revert\n    tag_31:\n        /* \"contracts/EventRewards.sol\":648:652  true */\n      0x01\n        /* \"contracts/EventRewards.sol\":621:635  eventAttendees */\n      dup1\n        /* \"contracts/EventRewards.sol\":621:645  eventAttendees[attendee] */\n      0x00\n        /* \"contracts/EventRewards.sol\":636:644  attendee */\n      dup4\n        /* \"contracts/EventRewards.sol\":621:645  eventAttendees[attendee] */\n      0xffffffffffffffffffffffffffffffffffffffff\n      and\n      0xffffffffffffffffffffffffffffffffffffffff\n      and\n      dup2\n      mstore\n      0x20\n      add\n      swap1\n      dup2\n      mstore\n      0x20\n      add\n      0x00\n      keccak256\n      0x00\n        /* \"contracts/EventRewards.sol\":621:652  eventAttendees[attendee] = true */\n      0x0100\n      exp\n      dup2\n      sload\n      dup2\n      0xff\n      mul\n      not\n      and\n      swap1\n      dup4\n      iszero\n      iszero\n      mul\n      or\n      swap1\n      sstore\n      pop\n        /* \"contracts/EventRewards.sol\":670:679  loginCoin */\n      0x00\n      dup1\n      sload\n      swap1\n      0x0100\n      exp\n      swap1\n      div\n      0xffffffffffffffffffffffffffffffffffffffff\n      and\n        /* \"contracts/EventRewards.sol\":670:688  loginCoin.transfer */\n      0xffffffffffffffffffffffffffffffffffffffff\n      and\n      0xa9059cbb\n        /* \"contracts/EventRewards.sol\":689:697  attendee */\n      dup3\n        /* \"contracts/EventRewards.sol\":699:711  rewardAmount */\n      sload(0x02)\n        /* \"contracts/EventRewards.sol\":670:712  loginCoin.transfer(attendee, rewardAmount) */\n      mload(0x40)\n      dup4\n      0xffffffff\n      and\n      0xe0\n      shl\n      dup2\n      mstore\n      0x04\n      add\n      tag_34\n      swap3\n      swap2\n      swap1\n      tag_35\n      jump\t// in\n    tag_34:\n      0x20\n      mload(0x40)\n      dup1\n      dup4\n      sub\n      dup2\n      0x00\n      dup8\n      gas\n      call\n      iszero\n      dup1\n      iszero\n      tag_37\n      jumpi\n      returndatasize\n      0x00\n      dup1\n      returndatacopy\n      revert(0x00, returndatasize)\n    tag_37:\n      pop\n      pop\n      pop\n      pop\n      mload(0x40)\n      returndatasize\n      not(0x1f)\n      0x1f\n      dup3\n      add\n      and\n      dup3\n      add\n      dup1\n      0x40\n      mstore\n      pop\n      dup2\n      add\n      swap1\n      tag_38\n      swap2\n      swap1\n      tag_39\n      jump\t// in\n    tag_38:\n        /* \"contracts/EventRewards.sol\":662:739  require(loginCoin.transfer(attendee, rewardAmount), \"Reward transfer failed\") */\n      tag_40\n      jumpi\n      mload(0x40)\n      0x08c379a000000000000000000000000000000000000000000000000000000000\n      dup2\n      mstore\n      0x04\n      add\n      tag_41\n      swap1\n      tag_42\n      jump\t// in\n    tag_41:\n      mload(0x40)\n      dup1\n      swap2\n      sub\n      swap1\n      revert\n    tag_40:\n        /* \"contracts/EventRewards.sol\":478:746  function rewardAttendance(address attendee) public {... */\n      pop\n      jump\t// out\n        /* \"contracts/EventRewards.sol\":259:286  uint256 public rewardAmount */\n    tag_26:\n      sload(0x02)\n      dup2\n      jump\t// out\n        /* \"#utility.yul\":88:205   */\n    tag_44:\n        /* \"#utility.yul\":197:198   */\n      0x00\n        /* \"#utility.yul\":194:195   */\n      dup1\n        /* \"#utility.yul\":187:199   */\n      revert\n        /* \"#utility.yul\":334:460   */\n    tag_46:\n        /* \"#utility.yul\":371:378   */\n      0x00\n        /* \"#utility.yul\":411:453   */\n      0xffffffffffffffffffffffffffffffffffffffff\n        /* \"#utility.yul\":404:409   */\n      dup3\n        /* \"#utility.yul\":400:454   */\n      and\n        /* \"#utility.yul\":389:454   */\n      swap1\n      pop\n        /* \"#utility.yul\":334:460   */\n      swap2\n      swap1\n      pop\n      jump\t// out\n        /* \"#utility.yul\":466:562   */\n    tag_47:\n        /* \"#utility.yul\":503:510   */\n      0x00\n        /* \"#utility.yul\":532:556   */\n      tag_75\n        /* \"#utility.yul\":550:555   */\n      dup3\n        /* \"#utility.yul\":532:556   */\n      tag_46\n      jump\t// in\n    tag_75:\n        /* \"#utility.yul\":521:556   */\n      swap1\n      pop\n        /* \"#utility.yul\":466:562   */\n      swap2\n      swap1\n      pop\n      jump\t// out\n        /* \"#utility.yul\":568:690   */\n    tag_48:\n        /* \"#utility.yul\":641:665   */\n      tag_77\n        /* \"#utility.yul\":659:664   */\n      dup2\n        /* \"#utility.yul\":641:665   */\n      tag_47\n      jump\t// in\n    tag_77:\n        /* \"#utility.yul\":634:639   */\n      dup2\n        /* \"#utility.yul\":631:666   */\n      eq\n        /* \"#utility.yul\":621:684   */\n      tag_78\n      jumpi\n        /* \"#utility.yul\":680:681   */\n      0x00\n        /* \"#utility.yul\":677:678   */\n      dup1\n        /* \"#utility.yul\":670:682   */\n      revert\n        /* \"#utility.yul\":621:684   */\n    tag_78:\n        /* \"#utility.yul\":568:690   */\n      pop\n      jump\t// out\n        /* \"#utility.yul\":696:835   */\n    tag_49:\n        /* \"#utility.yul\":742:747   */\n      0x00\n        /* \"#utility.yul\":780:786   */\n      dup2\n        /* \"#utility.yul\":767:787   */\n      calldataload\n        /* \"#utility.yul\":758:787   */\n      swap1\n      pop\n        /* \"#utility.yul\":796:829   */\n      tag_80\n        /* \"#utility.yul\":823:828   */\n      dup2\n        /* \"#utility.yul\":796:829   */\n      tag_48\n      jump\t// in\n    tag_80:\n        /* \"#utility.yul\":696:835   */\n      swap3\n      swap2\n      pop\n      pop\n      jump\t// out\n        /* \"#utility.yul\":841:1170   */\n    tag_10:\n        /* \"#utility.yul\":900:906   */\n      0x00\n        /* \"#utility.yul\":949:951   */\n      0x20\n        /* \"#utility.yul\":937:946   */\n      dup3\n        /* \"#utility.yul\":928:935   */\n      dup5\n        /* \"#utility.yul\":924:947   */\n      sub\n        /* \"#utility.yul\":920:952   */\n      slt\n        /* \"#utility.yul\":917:1036   */\n      iszero\n      tag_82\n      jumpi\n        /* \"#utility.yul\":955:1034   */\n      tag_83\n      tag_44\n      jump\t// in\n    tag_83:\n        /* \"#utility.yul\":917:1036   */\n    tag_82:\n        /* \"#utility.yul\":1075:1076   */\n      0x00\n        /* \"#utility.yul\":1100:1153   */\n      tag_84\n        /* \"#utility.yul\":1145:1152   */\n      dup5\n        /* \"#utility.yul\":1136:1142   */\n      dup3\n        /* \"#utility.yul\":1125:1134   */\n      dup6\n        /* \"#utility.yul\":1121:1143   */\n      add\n        /* \"#utility.yul\":1100:1153   */\n      tag_49\n      jump\t// in\n    tag_84:\n        /* \"#utility.yul\":1090:1153   */\n      swap2\n      pop\n        /* \"#utility.yul\":1046:1163   */\n      pop\n        /* \"#utility.yul\":841:1170   */\n      swap3\n      swap2\n      pop\n      pop\n      jump\t// out\n        /* \"#utility.yul\":1176:1266   */\n    tag_50:\n        /* \"#utility.yul\":1210:1217   */\n      0x00\n        /* \"#utility.yul\":1253:1258   */\n      dup2\n        /* \"#utility.yul\":1246:1259   */\n      iszero\n        /* \"#utility.yul\":1239:1260   */\n      iszero\n        /* \"#utility.yul\":1228:1260   */\n      swap1\n      pop\n        /* \"#utility.yul\":1176:1266   */\n      swap2\n      swap1\n      pop\n      jump\t// out\n        /* \"#utility.yul\":1272:1381   */\n    tag_51:\n        /* \"#utility.yul\":1353:1374   */\n      tag_87\n        /* \"#utility.yul\":1368:1373   */\n      dup2\n        /* \"#utility.yul\":1353:1374   */\n      tag_50\n      jump\t// in\n    tag_87:\n        /* \"#utility.yul\":1348:1351   */\n      dup3\n        /* \"#utility.yul\":1341:1375   */\n      mstore\n        /* \"#utility.yul\":1272:1381   */\n      pop\n      pop\n      jump\t// out\n        /* \"#utility.yul\":1387:1597   */\n    tag_13:\n        /* \"#utility.yul\":1474:1478   */\n      0x00\n        /* \"#utility.yul\":1512:1514   */\n      0x20\n        /* \"#utility.yul\":1501:1510   */\n      dup3\n        /* \"#utility.yul\":1497:1515   */\n      add\n        /* \"#utility.yul\":1489:1515   */\n      swap1\n      pop\n        /* \"#utility.yul\":1525:1590   */\n      tag_89\n        /* \"#utility.yul\":1587:1588   */\n      0x00\n        /* \"#utility.yul\":1576:1585   */\n      dup4\n        /* \"#utility.yul\":1572:1589   */\n      add\n        /* \"#utility.yul\":1563:1569   */\n      dup5\n        /* \"#utility.yul\":1525:1590   */\n      tag_51\n      jump\t// in\n    tag_89:\n        /* \"#utility.yul\":1387:1597   */\n      swap3\n      swap2\n      pop\n      pop\n      jump\t// out\n        /* \"#utility.yul\":1603:1663   */\n    tag_52:\n        /* \"#utility.yul\":1631:1634   */\n      0x00\n        /* \"#utility.yul\":1652:1657   */\n      dup2\n        /* \"#utility.yul\":1645:1657   */\n      swap1\n      pop\n        /* \"#utility.yul\":1603:1663   */\n      swap2\n      swap1\n      pop\n      jump\t// out\n        /* \"#utility.yul\":1669:1811   */\n    tag_53:\n        /* \"#utility.yul\":1719:1728   */\n      0x00\n        /* \"#utility.yul\":1752:1805   */\n      tag_92\n        /* \"#utility.yul\":1770:1804   */\n      tag_93\n        /* \"#utility.yul\":1779:1803   */\n      tag_94\n        /* \"#utility.yul\":1797:1802   */\n      dup5\n        /* \"#utility.yul\":1779:1803   */\n      tag_46\n      jump\t// in\n    tag_94:\n        /* \"#utility.yul\":1770:1804   */\n      tag_52\n      jump\t// in\n    tag_93:\n        /* \"#utility.yul\":1752:1805   */\n      tag_46\n      jump\t// in\n    tag_92:\n        /* \"#utility.yul\":1739:1805   */\n      swap1\n      pop\n        /* \"#utility.yul\":1669:1811   */\n      swap2\n      swap1\n      pop\n      jump\t// out\n        /* \"#utility.yul\":1817:1943   */\n    tag_54:\n        /* \"#utility.yul\":1867:1876   */\n      0x00\n        /* \"#utility.yul\":1900:1937   */\n      tag_96\n        /* \"#utility.yul\":1931:1936   */\n      dup3\n        /* \"#utility.yul\":1900:1937   */\n      tag_53\n      jump\t// in\n    tag_96:\n        /* \"#utility.yul\":1887:1937   */\n      swap1\n      pop\n        /* \"#utility.yul\":1817:1943   */\n      swap2\n      swap1\n      pop\n      jump\t// out\n        /* \"#utility.yul\":1949:2099   */\n    tag_55:\n        /* \"#utility.yul\":2023:2032   */\n      0x00\n        /* \"#utility.yul\":2056:2093   */\n      tag_98\n        /* \"#utility.yul\":2087:2092   */\n      dup3\n        /* \"#utility.yul\":2056:2093   */\n      tag_54\n      jump\t// in\n    tag_98:\n        /* \"#utility.yul\":2043:2093   */\n      swap1\n      pop\n        /* \"#utility.yul\":1949:2099   */\n      swap2\n      swap1\n      pop\n      jump\t// out\n        /* \"#utility.yul\":2105:2284   */\n    tag_56:\n        /* \"#utility.yul\":2216:2277   */\n      tag_100\n        /* \"#utility.yul\":2271:2276   */\n      dup2\n        /* \"#utility.yul\":2216:2277   */\n      tag_55\n      jump\t// in\n    tag_100:\n        /* \"#utility.yul\":2211:2214   */\n      dup3\n        /* \"#utility.yul\":2204:2278   */\n      mstore\n        /* \"#utility.yul\":2105:2284   */\n      pop\n      pop\n      jump\t// out\n        /* \"#utility.yul\":2290:2560   */\n    tag_17:\n        /* \"#utility.yul\":2407:2411   */\n      0x00\n        /* \"#utility.yul\":2445:2447   */\n      0x20\n        /* \"#utility.yul\":2434:2443   */\n      dup3\n        /* \"#utility.yul\":2430:2448   */\n      add\n        /* \"#utility.yul\":2422:2448   */\n      swap1\n      pop\n        /* \"#utility.yul\":2458:2553   */\n      tag_102\n        /* \"#utility.yul\":2550:2551   */\n      0x00\n        /* \"#utility.yul\":2539:2548   */\n      dup4\n        /* \"#utility.yul\":2535:2552   */\n      add\n        /* \"#utility.yul\":2526:2532   */\n      dup5\n        /* \"#utility.yul\":2458:2553   */\n      tag_56\n      jump\t// in\n    tag_102:\n        /* \"#utility.yul\":2290:2560   */\n      swap3\n      swap2\n      pop\n      pop\n      jump\t// out\n        /* \"#utility.yul\":2566:2643   */\n    tag_57:\n        /* \"#utility.yul\":2603:2610   */\n      0x00\n        /* \"#utility.yul\":2632:2637   */\n      dup2\n        /* \"#utility.yul\":2621:2637   */\n      swap1\n      pop\n        /* \"#utility.yul\":2566:2643   */\n      swap2\n      swap1\n      pop\n      jump\t// out\n        /* \"#utility.yul\":2649:2771   */\n    tag_58:\n        /* \"#utility.yul\":2722:2746   */\n      tag_105\n        /* \"#utility.yul\":2740:2745   */\n      dup2\n        /* \"#utility.yul\":2722:2746   */\n      tag_57\n      jump\t// in\n    tag_105:\n        /* \"#utility.yul\":2715:2720   */\n      dup2\n        /* \"#utility.yul\":2712:2747   */\n      eq\n        /* \"#utility.yul\":2702:2765   */\n      tag_106\n      jumpi\n        /* \"#utility.yul\":2761:2762   */\n      0x00\n        /* \"#utility.yul\":2758:2759   */\n      dup1\n        /* \"#utility.yul\":2751:2763   */\n      revert\n        /* \"#utility.yul\":2702:2765   */\n    tag_106:\n        /* \"#utility.yul\":2649:2771   */\n      pop\n      jump\t// out\n        /* \"#utility.yul\":2777:2916   */\n    tag_59:\n        /* \"#utility.yul\":2823:2828   */\n      0x00\n        /* \"#utility.yul\":2861:2867   */\n      dup2\n        /* \"#utility.yul\":2848:2868   */\n      calldataload\n        /* \"#utility.yul\":2839:2868   */\n      swap1\n      pop\n        /* \"#utility.yul\":2877:2910   */\n      tag_108\n        /* \"#utility.yul\":2904:2909   */\n      dup2\n        /* \"#utility.yul\":2877:2910   */\n      tag_58\n      jump\t// in\n    tag_108:\n        /* \"#utility.yul\":2777:2916   */\n      swap3\n      swap2\n      pop\n      pop\n      jump\t// out\n        /* \"#utility.yul\":2922:3251   */\n    tag_20:\n        /* \"#utility.yul\":2981:2987   */\n      0x00\n        /* \"#utility.yul\":3030:3032   */\n      0x20\n        /* \"#utility.yul\":3018:3027   */\n      dup3\n        /* \"#utility.yul\":3009:3016   */\n      dup5\n        /* \"#utility.yul\":3005:3028   */\n      sub\n        /* \"#utility.yul\":3001:3033   */\n      slt\n        /* \"#utility.yul\":2998:3117   */\n      iszero\n      tag_110\n      jumpi\n        /* \"#utility.yul\":3036:3115   */\n      tag_111\n      tag_44\n      jump\t// in\n    tag_111:\n        /* \"#utility.yul\":2998:3117   */\n    tag_110:\n        /* \"#utility.yul\":3156:3157   */\n      0x00\n        /* \"#utility.yul\":3181:3234   */\n      tag_112\n        /* \"#utility.yul\":3226:3233   */\n      dup5\n        /* \"#utility.yul\":3217:3223   */\n      dup3\n        /* \"#utility.yul\":3206:3215   */\n      dup6\n        /* \"#utility.yul\":3202:3224   */\n      add\n        /* \"#utility.yul\":3181:3234   */\n      tag_59\n      jump\t// in\n    tag_112:\n        /* \"#utility.yul\":3171:3234   */\n      swap2\n      pop\n        /* \"#utility.yul\":3127:3244   */\n      pop\n        /* \"#utility.yul\":2922:3251   */\n      swap3\n      swap2\n      pop\n      pop\n      jump\t// out\n        /* \"#utility.yul\":3257:3375   */\n    tag_60:\n        /* \"#utility.yul\":3344:3368   */\n      tag_114\n        /* \"#utility.yul\":3362:3367   */\n      dup2\n        /* \"#utility.yul\":3344:3368   */\n      tag_57\n      jump\t// in\n    tag_114:\n        /* \"#utility.yul\":3339:3342   */\n      dup3\n        /* \"#utility.yul\":3332:3369   */\n      mstore\n        /* \"#utility.yul\":3257:3375   */\n      pop\n      pop\n      jump\t// out\n        /* \"#utility.yul\":3381:3603   */\n    tag_28:\n        /* \"#utility.yul\":3474:3478   */\n      0x00\n        /* \"#utility.yul\":3512:3514   */\n      0x20\n        /* \"#utility.yul\":3501:3510   */\n      dup3\n        /* \"#utility.yul\":3497:3515   */\n      add\n        /* \"#utility.yul\":3489:3515   */\n      swap1\n      pop\n        /* \"#utility.yul\":3525:3596   */\n      tag_116\n        /* \"#utility.yul\":3593:3594   */\n      0x00\n        /* \"#utility.yul\":3582:3591   */\n      dup4\n        /* \"#utility.yul\":3578:3595   */\n      add\n        /* \"#utility.yul\":3569:3575   */\n      dup5\n        /* \"#utility.yul\":3525:3596   */\n      tag_60\n      jump\t// in\n    tag_116:\n        /* \"#utility.yul\":3381:3603   */\n      swap3\n      swap2\n      pop\n      pop\n      jump\t// out\n        /* \"#utility.yul\":3609:3778   */\n    tag_61:\n        /* \"#utility.yul\":3693:3704   */\n      0x00\n        /* \"#utility.yul\":3727:3733   */\n      dup3\n        /* \"#utility.yul\":3722:3725   */\n      dup3\n        /* \"#utility.yul\":3715:3734   */\n      mstore\n        /* \"#utility.yul\":3767:3771   */\n      0x20\n        /* \"#utility.yul\":3762:3765   */\n      dup3\n        /* \"#utility.yul\":3758:3772   */\n      add\n        /* \"#utility.yul\":3743:3772   */\n      swap1\n      pop\n        /* \"#utility.yul\":3609:3778   */\n      swap3\n      swap2\n      pop\n      pop\n      jump\t// out\n        /* \"#utility.yul\":3784:4005   */\n    tag_62:\n        /* \"#utility.yul\":3924:3958   */\n      0x417474656e6465652068617320616c7265616479206265656e20726577617264\n        /* \"#utility.yul\":3920:3921   */\n      0x00\n        /* \"#utility.yul\":3912:3918   */\n      dup3\n        /* \"#utility.yul\":3908:3922   */\n      add\n        /* \"#utility.yul\":3901:3959   */\n      mstore\n        /* \"#utility.yul\":3993:3997   */\n      0x6564000000000000000000000000000000000000000000000000000000000000\n        /* \"#utility.yul\":3988:3990   */\n      0x20\n        /* \"#utility.yul\":3980:3986   */\n      dup3\n        /* \"#utility.yul\":3976:3991   */\n      add\n        /* \"#utility.yul\":3969:3998   */\n      mstore\n        /* \"#utility.yul\":3784:4005   */\n      pop\n      jump\t// out\n        /* \"#utility.yul\":4011:4377   */\n    tag_63:\n        /* \"#utility.yul\":4153:4156   */\n      0x00\n        /* \"#utility.yul\":4174:4241   */\n      tag_120\n        /* \"#utility.yul\":4238:4240   */\n      0x22\n        /* \"#utility.yul\":4233:4236   */\n      dup4\n        /* \"#utility.yul\":4174:4241   */\n      tag_61\n      jump\t// in\n    tag_120:\n        /* \"#utility.yul\":4167:4241   */\n      swap2\n      pop\n        /* \"#utility.yul\":4250:4343   */\n      tag_121\n        /* \"#utility.yul\":4339:4342   */\n      dup3\n        /* \"#utility.yul\":4250:4343   */\n      tag_62\n      jump\t// in\n    tag_121:\n        /* \"#utility.yul\":4368:4370   */\n      0x40\n        /* \"#utility.yul\":4363:4366   */\n      dup3\n        /* \"#utility.yul\":4359:4371   */\n      add\n        /* \"#utility.yul\":4352:4371   */\n      swap1\n      pop\n        /* \"#utility.yul\":4011:4377   */\n      swap2\n      swap1\n      pop\n      jump\t// out\n        /* \"#utility.yul\":4383:4802   */\n    tag_33:\n        /* \"#utility.yul\":4549:4553   */\n      0x00\n        /* \"#utility.yul\":4587:4589   */\n      0x20\n        /* \"#utility.yul\":4576:4585   */\n      dup3\n        /* \"#utility.yul\":4572:4590   */\n      add\n        /* \"#utility.yul\":4564:4590   */\n      swap1\n      pop\n        /* \"#utility.yul\":4636:4645   */\n      dup2\n        /* \"#utility.yul\":4630:4634   */\n      dup2\n        /* \"#utility.yul\":4626:4646   */\n      sub\n        /* \"#utility.yul\":4622:4623   */\n      0x00\n        /* \"#utility.yul\":4611:4620   */\n      dup4\n        /* \"#utility.yul\":4607:4624   */\n      add\n        /* \"#utility.yul\":4600:4647   */\n      mstore\n        /* \"#utility.yul\":4664:4795   */\n      tag_123\n        /* \"#utility.yul\":4790:4794   */\n      dup2\n        /* \"#utility.yul\":4664:4795   */\n      tag_63\n      jump\t// in\n    tag_123:\n        /* \"#utility.yul\":4656:4795   */\n      swap1\n      pop\n        /* \"#utility.yul\":4383:4802   */\n      swap2\n      swap1\n      pop\n      jump\t// out\n        /* \"#utility.yul\":4808:4926   */\n    tag_64:\n        /* \"#utility.yul\":4895:4919   */\n      tag_125\n        /* \"#utility.yul\":4913:4918   */\n      dup2\n        /* \"#utility.yul\":4895:4919   */\n      tag_47\n      jump\t// in\n    tag_125:\n        /* \"#utility.yul\":4890:4893   */\n      dup3\n        /* \"#utility.yul\":4883:4920   */\n      mstore\n        /* \"#utility.yul\":4808:4926   */\n      pop\n      pop\n      jump\t// out\n        /* \"#utility.yul\":4932:5264   */\n    tag_35:\n        /* \"#utility.yul\":5053:5057   */\n      0x00\n        /* \"#utility.yul\":5091:5093   */\n      0x40\n        /* \"#utility.yul\":5080:5089   */\n      dup3\n        /* \"#utility.yul\":5076:5094   */\n      add\n        /* \"#utility.yul\":5068:5094   */\n      swap1\n      pop\n        /* \"#utility.yul\":5104:5175   */\n      tag_127\n        /* \"#utility.yul\":5172:5173   */\n      0x00\n        /* \"#utility.yul\":5161:5170   */\n      dup4\n        /* \"#utility.yul\":5157:5174   */\n      add\n        /* \"#utility.yul\":5148:5154   */\n      dup6\n        /* \"#utility.yul\":5104:5175   */\n      tag_64\n      jump\t// in\n    tag_127:\n        /* \"#utility.yul\":5185:5257   */\n      tag_128\n        /* \"#utility.yul\":5253:5255   */\n      0x20\n        /* \"#utility.yul\":5242:5251   */\n      dup4\n        /* \"#utility.yul\":5238:5256   */\n      add\n        /* \"#utility.yul\":5229:5235   */\n      dup5\n        /* \"#utility.yul\":5185:5257   */\n      tag_60\n      jump\t// in\n    tag_128:\n        /* \"#utility.yul\":4932:5264   */\n      swap4\n      swap3\n      pop\n      pop\n      pop\n      jump\t// out\n        /* \"#utility.yul\":5270:5386   */\n    tag_65:\n        /* \"#utility.yul\":5340:5361   */\n      tag_130\n        /* \"#utility.yul\":5355:5360   */\n      dup2\n        /* \"#utility.yul\":5340:5361   */\n      tag_50\n      jump\t// in\n    tag_130:\n        /* \"#utility.yul\":5333:5338   */\n      dup2\n        /* \"#utility.yul\":5330:5362   */\n      eq\n        /* \"#utility.yul\":5320:5380   */\n      tag_131\n      jumpi\n        /* \"#utility.yul\":5376:5377   */\n      0x00\n        /* \"#utility.yul\":5373:5374   */\n      dup1\n        /* \"#utility.yul\":5366:5378   */\n      revert\n        /* \"#utility.yul\":5320:5380   */\n    tag_131:\n        /* \"#utility.yul\":5270:5386   */\n      pop\n      jump\t// out\n        /* \"#utility.yul\":5392:5529   */\n    tag_66:\n        /* \"#utility.yul\":5446:5451   */\n      0x00\n        /* \"#utility.yul\":5477:5483   */\n      dup2\n        /* \"#utility.yul\":5471:5484   */\n      mload\n        /* \"#utility.yul\":5462:5484   */\n      swap1\n      pop\n        /* \"#utility.yul\":5493:5523   */\n      tag_133\n        /* \"#utility.yul\":5517:5522   */\n      dup2\n        /* \"#utility.yul\":5493:5523   */\n      tag_65\n      jump\t// in\n    tag_133:\n        /* \"#utility.yul\":5392:5529   */\n      swap3\n      swap2\n      pop\n      pop\n      jump\t// out\n        /* \"#utility.yul\":5535:5880   */\n    tag_39:\n        /* \"#utility.yul\":5602:5608   */\n      0x00\n        /* \"#utility.yul\":5651:5653   */\n      0x20\n        /* \"#utility.yul\":5639:5648   */\n      dup3\n        /* \"#utility.yul\":5630:5637   */\n      dup5\n        /* \"#utility.yul\":5626:5649   */\n      sub\n        /* \"#utility.yul\":5622:5654   */\n      slt\n        /* \"#utility.yul\":5619:5738   */\n      iszero\n      tag_135\n      jumpi\n        /* \"#utility.yul\":5657:5736   */\n      tag_136\n      tag_44\n      jump\t// in\n    tag_136:\n        /* \"#utility.yul\":5619:5738   */\n    tag_135:\n        /* \"#utility.yul\":5777:5778   */\n      0x00\n        /* \"#utility.yul\":5802:5863   */\n      tag_137\n        /* \"#utility.yul\":5855:5862   */\n      dup5\n        /* \"#utility.yul\":5846:5852   */\n      dup3\n        /* \"#utility.yul\":5835:5844   */\n      dup6\n        /* \"#utility.yul\":5831:5853   */\n      add\n        /* \"#utility.yul\":5802:5863   */\n      tag_66\n      jump\t// in\n    tag_137:\n        /* \"#utility.yul\":5792:5863   */\n      swap2\n      pop\n        /* \"#utility.yul\":5748:5873   */\n      pop\n        /* \"#utility.yul\":5535:5880   */\n      swap3\n      swap2\n      pop\n      pop\n      jump\t// out\n        /* \"#utility.yul\":5886:6058   */\n    tag_67:\n        /* \"#utility.yul\":6026:6050   */\n      0x526577617264207472616e73666572206661696c656400000000000000000000\n        /* \"#utility.yul\":6022:6023   */\n      0x00\n        /* \"#utility.yul\":6014:6020   */\n      dup3\n        /* \"#utility.yul\":6010:6024   */\n      add\n        /* \"#utility.yul\":6003:6051   */\n      mstore\n        /* \"#utility.yul\":5886:6058   */\n      pop\n      jump\t// out\n        /* \"#utility.yul\":6064:6430   */\n    tag_68:\n        /* \"#utility.yul\":6206:6209   */\n      0x00\n        /* \"#utility.yul\":6227:6294   */\n      tag_140\n        /* \"#utility.yul\":6291:6293   */\n      0x16\n        /* \"#utility.yul\":6286:6289   */\n      dup4\n        /* \"#utility.yul\":6227:6294   */\n      tag_61\n      jump\t// in\n    tag_140:\n        /* \"#utility.yul\":6220:6294   */\n      swap2\n      pop\n        /* \"#utility.yul\":6303:6396   */\n      tag_141\n        /* \"#utility.yul\":6392:6395   */\n      dup3\n        /* \"#utility.yul\":6303:6396   */\n      tag_67\n      jump\t// in\n    tag_141:\n        /* \"#utility.yul\":6421:6423   */\n      0x20\n        /* \"#utility.yul\":6416:6419   */\n      dup3\n        /* \"#utility.yul\":6412:6424   */\n      add\n        /* \"#utility.yul\":6405:6424   */\n      swap1\n      pop\n        /* \"#utility.yul\":6064:6430   */\n      swap2\n      swap1\n      pop\n      jump\t// out\n        /* \"#utility.yul\":6436:6855   */\n    tag_42:\n        /* \"#utility.yul\":6602:6606   */\n      0x00\n        /* \"#utility.yul\":6640:6642   */\n      0x20\n        /* \"#utility.yul\":6629:6638   */\n      dup3\n        /* \"#utility.yul\":6625:6643   */\n      add\n        /* \"#utility.yul\":6617:6643   */\n      swap1\n      pop\n        /* \"#utility.yul\":6689:6698   */\n      dup2\n        /* \"#utility.yul\":6683:6687   */\n      dup2\n        /* \"#utility.yul\":6679:6699   */\n      sub\n        /* \"#utility.yul\":6675:6676   */\n      0x00\n        /* \"#utility.yul\":6664:6673   */\n      dup4\n        /* \"#utility.yul\":6660:6677   */\n      add\n        /* \"#utility.yul\":6653:6700   */\n      mstore\n        /* \"#utility.yul\":6717:6848   */\n      tag_143\n        /* \"#utility.yul\":6843:6847   */\n      dup2\n        /* \"#utility.yul\":6717:6848   */\n      tag_68\n      jump\t// in\n    tag_143:\n        /* \"#utility.yul\":6709:6848   */\n      swap1\n      pop\n        /* \"#utility.yul\":6436:6855   */\n      swap2\n      swap1\n      pop\n      jump\t// out\n\n    auxdata: 0xa2646970667358221220a0c32238242cd43cd7f2e8712fcf103f808898fe887b8a51c3690be85fcd4a6564736f6c63430008190033\n}\n",
				"bytecode": {
					"linkReferences": {},
					"object": "608060405234801561000f575f80fd5b506040516107e03803806107e08339818101604052810190610031919061010f565b815f806101000a81548173ffffffffffffffffffffffffffffffffffffffff021916908373ffffffffffffffffffffffffffffffffffffffff16021790555080600281905550505061014d565b5f80fd5b5f73ffffffffffffffffffffffffffffffffffffffff82169050919050565b5f6100ab82610082565b9050919050565b6100bb816100a1565b81146100c5575f80fd5b50565b5f815190506100d6816100b2565b92915050565b5f819050919050565b6100ee816100dc565b81146100f8575f80fd5b50565b5f81519050610109816100e5565b92915050565b5f80604083850312156101255761012461007e565b5b5f610132858286016100c8565b9250506020610143858286016100fb565b9150509250929050565b6106868061015a5f395ff3fe608060405234801561000f575f80fd5b5060043610610055575f3560e01c80631f4894b1146100595780635eaf401414610089578063a8a65a78146100a7578063f12182a6146100c3578063f7b2a7be146100df575b5f80fd5b610073600480360381019061006e9190610367565b6100fd565b60405161008091906103ac565b60405180910390f35b61009161011a565b60405161009e9190610420565b60405180910390f35b6100c160048036038101906100bc919061046c565b61013d565b005b6100dd60048036038101906100d89190610367565b610147565b005b6100e7610303565b6040516100f491906104a6565b60405180910390f35b6001602052805f5260405f205f915054906101000a900460ff1681565b5f8054906101000a900473ffffffffffffffffffffffffffffffffffffffff1681565b8060028190555050565b60015f8273ffffffffffffffffffffffffffffffffffffffff1673ffffffffffffffffffffffffffffffffffffffff1681526020019081526020015f205f9054906101000a900460ff16156101d1576040517f08c379a00000000000000000000000000000000000000000000000000000000081526004016101c89061053f565b60405180910390fd5b6001805f8373ffffffffffffffffffffffffffffffffffffffff1673ffffffffffffffffffffffffffffffffffffffff1681526020019081526020015f205f6101000a81548160ff0219169083151502179055505f8054906101000a900473ffffffffffffffffffffffffffffffffffffffff1673ffffffffffffffffffffffffffffffffffffffff1663a9059cbb826002546040518363ffffffff1660e01b815260040161028192919061056c565b6020604051808303815f875af115801561029d573d5f803e3d5ffd5b505050506040513d601f19601f820116820180604052508101906102c191906105bd565b610300576040517f08c379a00000000000000000000000000000000000000000000000000000000081526004016102f790610632565b60405180910390fd5b50565b60025481565b5f80fd5b5f73ffffffffffffffffffffffffffffffffffffffff82169050919050565b5f6103368261030d565b9050919050565b6103468161032c565b8114610350575f80fd5b50565b5f813590506103618161033d565b92915050565b5f6020828403121561037c5761037b610309565b5b5f61038984828501610353565b91505092915050565b5f8115159050919050565b6103a681610392565b82525050565b5f6020820190506103bf5f83018461039d565b92915050565b5f819050919050565b5f6103e86103e36103de8461030d565b6103c5565b61030d565b9050919050565b5f6103f9826103ce565b9050919050565b5f61040a826103ef565b9050919050565b61041a81610400565b82525050565b5f6020820190506104335f830184610411565b92915050565b5f819050919050565b61044b81610439565b8114610455575f80fd5b50565b5f8135905061046681610442565b92915050565b5f6020828403121561048157610480610309565b5b5f61048e84828501610458565b91505092915050565b6104a081610439565b82525050565b5f6020820190506104b95f830184610497565b92915050565b5f82825260208201905092915050565b7f417474656e6465652068617320616c7265616479206265656e207265776172645f8201527f6564000000000000000000000000000000000000000000000000000000000000602082015250565b5f6105296022836104bf565b9150610534826104cf565b604082019050919050565b5f6020820190508181035f8301526105568161051d565b9050919050565b6105668161032c565b82525050565b5f60408201905061057f5f83018561055d565b61058c6020830184610497565b9392505050565b61059c81610392565b81146105a6575f80fd5b50565b5f815190506105b781610593565b92915050565b5f602082840312156105d2576105d1610309565b5b5f6105df848285016105a9565b91505092915050565b7f526577617264207472616e73666572206661696c6564000000000000000000005f82015250565b5f61061c6016836104bf565b9150610627826105e8565b602082019050919050565b5f6020820190508181035f83015261064981610610565b905091905056fea2646970667358221220a0c32238242cd43cd7f2e8712fcf103f808898fe887b8a51c3690be85fcd4a6564736f6c63430008190033",
					"opcodes": "PUSH1 0x80 PUSH1 0x40 MSTORE CALLVALUE DUP1 ISZERO PUSH2 0xF JUMPI PUSH0 DUP1 REVERT JUMPDEST POP PUSH1 0x40 MLOAD PUSH2 0x7E0 CODESIZE SUB DUP1 PUSH2 0x7E0 DUP4 CODECOPY DUP2 DUP2 ADD PUSH1 0x40 MSTORE DUP2 ADD SWAP1 PUSH2 0x31 SWAP2 SWAP1 PUSH2 0x10F JUMP JUMPDEST DUP2 PUSH0 DUP1 PUSH2 0x100 EXP DUP2 SLOAD DUP2 PUSH20 0xFFFFFFFFFFFFFFFFFFFFFFFFFFFFFFFFFFFFFFFF MUL NOT AND SWAP1 DUP4 PUSH20 0xFFFFFFFFFFFFFFFFFFFFFFFFFFFFFFFFFFFFFFFF AND MUL OR SWAP1 SSTORE POP DUP1 PUSH1 0x2 DUP2 SWAP1 SSTORE POP POP POP PUSH2 0x14D JUMP JUMPDEST PUSH0 DUP1 REVERT JUMPDEST PUSH0 PUSH20 0xFFFFFFFFFFFFFFFFFFFFFFFFFFFFFFFFFFFFFFFF DUP3 AND SWAP1 POP SWAP2 SWAP1 POP JUMP JUMPDEST PUSH0 PUSH2 0xAB DUP3 PUSH2 0x82 JUMP JUMPDEST SWAP1 POP SWAP2 SWAP1 POP JUMP JUMPDEST PUSH2 0xBB DUP2 PUSH2 0xA1 JUMP JUMPDEST DUP2 EQ PUSH2 0xC5 JUMPI PUSH0 DUP1 REVERT JUMPDEST POP JUMP JUMPDEST PUSH0 DUP2 MLOAD SWAP1 POP PUSH2 0xD6 DUP2 PUSH2 0xB2 JUMP JUMPDEST SWAP3 SWAP2 POP POP JUMP JUMPDEST PUSH0 DUP2 SWAP1 POP SWAP2 SWAP1 POP JUMP JUMPDEST PUSH2 0xEE DUP2 PUSH2 0xDC JUMP JUMPDEST DUP2 EQ PUSH2 0xF8 JUMPI PUSH0 DUP1 REVERT JUMPDEST POP JUMP JUMPDEST PUSH0 DUP2 MLOAD SWAP1 POP PUSH2 0x109 DUP2 PUSH2 0xE5 JUMP JUMPDEST SWAP3 SWAP2 POP POP JUMP JUMPDEST PUSH0 DUP1 PUSH1 0x40 DUP4 DUP6 SUB SLT ISZERO PUSH2 0x125 JUMPI PUSH2 0x124 PUSH2 0x7E JUMP JUMPDEST JUMPDEST PUSH0 PUSH2 0x132 DUP6 DUP3 DUP7 ADD PUSH2 0xC8 JUMP JUMPDEST SWAP3 POP POP PUSH1 0x20 PUSH2 0x143 DUP6 DUP3 DUP7 ADD PUSH2 0xFB JUMP JUMPDEST SWAP2 POP POP SWAP3 POP SWAP3 SWAP1 POP JUMP JUMPDEST PUSH2 0x686 DUP1 PUSH2 0x15A PUSH0 CODECOPY PUSH0 RETURN INVALID PUSH1 0x80 PUSH1 0x40 MSTORE CALLVALUE DUP1 ISZERO PUSH2 0xF JUMPI PUSH0 DUP1 REVERT JUMPDEST POP PUSH1 0x4 CALLDATASIZE LT PUSH2 0x55 JUMPI PUSH0 CALLDATALOAD PUSH1 0xE0 SHR DUP1 PUSH4 0x1F4894B1 EQ PUSH2 0x59 JUMPI DUP1 PUSH4 0x5EAF4014 EQ PUSH2 0x89 JUMPI DUP1 PUSH4 0xA8A65A78 EQ PUSH2 0xA7 JUMPI DUP1 PUSH4 0xF12182A6 EQ PUSH2 0xC3 JUMPI DUP1 PUSH4 0xF7B2A7BE EQ PUSH2 0xDF JUMPI JUMPDEST PUSH0 DUP1 REVERT JUMPDEST PUSH2 0x73 PUSH1 0x4 DUP1 CALLDATASIZE SUB DUP2 ADD SWAP1 PUSH2 0x6E SWAP2 SWAP1 PUSH2 0x367 JUMP JUMPDEST PUSH2 0xFD JUMP JUMPDEST PUSH1 0x40 MLOAD PUSH2 0x80 SWAP2 SWAP1 PUSH2 0x3AC JUMP JUMPDEST PUSH1 0x40 MLOAD DUP1 SWAP2 SUB SWAP1 RETURN JUMPDEST PUSH2 0x91 PUSH2 0x11A JUMP JUMPDEST PUSH1 0x40 MLOAD PUSH2 0x9E SWAP2 SWAP1 PUSH2 0x420 JUMP JUMPDEST PUSH1 0x40 MLOAD DUP1 SWAP2 SUB SWAP1 RETURN JUMPDEST PUSH2 0xC1 PUSH1 0x4 DUP1 CALLDATASIZE SUB DUP2 ADD SWAP1 PUSH2 0xBC SWAP2 SWAP1 PUSH2 0x46C JUMP JUMPDEST PUSH2 0x13D JUMP JUMPDEST STOP JUMPDEST PUSH2 0xDD PUSH1 0x4 DUP1 CALLDATASIZE SUB DUP2 ADD SWAP1 PUSH2 0xD8 SWAP2 SWAP1 PUSH2 0x367 JUMP JUMPDEST PUSH2 0x147 JUMP JUMPDEST STOP JUMPDEST PUSH2 0xE7 PUSH2 0x303 JUMP JUMPDEST PUSH1 0x40 MLOAD PUSH2 0xF4 SWAP2 SWAP1 PUSH2 0x4A6 JUMP JUMPDEST PUSH1 0x40 MLOAD DUP1 SWAP2 SUB SWAP1 RETURN JUMPDEST PUSH1 0x1 PUSH1 0x20 MSTORE DUP1 PUSH0 MSTORE PUSH1 0x40 PUSH0 KECCAK256 PUSH0 SWAP2 POP SLOAD SWAP1 PUSH2 0x100 EXP SWAP1 DIV PUSH1 0xFF AND DUP2 JUMP JUMPDEST PUSH0 DUP1 SLOAD SWAP1 PUSH2 0x100 EXP SWAP1 DIV PUSH20 0xFFFFFFFFFFFFFFFFFFFFFFFFFFFFFFFFFFFFFFFF AND DUP2 JUMP JUMPDEST DUP1 PUSH1 0x2 DUP2 SWAP1 SSTORE POP POP JUMP JUMPDEST PUSH1 0x1 PUSH0 DUP3 PUSH20 0xFFFFFFFFFFFFFFFFFFFFFFFFFFFFFFFFFFFFFFFF AND PUSH20 0xFFFFFFFFFFFFFFFFFFFFFFFFFFFFFFFFFFFFFFFF AND DUP2 MSTORE PUSH1 0x20 ADD SWAP1 DUP2 MSTORE PUSH1 0x20 ADD PUSH0 KECCAK256 PUSH0 SWAP1 SLOAD SWAP1 PUSH2 0x100 EXP SWAP1 DIV PUSH1 0xFF AND ISZERO PUSH2 0x1D1 JUMPI PUSH1 0x40 MLOAD PUSH32 0x8C379A000000000000000000000000000000000000000000000000000000000 DUP2 MSTORE PUSH1 0x4 ADD PUSH2 0x1C8 SWAP1 PUSH2 0x53F JUMP JUMPDEST PUSH1 0x40 MLOAD DUP1 SWAP2 SUB SWAP1 REVERT JUMPDEST PUSH1 0x1 DUP1 PUSH0 DUP4 PUSH20 0xFFFFFFFFFFFFFFFFFFFFFFFFFFFFFFFFFFFFFFFF AND PUSH20 0xFFFFFFFFFFFFFFFFFFFFFFFFFFFFFFFFFFFFFFFF AND DUP2 MSTORE PUSH1 0x20 ADD SWAP1 DUP2 MSTORE PUSH1 0x20 ADD PUSH0 KECCAK256 PUSH0 PUSH2 0x100 EXP DUP2 SLOAD DUP2 PUSH1 0xFF MUL NOT AND SWAP1 DUP4 ISZERO ISZERO MUL OR SWAP1 SSTORE POP PUSH0 DUP1 SLOAD SWAP1 PUSH2 0x100 EXP SWAP1 DIV PUSH20 0xFFFFFFFFFFFFFFFFFFFFFFFFFFFFFFFFFFFFFFFF AND PUSH20 0xFFFFFFFFFFFFFFFFFFFFFFFFFFFFFFFFFFFFFFFF AND PUSH4 0xA9059CBB DUP3 PUSH1 0x2 SLOAD PUSH1 0x40 MLOAD DUP4 PUSH4 0xFFFFFFFF AND PUSH1 0xE0 SHL DUP2 MSTORE PUSH1 0x4 ADD PUSH2 0x281 SWAP3 SWAP2 SWAP1 PUSH2 0x56C JUMP JUMPDEST PUSH1 0x20 PUSH1 0x40 MLOAD DUP1 DUP4 SUB DUP2 PUSH0 DUP8 GAS CALL ISZERO DUP1 ISZERO PUSH2 0x29D JUMPI RETURNDATASIZE PUSH0 DUP1 RETURNDATACOPY RETURNDATASIZE PUSH0 REVERT JUMPDEST POP POP POP POP PUSH1 0x40 MLOAD RETURNDATASIZE PUSH1 0x1F NOT PUSH1 0x1F DUP3 ADD AND DUP3 ADD DUP1 PUSH1 0x40 MSTORE POP DUP2 ADD SWAP1 PUSH2 0x2C1 SWAP2 SWAP1 PUSH2 0x5BD JUMP JUMPDEST PUSH2 0x300 JUMPI PUSH1 0x40 MLOAD PUSH32 0x8C379A000000000000000000000000000000000000000000000000000000000 DUP2 MSTORE PUSH1 0x4 ADD PUSH2 0x2F7 SWAP1 PUSH2 0x632 JUMP JUMPDEST PUSH1 0x40 MLOAD DUP1 SWAP2 SUB SWAP1 REVERT JUMPDEST POP JUMP JUMPDEST PUSH1 0x2 SLOAD DUP2 JUMP JUMPDEST PUSH0 DUP1 REVERT JUMPDEST PUSH0 PUSH20 0xFFFFFFFFFFFFFFFFFFFFFFFFFFFFFFFFFFFFFFFF DUP3 AND SWAP1 POP SWAP2 SWAP1 POP JUMP JUMPDEST PUSH0 PUSH2 0x336 DUP3 PUSH2 0x30D JUMP JUMPDEST SWAP1 POP SWAP2 SWAP1 POP JUMP JUMPDEST PUSH2 0x346 DUP2 PUSH2 0x32C JUMP JUMPDEST DUP2 EQ PUSH2 0x350 JUMPI PUSH0 DUP1 REVERT JUMPDEST POP JUMP JUMPDEST PUSH0 DUP2 CALLDATALOAD SWAP1 POP PUSH2 0x361 DUP2 PUSH2 0x33D JUMP JUMPDEST SWAP3 SWAP2 POP POP JUMP JUMPDEST PUSH0 PUSH1 0x20 DUP3 DUP5 SUB SLT ISZERO PUSH2 0x37C JUMPI PUSH2 0x37B PUSH2 0x309 JUMP JUMPDEST JUMPDEST PUSH0 PUSH2 0x389 DUP5 DUP3 DUP6 ADD PUSH2 0x353 JUMP JUMPDEST SWAP2 POP POP SWAP3 SWAP2 POP POP JUMP JUMPDEST PUSH0 DUP2 ISZERO ISZERO SWAP1 POP SWAP2 SWAP1 POP JUMP JUMPDEST PUSH2 0x3A6 DUP2 PUSH2 0x392 JUMP JUMPDEST DUP3 MSTORE POP POP JUMP JUMPDEST PUSH0 PUSH1 0x20 DUP3 ADD SWAP1 POP PUSH2 0x3BF PUSH0 DUP4 ADD DUP5 PUSH2 0x39D JUMP JUMPDEST SWAP3 SWAP2 POP POP JUMP JUMPDEST PUSH0 DUP2 SWAP1 POP SWAP2 SWAP1 POP JUMP JUMPDEST PUSH0 PUSH2 0x3E8 PUSH2 0x3E3 PUSH2 0x3DE DUP5 PUSH2 0x30D JUMP JUMPDEST PUSH2 0x3C5 JUMP JUMPDEST PUSH2 0x30D JUMP JUMPDEST SWAP1 POP SWAP2 SWAP1 POP JUMP JUMPDEST PUSH0 PUSH2 0x3F9 DUP3 PUSH2 0x3CE JUMP JUMPDEST SWAP1 POP SWAP2 SWAP1 POP JUMP JUMPDEST PUSH0 PUSH2 0x40A DUP3 PUSH2 0x3EF JUMP JUMPDEST SWAP1 POP SWAP2 SWAP1 POP JUMP JUMPDEST PUSH2 0x41A DUP2 PUSH2 0x400 JUMP JUMPDEST DUP3 MSTORE POP POP JUMP JUMPDEST PUSH0 PUSH1 0x20 DUP3 ADD SWAP1 POP PUSH2 0x433 PUSH0 DUP4 ADD DUP5 PUSH2 0x411 JUMP JUMPDEST SWAP3 SWAP2 POP POP JUMP JUMPDEST PUSH0 DUP2 SWAP1 POP SWAP2 SWAP1 POP JUMP JUMPDEST PUSH2 0x44B DUP2 PUSH2 0x439 JUMP JUMPDEST DUP2 EQ PUSH2 0x455 JUMPI PUSH0 DUP1 REVERT JUMPDEST POP JUMP JUMPDEST PUSH0 DUP2 CALLDATALOAD SWAP1 POP PUSH2 0x466 DUP2 PUSH2 0x442 JUMP JUMPDEST SWAP3 SWAP2 POP POP JUMP JUMPDEST PUSH0 PUSH1 0x20 DUP3 DUP5 SUB SLT ISZERO PUSH2 0x481 JUMPI PUSH2 0x480 PUSH2 0x309 JUMP JUMPDEST JUMPDEST PUSH0 PUSH2 0x48E DUP5 DUP3 DUP6 ADD PUSH2 0x458 JUMP JUMPDEST SWAP2 POP POP SWAP3 SWAP2 POP POP JUMP JUMPDEST PUSH2 0x4A0 DUP2 PUSH2 0x439 JUMP JUMPDEST DUP3 MSTORE POP POP JUMP JUMPDEST PUSH0 PUSH1 0x20 DUP3 ADD SWAP1 POP PUSH2 0x4B9 PUSH0 DUP4 ADD DUP5 PUSH2 0x497 JUMP JUMPDEST SWAP3 SWAP2 POP POP JUMP JUMPDEST PUSH0 DUP3 DUP3 MSTORE PUSH1 0x20 DUP3 ADD SWAP1 POP SWAP3 SWAP2 POP POP JUMP JUMPDEST PUSH32 0x417474656E6465652068617320616C7265616479206265656E20726577617264 PUSH0 DUP3 ADD MSTORE PUSH32 0x6564000000000000000000000000000000000000000000000000000000000000 PUSH1 0x20 DUP3 ADD MSTORE POP JUMP JUMPDEST PUSH0 PUSH2 0x529 PUSH1 0x22 DUP4 PUSH2 0x4BF JUMP JUMPDEST SWAP2 POP PUSH2 0x534 DUP3 PUSH2 0x4CF JUMP JUMPDEST PUSH1 0x40 DUP3 ADD SWAP1 POP SWAP2 SWAP1 POP JUMP JUMPDEST PUSH0 PUSH1 0x20 DUP3 ADD SWAP1 POP DUP2 DUP2 SUB PUSH0 DUP4 ADD MSTORE PUSH2 0x556 DUP2 PUSH2 0x51D JUMP JUMPDEST SWAP1 POP SWAP2 SWAP1 POP JUMP JUMPDEST PUSH2 0x566 DUP2 PUSH2 0x32C JUMP JUMPDEST DUP3 MSTORE POP POP JUMP JUMPDEST PUSH0 PUSH1 0x40 DUP3 ADD SWAP1 POP PUSH2 0x57F PUSH0 DUP4 ADD DUP6 PUSH2 0x55D JUMP JUMPDEST PUSH2 0x58C PUSH1 0x20 DUP4 ADD DUP5 PUSH2 0x497 JUMP JUMPDEST SWAP4 SWAP3 POP POP POP JUMP JUMPDEST PUSH2 0x59C DUP2 PUSH2 0x392 JUMP JUMPDEST DUP2 EQ PUSH2 0x5A6 JUMPI PUSH0 DUP1 REVERT JUMPDEST POP JUMP JUMPDEST PUSH0 DUP2 MLOAD SWAP1 POP PUSH2 0x5B7 DUP2 PUSH2 0x593 JUMP JUMPDEST SWAP3 SWAP2 POP POP JUMP JUMPDEST PUSH0 PUSH1 0x20 DUP3 DUP5 SUB SLT ISZERO PUSH2 0x5D2 JUMPI PUSH2 0x5D1 PUSH2 0x309 JUMP JUMPDEST JUMPDEST PUSH0 PUSH2 0x5DF DUP5 DUP3 DUP6 ADD PUSH2 0x5A9 JUMP JUMPDEST SWAP2 POP POP SWAP3 SWAP2 POP POP JUMP JUMPDEST PUSH32 0x526577617264207472616E73666572206661696C656400000000000000000000 PUSH0 DUP3 ADD MSTORE POP JUMP JUMPDEST PUSH0 PUSH2 0x61C PUSH1 0x16 DUP4 PUSH2 0x4BF JUMP JUMPDEST SWAP2 POP PUSH2 0x627 DUP3 PUSH2 0x5E8 JUMP JUMPDEST PUSH1 0x20 DUP3 ADD SWAP1 POP SWAP2 SWAP1 POP JUMP JUMPDEST PUSH0 PUSH1 0x20 DUP3 ADD SWAP1 POP DUP2 DUP2 SUB PUSH0 DUP4 ADD MSTORE PUSH2 0x649 DUP2 PUSH2 0x610 JUMP JUMPDEST SWAP1 POP SWAP2 SWAP1 POP JUMP INVALID LOG2 PUSH5 0x6970667358 0x22 SLT KECCAK256 LOG0 0xC3 0x22 CODESIZE 0x24 0x2C 0xD4 EXTCODECOPY 0xD7 CALLCODE 0xE8 PUSH18 0x2FCF103F808898FE887B8A51C3690BE85FCD BLOBBASEFEE PUSH6 0x64736F6C6343 STOP ADDMOD NOT STOP CALLER "
				},
				"gasEstimates": {
					"creation": {
						"codeDepositCost": "334000",
						"executionCost": "infinite",
						"totalCost": "infinite"
					},
					"external": {
						"eventAttendees(address)": "2811",
						"loginCoin()": "infinite",
						"rewardAmount()": "2491",
						"rewardAttendance(address)": "infinite",
						"setRewardAmount(uint256)": "22537"
					}
				},
				"methodIdentifiers": {
					"eventAttendees(address)": "1f4894b1",
					"loginCoin()": "5eaf4014",
					"rewardAmount()": "f7b2a7be",
					"rewardAttendance(address)": "f12182a6",
					"setRewardAmount(uint256)": "a8a65a78"
				}
			},
			"storageLayout": {
				"storage": [
					{
						"astId": 83,
						"contract": "contracts/EventRewards.sol:EventRewards",
						"label": "loginCoin",
						"offset": 0,
						"slot": "0",
						"type": "t_contract(IERC20Upgradeable)77"
					},
					{
						"astId": 87,
						"contract": "contracts/EventRewards.sol:EventRewards",
						"label": "eventAttendees",
						"offset": 0,
						"slot": "1",
						"type": "t_mapping(t_address,t_bool)"
					},
					{
						"astId": 89,
						"contract": "contracts/EventRewards.sol:EventRewards",
						"label": "rewardAmount",
						"offset": 0,
						"slot": "2",
						"type": "t_uint256"
					}
				],
				"types": {
					"t_address": {
						"encoding": "inplace",
						"label": "address",
						"numberOfBytes": "20"
					},
					"t_bool": {
						"encoding": "inplace",
						"label": "bool",
						"numberOfBytes": "1"
					},
					"t_contract(IERC20Upgradeable)77": {
						"encoding": "inplace",
						"label": "contract IERC20Upgradeable",
						"numberOfBytes": "20"
					},
					"t_mapping(t_address,t_bool)": {
						"encoding": "mapping",
						"key": "t_address",
						"label": "mapping(address => bool)",
						"numberOfBytes": "32",
						"value": "t_bool"
					},
					"t_uint256": {
						"encoding": "inplace",
						"label": "uint256",
						"numberOfBytes": "32"
					}
				}
			},
			"userdoc": {
				"kind": "user",
				"methods": {},
				"version": 1
			}
		}
	}
}