{
	"data": {
		"bytecode": {
			"linkReferences": {},
			"object": "60a06040523073ffffffffffffffffffffffffffffffffffffffff1660809073ffffffffffffffffffffffffffffffffffffffff168152503480156041575f80fd5b5060805161451b6100685f395f81816116d00152818161172501526118df015261451b5ff3fe6080604052600436106101d7575f3560e01c806370a0823111610101578063a9059cbb11610094578063dd62ed3e11610063578063dd62ed3e14610651578063f12182a61461068d578063f2fde38b146106b5578063f77c8439146106dd576101d7565b8063a9059cbb1461059b578063ad3cb1cc146105d7578063c4d66de814610601578063d505accf14610629576101d7565b80638456cb59116100d05780638456cb591461050157806384b0196e146105175780638da5cb5b1461054757806395d89b4114610571576101d7565b806370a082311461044b578063715018a61461048757806379cc67901461049d5780637ecebe00146104c5576101d7565b80633644e515116101795780634f1ef286116101485780634f1ef2861461039f57806352d1902d146103bb5780635c975abb146103e55780636be001ec1461040f576101d7565b80633644e5151461030f5780633f4ba83a1461033957806340c10f191461034f57806342966c6814610377576101d7565b806318160ddd116101b557806318160ddd146102695780631b0e1ffa1461029357806323b872dd146102a9578063313ce567146102e5576101d7565b806306fdde03146101db5780630736f84414610205578063095ea7b31461022d575b5f80fd5b3480156101e6575f80fd5b506101ef610707565b6040516101fc9190612dc7565b60405180910390f35b348015610210575f80fd5b5061022b60048036038101906102269190612e2b565b6107a5565b005b348015610238575f80fd5b50610253600480360381019061024e9190612eb0565b610827565b6040516102609190612f08565b60405180910390f35b348015610274575f80fd5b5061027d610849565b60405161028a9190612f30565b60405180910390f35b34801561029e575f80fd5b506102a7610860565b005b3480156102b4575f80fd5b506102cf60048036038101906102ca9190612f49565b6108a3565b6040516102dc9190612f08565b60405180910390f35b3480156102f0575f80fd5b506102f96108d1565b6040516103069190612fb4565b60405180910390f35b34801561031a575f80fd5b506103236108d9565b6040516103309190612fe5565b60405180910390f35b348015610344575f80fd5b5061034d6108e7565b005b34801561035a575f80fd5b5061037560048036038101906103709190612eb0565b6108f9565b005b348015610382575f80fd5b5061039d60048036038101906103989190612e2b565b610962565b005b6103b960048036038101906103b4919061312a565b610976565b005b3480156103c6575f80fd5b506103cf610995565b6040516103dc9190612fe5565b60405180910390f35b3480156103f0575f80fd5b506103f96109c6565b6040516104069190612f08565b60405180910390f35b34801561041a575f80fd5b5061043560048036038101906104309190613184565b6109e8565b6040516104429190612f30565b60405180910390f35b348015610456575f80fd5b50610471600480360381019061046c9190613184565b6109fd565b60405161047e9190612f30565b60405180910390f35b348015610492575f80fd5b5061049b610a50565b005b3480156104a8575f80fd5b506104c360048036038101906104be9190612eb0565b610a63565b005b3480156104d0575f80fd5b506104eb60048036038101906104e69190613184565b610a83565b6040516104f89190612f30565b60405180910390f35b34801561050c575f80fd5b50610515610a94565b005b348015610522575f80fd5b5061052b610aa6565b60405161053e97969594939291906132af565b60405180910390f35b348015610552575f80fd5b5061055b610baf565b6040516105689190613331565b60405180910390f35b34801561057c575f80fd5b50610585610be4565b6040516105929190612dc7565b60405180910390f35b3480156105a6575f80fd5b506105c160048036038101906105bc9190612eb0565b610c82565b6040516105ce9190612f08565b60405180910390f35b3480156105e2575f80fd5b506105eb610ca4565b6040516105f89190612dc7565b60405180910390f35b34801561060c575f80fd5b5061062760048036038101906106229190613184565b610cdd565b005b348015610634575f80fd5b5061064f600480360381019061064a919061339e565b610ffb565b005b34801561065c575f80fd5b506106776004803603810190610672919061343b565b611140565b6040516106849190612f30565b60405180910390f35b348015610698575f80fd5b506106b360048036038101906106ae9190613184565b6111d0565b005b3480156106c0575f80fd5b506106db60048036038101906106d69190613184565b611262565b005b3480156106e8575f80fd5b506106f16112e6565b6040516106fe91906134d4565b60405180910390f35b60605f61071261130b565b90508060030180546107239061351a565b80601f016020809104026020016040519081016040528092919081815260200182805461074f9061351a565b801561079a5780601f106107715761010080835404028352916020019161079a565b820191905f5260205f20905b81548152906001019060200180831161077d57829003601f168201915b505050505091505090565b6107ad611332565b806107b7306109fd565b10156107f8576040517f08c379a00000000000000000000000000000000000000000000000000000000081526004016107ef906135ba565b60405180910390fd5b6108243060025f9054906101000a900473ffffffffffffffffffffffffffffffffffffffff16836113b9565b50565b5f806108316114a9565b905061083e8185856114b0565b600191505092915050565b5f8061085361130b565b9050806002015491505090565b425f803373ffffffffffffffffffffffffffffffffffffffff1673ffffffffffffffffffffffffffffffffffffffff1681526020019081526020015f2081905550565b5f806108ad6114a9565b90506108ba8582856114c2565b6108c58585856113b9565b60019150509392505050565b5f6012905090565b5f6108e2611554565b905090565b6108ef611332565b6108f7611562565b565b610901611332565b61090b82826115d0565b8060015f8473ffffffffffffffffffffffffffffffffffffffff1673ffffffffffffffffffffffffffffffffffffffff1681526020019081526020015f205f8282546109579190613605565b925050819055505050565b61097361096d6114a9565b8261164f565b50565b61097e6116ce565b610987826117b4565b61099182826117bf565b5050565b5f61099e6118dd565b7f360894a13ba1a3210667c828492db98dca3e2076cc3735a920a3ca505d382bbc5f1b905090565b5f806109d0611964565b9050805f015f9054906101000a900460ff1691505090565b6001602052805f5260405f205f915090505481565b5f80610a0761130b565b9050805f015f8473ffffffffffffffffffffffffffffffffffffffff1673ffffffffffffffffffffffffffffffffffffffff1681526020019081526020015f2054915050919050565b610a58611332565b610a615f61198b565b565b610a7582610a6f6114a9565b836114c2565b610a7f828261164f565b5050565b5f610a8d82611a5c565b9050919050565b610a9c611332565b610aa4611aaf565b565b5f6060805f805f60605f610ab8611b1e565b90505f801b815f0154148015610ad357505f801b8160010154145b610b12576040517f08c379a0000000000000000000000000000000000000000000000000000000008152600401610b0990613682565b60405180910390fd5b610b1a611b45565b610b22611be3565b46305f801b5f67ffffffffffffffff811115610b4157610b40613006565b5b604051908082528060200260200182016040528015610b6f5781602001602082028036833780820191505090505b507f0f0000000000000000000000000000000000000000000000000000000000000095949392919097509750975097509750975097505090919293949596565b5f80610bb9611c81565b9050805f015f9054906101000a900473ffffffffffffffffffffffffffffffffffffffff1691505090565b60605f610bef61130b565b9050806004018054610c009061351a565b80601f0160208091040260200160405190810160405280929190818152602001828054610c2c9061351a565b8015610c775780601f10610c4e57610100808354040283529160200191610c77565b820191905f5260205f20905b815481529060010190602001808311610c5a57829003601f168201915b505050505091505090565b5f80610c8c6114a9565b9050610c998185856113b9565b600191505092915050565b6040518060400160405280600581526020017f352e302e3000000000000000000000000000000000000000000000000000000081525081565b5f610ce6611ca8565b90505f815f0160089054906101000a900460ff161590505f825f015f9054906101000a900467ffffffffffffffff1690505f808267ffffffffffffffff16148015610d2e5750825b90505f60018367ffffffffffffffff16148015610d6157505f3073ffffffffffffffffffffffffffffffffffffffff163b145b905081158015610d6f575080155b15610da6576040517ff92ee8a900000000000000000000000000000000000000000000000000000000815260040160405180910390fd5b6001855f015f6101000a81548167ffffffffffffffff021916908367ffffffffffffffff1602179055508315610df3576001855f0160086101000a81548160ff0219169083151502179055505b610e676040518060400160405280600981526020017f4c6f67696e436f696e00000000000000000000000000000000000000000000008152506040518060400160405280600381526020017f444c430000000000000000000000000000000000000000000000000000000000815250611ccf565b610e6f611ce5565b610e77611cef565b610e8086611d01565b610ebe6040518060400160405280600981526020017f4c6f67696e436f696e0000000000000000000000000000000000000000000000815250611d15565b610ec6611d5f565b610ecf86611262565b610efd86610edb6108d1565b60ff16600a610eea91906137cf565b6214684c610ef89190613819565b6115d0565b610f05611d69565b30610f0e6108d1565b60ff16600a610f1d91906137cf565b6032610f299190613819565b604051610f3590612d4a565b610f4092919061385a565b604051809103905ff080158015610f59573d5f803e3d5ffd5b5060025f6101000a81548173ffffffffffffffffffffffffffffffffffffffff021916908373ffffffffffffffffffffffffffffffffffffffff1602179055508315610ff3575f855f0160086101000a81548160ff0219169083151502179055507fc7f505b2f371ae2175ee4913f4499e1f2633a7b5936321eed1cdaeb6115181d26001604051610fea91906138cd565b60405180910390a15b505050505050565b8342111561104057836040517f627913020000000000000000000000000000000000000000000000000000000081526004016110379190612f30565b60405180910390fd5b5f7f6e71edae12b1b97f4d1f60370fef10105fa2faae0126114a169c64845d6126c988888861106e8c611e61565b89604051602001611084969594939291906138e6565b6040516020818303038152906040528051906020012090505f6110a682611ec1565b90505f6110b582878787611eda565b90508973ffffffffffffffffffffffffffffffffffffffff168173ffffffffffffffffffffffffffffffffffffffff161461112957808a6040517f4b800e46000000000000000000000000000000000000000000000000000000008152600401611120929190613945565b60405180910390fd5b6111348a8a8a6114b0565b50505050505050505050565b5f8061114a61130b565b9050806001015f8573ffffffffffffffffffffffffffffffffffffffff1673ffffffffffffffffffffffffffffffffffffffff1681526020019081526020015f205f8473ffffffffffffffffffffffffffffffffffffffff1673ffffffffffffffffffffffffffffffffffffffff1681526020019081526020015f205491505092915050565b6111d8611332565b60025f9054906101000a900473ffffffffffffffffffffffffffffffffffffffff1673ffffffffffffffffffffffffffffffffffffffff1663f12182a6826040518263ffffffff1660e01b81526004016112329190613331565b5f604051808303815f87803b158015611249575f80fd5b505af115801561125b573d5f803e3d5ffd5b5050505050565b61126a611332565b5f73ffffffffffffffffffffffffffffffffffffffff168173ffffffffffffffffffffffffffffffffffffffff16036112da575f6040517f1e4fbdf70000000000000000000000000000000000000000000000000000000081526004016112d19190613331565b60405180910390fd5b6112e38161198b565b50565b60025f9054906101000a900473ffffffffffffffffffffffffffffffffffffffff1681565b5f7f52c63247e1f47db19d5ce0460030c497f067ca4cebf71ba98eeadabe20bace00905090565b61133a6114a9565b73ffffffffffffffffffffffffffffffffffffffff16611358610baf565b73ffffffffffffffffffffffffffffffffffffffff16146113b75761137b6114a9565b6040517f118cdaa70000000000000000000000000000000000000000000000000000000081526004016113ae9190613331565b60405180910390fd5b565b5f73ffffffffffffffffffffffffffffffffffffffff168373ffffffffffffffffffffffffffffffffffffffff1603611429575f6040517f96c6fd1e0000000000000000000000000000000000000000000000000000000081526004016114209190613331565b60405180910390fd5b5f73ffffffffffffffffffffffffffffffffffffffff168273ffffffffffffffffffffffffffffffffffffffff1603611499575f6040517fec442f050000000000000000000000000000000000000000000000000000000081526004016114909190613331565b60405180910390fd5b6114a4838383611f08565b505050565b5f33905090565b6114bd8383836001611fe2565b505050565b5f6114cd8484611140565b90507fffffffffffffffffffffffffffffffffffffffffffffffffffffffffffffffff811461154e578181101561153f578281836040517ffb8f41b20000000000000000000000000000000000000000000000000000000081526004016115369392919061396c565b60405180910390fd5b61154d84848484035f611fe2565b5b50505050565b5f61155d6121bf565b905090565b61156a612222565b5f611573611964565b90505f815f015f6101000a81548160ff0219169083151502179055507f5db9ee0a495bf2e6ff9c91a7834c1ba4fdd244a5e8aa4e537bd38aeae4b073aa6115b86114a9565b6040516115c59190613331565b60405180910390a150565b5f73ffffffffffffffffffffffffffffffffffffffff168273ffffffffffffffffffffffffffffffffffffffff1603611640575f6040517fec442f050000000000000000000000000000000000000000000000000000000081526004016116379190613331565b60405180910390fd5b61164b5f8383611f08565b5050565b5f73ffffffffffffffffffffffffffffffffffffffff168273ffffffffffffffffffffffffffffffffffffffff16036116bf575f6040517f96c6fd1e0000000000000000000000000000000000000000000000000000000081526004016116b69190613331565b60405180910390fd5b6116ca825f83611f08565b5050565b7f000000000000000000000000000000000000000000000000000000000000000073ffffffffffffffffffffffffffffffffffffffff163073ffffffffffffffffffffffffffffffffffffffff16148061177b57507f000000000000000000000000000000000000000000000000000000000000000073ffffffffffffffffffffffffffffffffffffffff16611762612262565b73ffffffffffffffffffffffffffffffffffffffff1614155b156117b2576040517fe07c8dba00000000000000000000000000000000000000000000000000000000815260040160405180910390fd5b565b6117bc611332565b50565b8173ffffffffffffffffffffffffffffffffffffffff166352d1902d6040518163ffffffff1660e01b8152600401602060405180830381865afa92505050801561182757506040513d601f19601f8201168201806040525081019061182491906139b5565b60015b61186857816040517f4c9c8ce300000000000000000000000000000000000000000000000000000000815260040161185f9190613331565b60405180910390fd5b7f360894a13ba1a3210667c828492db98dca3e2076cc3735a920a3ca505d382bbc5f1b81146118ce57806040517faa1d49a40000000000000000000000000000000000000000000000000000000081526004016118c59190612fe5565b60405180910390fd5b6118d883836122b5565b505050565b7f000000000000000000000000000000000000000000000000000000000000000073ffffffffffffffffffffffffffffffffffffffff163073ffffffffffffffffffffffffffffffffffffffff1614611962576040517fe07c8dba00000000000000000000000000000000000000000000000000000000815260040160405180910390fd5b565b5f7fcd5ed15c6e187e77e9aee88184c21f4f2182ab5827cb3b7e07fbedcd63f03300905090565b5f611994611c81565b90505f815f015f9054906101000a900473ffffffffffffffffffffffffffffffffffffffff16905082825f015f6101000a81548173ffffffffffffffffffffffffffffffffffffffff021916908373ffffffffffffffffffffffffffffffffffffffff1602179055508273ffffffffffffffffffffffffffffffffffffffff168173ffffffffffffffffffffffffffffffffffffffff167f8be0079c531659141344cd1fd0a4f28419497f9722a3daafe3b4186f6b6457e060405160405180910390a3505050565b5f80611a66612327565b9050805f015f8473ffffffffffffffffffffffffffffffffffffffff1673ffffffffffffffffffffffffffffffffffffffff1681526020019081526020015f2054915050919050565b611ab761234e565b5f611ac0611964565b90506001815f015f6101000a81548160ff0219169083151502179055507f62e78cea01bee320cd4e420270b5ea74000d11b0c9f74754ebdbfc544b05a258611b066114a9565b604051611b139190613331565b60405180910390a150565b5f7fa16a46d94261c7517cc8ff89f61c0ce93598e3c849801011dee649a6a557d100905090565b60605f611b50611b1e565b9050806002018054611b619061351a565b80601f0160208091040260200160405190810160405280929190818152602001828054611b8d9061351a565b8015611bd85780601f10611baf57610100808354040283529160200191611bd8565b820191905f5260205f20905b815481529060010190602001808311611bbb57829003601f168201915b505050505091505090565b60605f611bee611b1e565b9050806003018054611bff9061351a565b80601f0160208091040260200160405190810160405280929190818152602001828054611c2b9061351a565b8015611c765780601f10611c4d57610100808354040283529160200191611c76565b820191905f5260205f20905b815481529060010190602001808311611c5957829003601f168201915b505050505091505090565b5f7f9016d09d72d40fdae2fd8ceac6b6234c7706214fd39c1cd1e609a0528c199300905090565b5f7ff0c57e16840df040f15088dc2f81fe391c3923bec73e23a9662efc9c229c6a00905090565b611cd761238f565b611ce182826123cf565b5050565b611ced61238f565b565b611cf761238f565b611cff61240b565b565b611d0961238f565b611d128161243b565b50565b611d1d61238f565b611d5c816040518060400160405280600181526020017f31000000000000000000000000000000000000000000000000000000000000008152506124bf565b50565b611d6761238f565b565b5f611d72611ca8565b9050805f0160089054906101000a900460ff1615611dbc576040517ff92ee8a900000000000000000000000000000000000000000000000000000000815260040160405180910390fd5b67ffffffffffffffff8016815f015f9054906101000a900467ffffffffffffffff1667ffffffffffffffff1614611e5e5767ffffffffffffffff815f015f6101000a81548167ffffffffffffffff021916908367ffffffffffffffff1602179055507fc7f505b2f371ae2175ee4913f4499e1f2633a7b5936321eed1cdaeb6115181d267ffffffffffffffff604051611e5591906139ef565b60405180910390a15b50565b5f80611e6b612327565b9050805f015f8473ffffffffffffffffffffffffffffffffffffffff1673ffffffffffffffffffffffffffffffffffffffff1681526020019081526020015f205f81548092919060010191905055915050919050565b5f611ed3611ecd611554565b83612510565b9050919050565b5f805f80611eea88888888612550565b925092509250611efa8282612637565b829350505050949350505050565b611f13838383612799565b611f1b6109c6565b15611f5b576040517f08c379a0000000000000000000000000000000000000000000000000000000008152600401611f5290613a78565b60405180910390fd5b425f808573ffffffffffffffffffffffffffffffffffffffff1673ffffffffffffffffffffffffffffffffffffffff1681526020019081526020015f2081905550425f808473ffffffffffffffffffffffffffffffffffffffff1673ffffffffffffffffffffffffffffffffffffffff1681526020019081526020015f2081905550505050565b5f611feb61130b565b90505f73ffffffffffffffffffffffffffffffffffffffff168573ffffffffffffffffffffffffffffffffffffffff160361205d575f6040517fe602df050000000000000000000000000000000000000000000000000000000081526004016120549190613331565b60405180910390fd5b5f73ffffffffffffffffffffffffffffffffffffffff168473ffffffffffffffffffffffffffffffffffffffff16036120cd575f6040517f94280d620000000000000000000000000000000000000000000000000000000081526004016120c49190613331565b60405180910390fd5b82816001015f8773ffffffffffffffffffffffffffffffffffffffff1673ffffffffffffffffffffffffffffffffffffffff1681526020019081526020015f205f8673ffffffffffffffffffffffffffffffffffffffff1673ffffffffffffffffffffffffffffffffffffffff1681526020019081526020015f208190555081156121b8578373ffffffffffffffffffffffffffffffffffffffff168573ffffffffffffffffffffffffffffffffffffffff167f8c5be1e5ebec7d5bd14f71427d1e84f3dd0314c0f7b2291e5b200ac8c7c3b925856040516121af9190612f30565b60405180910390a35b5050505050565b5f7f8b73c3c69bb8fe3d512ecc4cf759cc79239f7b179b0ffacaa9a75d522b39400f6121e96127b1565b6121f1612827565b4630604051602001612207959493929190613a96565b60405160208183030381529060405280519060200120905090565b61222a6109c6565b612260576040517f8dfc202b00000000000000000000000000000000000000000000000000000000815260040160405180910390fd5b565b5f61228e7f360894a13ba1a3210667c828492db98dca3e2076cc3735a920a3ca505d382bbc5f1b61289e565b5f015f9054906101000a900473ffffffffffffffffffffffffffffffffffffffff16905090565b6122be826128a7565b8173ffffffffffffffffffffffffffffffffffffffff167fbc7cd75a20ee27fd9adebab32041f755214dbc6bffa90cc0225b39da2e5c2d3b60405160405180910390a25f8151111561231a576123148282612970565b50612323565b6123226129f0565b5b5050565b5f7f5ab42ced628888259c08ac98db1eb0cf702fc1501344311d8b100cd1bfe4bb00905090565b6123566109c6565b1561238d576040517fd93c066500000000000000000000000000000000000000000000000000000000815260040160405180910390fd5b565b612397612a2c565b6123cd576040517fd7e6bcf800000000000000000000000000000000000000000000000000000000815260040160405180910390fd5b565b6123d761238f565b5f6123e061130b565b9050828160030190816123f39190613c7b565b50818160040190816124059190613c7b565b50505050565b61241361238f565b5f61241c611964565b90505f815f015f6101000a81548160ff02191690831515021790555050565b61244361238f565b5f73ffffffffffffffffffffffffffffffffffffffff168173ffffffffffffffffffffffffffffffffffffffff16036124b3575f6040517f1e4fbdf70000000000000000000000000000000000000000000000000000000081526004016124aa9190613331565b60405180910390fd5b6124bc8161198b565b50565b6124c761238f565b5f6124d0611b1e565b9050828160020190816124e39190613c7b565b50818160030190816124f59190613c7b565b505f801b815f01819055505f801b8160010181905550505050565b5f6040517f190100000000000000000000000000000000000000000000000000000000000081528360028201528260228201526042812091505092915050565b5f805f7f7fffffffffffffffffffffffffffffff5d576e7357a4501ddfe92f46681b20a0845f1c111561258c575f60038592509250925061262d565b5f6001888888886040515f81526020016040526040516125af9493929190613d4a565b6020604051602081039080840390855afa1580156125cf573d5f803e3d5ffd5b5050506020604051035190505f73ffffffffffffffffffffffffffffffffffffffff168173ffffffffffffffffffffffffffffffffffffffff1603612620575f60015f801b9350935093505061262d565b805f805f1b935093509350505b9450945094915050565b5f600381111561264a57612649613d8d565b5b82600381111561265d5761265c613d8d565b5b0315612795576001600381111561267757612676613d8d565b5b82600381111561268a57612689613d8d565b5b036126c1576040517ff645eedf00000000000000000000000000000000000000000000000000000000815260040160405180910390fd5b600260038111156126d5576126d4613d8d565b5b8260038111156126e8576126e7613d8d565b5b0361272c57805f1c6040517ffce698f70000000000000000000000000000000000000000000000000000000081526004016127239190612f30565b60405180910390fd5b60038081111561273f5761273e613d8d565b5b82600381111561275257612751613d8d565b5b0361279457806040517fd78bce0c00000000000000000000000000000000000000000000000000000000815260040161278b9190612fe5565b60405180910390fd5b5b5050565b6127a161234e565b6127ac838383612a4a565b505050565b5f806127bb611b1e565b90505f6127c6611b45565b90505f815111156127e257808051906020012092505050612824565b5f825f015490505f801b81146127fd57809350505050612824565b7fc5d2460186f7233c927e7db2dcc703c0e500b653ca82273b7bfad8045d85a47093505050505b90565b5f80612831611b1e565b90505f61283c611be3565b90505f815111156128585780805190602001209250505061289b565b5f826001015490505f801b81146128745780935050505061289b565b7fc5d2460186f7233c927e7db2dcc703c0e500b653ca82273b7bfad8045d85a47093505050505b90565b5f819050919050565b5f8173ffffffffffffffffffffffffffffffffffffffff163b0361290257806040517f4c9c8ce30000000000000000000000000000000000000000000000000000000081526004016128f99190613331565b60405180910390fd5b8061292e7f360894a13ba1a3210667c828492db98dca3e2076cc3735a920a3ca505d382bbc5f1b61289e565b5f015f6101000a81548173ffffffffffffffffffffffffffffffffffffffff021916908373ffffffffffffffffffffffffffffffffffffffff16021790555050565b60605f808473ffffffffffffffffffffffffffffffffffffffff16846040516129999190613dfe565b5f60405180830381855af49150503d805f81146129d1576040519150601f19603f3d011682016040523d82523d5f602084013e6129d6565b606091505b50915091506129e6858383612c79565b9250505092915050565b5f341115612a2a576040517fb398979f00000000000000000000000000000000000000000000000000000000815260040160405180910390fd5b565b5f612a35611ca8565b5f0160089054906101000a900460ff16905090565b5f612a5361130b565b90505f73ffffffffffffffffffffffffffffffffffffffff168473ffffffffffffffffffffffffffffffffffffffff1603612aa75781816002015f828254612a9b9190613605565b92505081905550612b79565b5f815f015f8673ffffffffffffffffffffffffffffffffffffffff1673ffffffffffffffffffffffffffffffffffffffff1681526020019081526020015f2054905082811015612b32578481846040517fe450d38c000000000000000000000000000000000000000000000000000000008152600401612b299392919061396c565b60405180910390fd5b828103825f015f8773ffffffffffffffffffffffffffffffffffffffff1673ffffffffffffffffffffffffffffffffffffffff1681526020019081526020015f2081905550505b5f73ffffffffffffffffffffffffffffffffffffffff168373ffffffffffffffffffffffffffffffffffffffff1603612bc25781816002015f8282540392505081905550612c0e565b81815f015f8573ffffffffffffffffffffffffffffffffffffffff1673ffffffffffffffffffffffffffffffffffffffff1681526020019081526020015f205f82825401925050819055505b8273ffffffffffffffffffffffffffffffffffffffff168473ffffffffffffffffffffffffffffffffffffffff167fddf252ad1be2c89b69c2b068fc378daa952ba7f163c4a11628f55a4df523b3ef84604051612c6b9190612f30565b60405180910390a350505050565b606082612c8e57612c8982612d06565b612cfe565b5f8251148015612cb457505f8473ffffffffffffffffffffffffffffffffffffffff163b145b15612cf657836040517f9996b315000000000000000000000000000000000000000000000000000000008152600401612ced9190613331565b60405180910390fd5b819050612cff565b5b9392505050565b5f81511115612d185780518082602001fd5b6040517f1425ea4200000000000000000000000000000000000000000000000000000000815260040160405180910390fd5b6106d180613e1583390190565b5f81519050919050565b5f82825260208201905092915050565b8281835e5f83830152505050565b5f601f19601f8301169050919050565b5f612d9982612d57565b612da38185612d61565b9350612db3818560208601612d71565b612dbc81612d7f565b840191505092915050565b5f6020820190508181035f830152612ddf8184612d8f565b905092915050565b5f604051905090565b5f80fd5b5f80fd5b5f819050919050565b612e0a81612df8565b8114612e14575f80fd5b50565b5f81359050612e2581612e01565b92915050565b5f60208284031215612e4057612e3f612df0565b5b5f612e4d84828501612e17565b91505092915050565b5f73ffffffffffffffffffffffffffffffffffffffff82169050919050565b5f612e7f82612e56565b9050919050565b612e8f81612e75565b8114612e99575f80fd5b50565b5f81359050612eaa81612e86565b92915050565b5f8060408385031215612ec657612ec5612df0565b5b5f612ed385828601612e9c565b9250506020612ee485828601612e17565b9150509250929050565b5f8115159050919050565b612f0281612eee565b82525050565b5f602082019050612f1b5f830184612ef9565b92915050565b612f2a81612df8565b82525050565b5f602082019050612f435f830184612f21565b92915050565b5f805f60608486031215612f6057612f5f612df0565b5b5f612f6d86828701612e9c565b9350506020612f7e86828701612e9c565b9250506040612f8f86828701612e17565b9150509250925092565b5f60ff82169050919050565b612fae81612f99565b82525050565b5f602082019050612fc75f830184612fa5565b92915050565b5f819050919050565b612fdf81612fcd565b82525050565b5f602082019050612ff85f830184612fd6565b92915050565b5f80fd5b5f80fd5b7f4e487b71000000000000000000000000000000000000000000000000000000005f52604160045260245ffd5b61303c82612d7f565b810181811067ffffffffffffffff8211171561305b5761305a613006565b5b80604052505050565b5f61306d612de7565b90506130798282613033565b919050565b5f67ffffffffffffffff82111561309857613097613006565b5b6130a182612d7f565b9050602081019050919050565b828183375f83830152505050565b5f6130ce6130c98461307e565b613064565b9050828152602081018484840111156130ea576130e9613002565b5b6130f58482856130ae565b509392505050565b5f82601f83011261311157613110612ffe565b5b81356131218482602086016130bc565b91505092915050565b5f80604083850312156131405761313f612df0565b5b5f61314d85828601612e9c565b925050602083013567ffffffffffffffff81111561316e5761316d612df4565b5b61317a858286016130fd565b9150509250929050565b5f6020828403121561319957613198612df0565b5b5f6131a684828501612e9c565b91505092915050565b5f7fff0000000000000000000000000000000000000000000000000000000000000082169050919050565b6131e3816131af565b82525050565b6131f281612e75565b82525050565b5f81519050919050565b5f82825260208201905092915050565b5f819050602082019050919050565b61322a81612df8565b82525050565b5f61323b8383613221565b60208301905092915050565b5f602082019050919050565b5f61325d826131f8565b6132678185613202565b935061327283613212565b805f5b838110156132a25781516132898882613230565b975061329483613247565b925050600181019050613275565b5085935050505092915050565b5f60e0820190506132c25f83018a6131da565b81810360208301526132d48189612d8f565b905081810360408301526132e88188612d8f565b90506132f76060830187612f21565b61330460808301866131e9565b61331160a0830185612fd6565b81810360c08301526133238184613253565b905098975050505050505050565b5f6020820190506133445f8301846131e9565b92915050565b61335381612f99565b811461335d575f80fd5b50565b5f8135905061336e8161334a565b92915050565b61337d81612fcd565b8114613387575f80fd5b50565b5f8135905061339881613374565b92915050565b5f805f805f805f60e0888a0312156133b9576133b8612df0565b5b5f6133c68a828b01612e9c565b97505060206133d78a828b01612e9c565b96505060406133e88a828b01612e17565b95505060606133f98a828b01612e17565b945050608061340a8a828b01613360565b93505060a061341b8a828b0161338a565b92505060c061342c8a828b0161338a565b91505092959891949750929550565b5f806040838503121561345157613450612df0565b5b5f61345e85828601612e9c565b925050602061346f85828601612e9c565b9150509250929050565b5f819050919050565b5f61349c61349761349284612e56565b613479565b612e56565b9050919050565b5f6134ad82613482565b9050919050565b5f6134be826134a3565b9050919050565b6134ce816134b4565b82525050565b5f6020820190506134e75f8301846134c5565b92915050565b7f4e487b71000000000000000000000000000000000000000000000000000000005f52602260045260245ffd5b5f600282049050600182168061353157607f821691505b602082108103613544576135436134ed565b5b50919050565b7f496e73756666696369656e742062616c616e636520696e207265736572766f695f8201527f7200000000000000000000000000000000000000000000000000000000000000602082015250565b5f6135a4602183612d61565b91506135af8261354a565b604082019050919050565b5f6020820190508181035f8301526135d181613598565b9050919050565b7f4e487b71000000000000000000000000000000000000000000000000000000005f52601160045260245ffd5b5f61360f82612df8565b915061361a83612df8565b9250828201905080821115613632576136316135d8565b5b92915050565b7f4549503731323a20556e696e697469616c697a656400000000000000000000005f82015250565b5f61366c601583612d61565b915061367782613638565b602082019050919050565b5f6020820190508181035f83015261369981613660565b9050919050565b5f8160011c9050919050565b5f808291508390505b60018511156136f5578086048111156136d1576136d06135d8565b5b60018516156136e05780820291505b80810290506136ee856136a0565b94506136b5565b94509492505050565b5f8261370d57600190506137c8565b8161371a575f90506137c8565b8160018114613730576002811461373a57613769565b60019150506137c8565b60ff84111561374c5761374b6135d8565b5b8360020a915084821115613763576137626135d8565b5b506137c8565b5060208310610133831016604e8410600b841016171561379e5782820a905083811115613799576137986135d8565b5b6137c8565b6137ab84848460016136ac565b925090508184048111156137c2576137c16135d8565b5b81810290505b9392505050565b5f6137d982612df8565b91506137e483612df8565b92506138117fffffffffffffffffffffffffffffffffffffffffffffffffffffffffffffffff84846136fe565b905092915050565b5f61382382612df8565b915061382e83612df8565b925082820261383c81612df8565b91508282048414831517613853576138526135d8565b5b5092915050565b5f60408201905061386d5f8301856131e9565b61387a6020830184612f21565b9392505050565b5f819050919050565b5f67ffffffffffffffff82169050919050565b5f6138b76138b26138ad84613881565b613479565b61388a565b9050919050565b6138c78161389d565b82525050565b5f6020820190506138e05f8301846138be565b92915050565b5f60c0820190506138f95f830189612fd6565b61390660208301886131e9565b61391360408301876131e9565b6139206060830186612f21565b61392d6080830185612f21565b61393a60a0830184612f21565b979650505050505050565b5f6040820190506139585f8301856131e9565b61396560208301846131e9565b9392505050565b5f60608201905061397f5f8301866131e9565b61398c6020830185612f21565b6139996040830184612f21565b949350505050565b5f815190506139af81613374565b92915050565b5f602082840312156139ca576139c9612df0565b5b5f6139d7848285016139a1565b91505092915050565b6139e98161388a565b82525050565b5f602082019050613a025f8301846139e0565b92915050565b7f45524332305061757361626c653a20746f6b656e207472616e736665722077685f8201527f696c652070617573656400000000000000000000000000000000000000000000602082015250565b5f613a62602a83612d61565b9150613a6d82613a08565b604082019050919050565b5f6020820190508181035f830152613a8f81613a56565b9050919050565b5f60a082019050613aa95f830188612fd6565b613ab66020830187612fd6565b613ac36040830186612fd6565b613ad06060830185612f21565b613add60808301846131e9565b9695505050505050565b5f819050815f5260205f209050919050565b5f6020601f8301049050919050565b5f82821b905092915050565b5f60088302613b437fffffffffffffffffffffffffffffffffffffffffffffffffffffffffffffffff82613b08565b613b4d8683613b08565b95508019841693508086168417925050509392505050565b5f613b7f613b7a613b7584612df8565b613479565b612df8565b9050919050565b5f819050919050565b613b9883613b65565b613bac613ba482613b86565b848454613b14565b825550505050565b5f90565b613bc0613bb4565b613bcb818484613b8f565b505050565b5b81811015613bee57613be35f82613bb8565b600181019050613bd1565b5050565b601f821115613c3357613c0481613ae7565b613c0d84613af9565b81016020851015613c1c578190505b613c30613c2885613af9565b830182613bd0565b50505b505050565b5f82821c905092915050565b5f613c535f1984600802613c38565b1980831691505092915050565b5f613c6b8383613c44565b9150826002028217905092915050565b613c8482612d57565b67ffffffffffffffff811115613c9d57613c9c613006565b5b613ca7825461351a565b613cb2828285613bf2565b5f60209050601f831160018114613ce3575f8415613cd1578287015190505b613cdb8582613c60565b865550613d42565b601f198416613cf186613ae7565b5f5b82811015613d1857848901518255600182019150602085019450602081019050613cf3565b86831015613d355784890151613d31601f891682613c44565b8355505b6001600288020188555050505b505050505050565b5f608082019050613d5d5f830187612fd6565b613d6a6020830186612fa5565b613d776040830185612fd6565b613d846060830184612fd6565b95945050505050565b7f4e487b71000000000000000000000000000000000000000000000000000000005f52602160045260245ffd5b5f81519050919050565b5f81905092915050565b5f613dd882613dba565b613de28185613dc4565b9350613df2818560208601612d71565b80840191505092915050565b5f613e098284613dce565b91508190509291505056fe608060405234801561000f575f80fd5b506040516106d13803806106d18339818101604052810190610031919061010f565b815f806101000a81548173ffffffffffffffffffffffffffffffffffffffff021916908373ffffffffffffffffffffffffffffffffffffffff16021790555080600281905550505061014d565b5f80fd5b5f73ffffffffffffffffffffffffffffffffffffffff82169050919050565b5f6100ab82610082565b9050919050565b6100bb816100a1565b81146100c5575f80fd5b50565b5f815190506100d6816100b2565b92915050565b5f819050919050565b6100ee816100dc565b81146100f8575f80fd5b50565b5f81519050610109816100e5565b92915050565b5f80604083850312156101255761012461007e565b5b5f610132858286016100c8565b9250506020610143858286016100fb565b9150509250929050565b6105778061015a5f395ff3fe608060405234801561000f575f80fd5b5060043610610055575f3560e01c80631f4894b114610059578063a8a65a7814610089578063f12182a6146100a5578063f4ea77f3146100c1578063f7b2a7be146100df575b5f80fd5b610073600480360381019061006e9190610315565b6100fd565b604051610080919061035a565b60405180910390f35b6100a3600480360381019061009e91906103a6565b61011a565b005b6100bf60048036038101906100ba9190610315565b610124565b005b6100c961028e565b6040516100d6919061042c565b60405180910390f35b6100e76102b1565b6040516100f49190610454565b60405180910390f35b6001602052805f5260405f205f915054906101000a900460ff1681565b8060028190555050565b60015f8273ffffffffffffffffffffffffffffffffffffffff1673ffffffffffffffffffffffffffffffffffffffff1681526020019081526020015f205f9054906101000a900460ff16156101ae576040517f08c379a00000000000000000000000000000000000000000000000000000000081526004016101a5906104ed565b60405180910390fd5b6001805f8373ffffffffffffffffffffffffffffffffffffffff1673ffffffffffffffffffffffffffffffffffffffff1681526020019081526020015f205f6101000a81548160ff0219169083151502179055505f8054906101000a900473ffffffffffffffffffffffffffffffffffffffff1673ffffffffffffffffffffffffffffffffffffffff1663ca634519826002546040518363ffffffff1660e01b815260040161025e92919061051a565b5f604051808303815f87803b158015610275575f80fd5b505af1158015610287573d5f803e3d5ffd5b5050505050565b5f8054906101000a900473ffffffffffffffffffffffffffffffffffffffff1681565b60025481565b5f80fd5b5f73ffffffffffffffffffffffffffffffffffffffff82169050919050565b5f6102e4826102bb565b9050919050565b6102f4816102da565b81146102fe575f80fd5b50565b5f8135905061030f816102eb565b92915050565b5f6020828403121561032a576103296102b7565b5b5f61033784828501610301565b91505092915050565b5f8115159050919050565b61035481610340565b82525050565b5f60208201905061036d5f83018461034b565b92915050565b5f819050919050565b61038581610373565b811461038f575f80fd5b50565b5f813590506103a08161037c565b92915050565b5f602082840312156103bb576103ba6102b7565b5b5f6103c884828501610392565b91505092915050565b5f819050919050565b5f6103f46103ef6103ea846102bb565b6103d1565b6102bb565b9050919050565b5f610405826103da565b9050919050565b5f610416826103fb565b9050919050565b6104268161040c565b82525050565b5f60208201905061043f5f83018461041d565b92915050565b61044e81610373565b82525050565b5f6020820190506104675f830184610445565b92915050565b5f82825260208201905092915050565b7f417474656e6465652068617320616c7265616479206265656e207265776172645f8201527f6564000000000000000000000000000000000000000000000000000000000000602082015250565b5f6104d760228361046d565b91506104e28261047d565b604082019050919050565b5f6020820190508181035f830152610504816104cb565b9050919050565b610514816102da565b82525050565b5f60408201905061052d5f83018561050b565b61053a6020830184610445565b939250505056fea2646970667358221220b06eb081f154f68922b9749a96c966989270493ad893a74b97f881a136bb106064736f6c63430008190033a2646970667358221220f400ce6eb8ec151849d2ffb9747f3ae9e972955b09d156b6f8426a16026f6d3964736f6c63430008190033",
			"opcodes": "PUSH1 0xA0 PUSH1 0x40 MSTORE ADDRESS PUSH20 0xFFFFFFFFFFFFFFFFFFFFFFFFFFFFFFFFFFFFFFFF AND PUSH1 0x80 SWAP1 PUSH20 0xFFFFFFFFFFFFFFFFFFFFFFFFFFFFFFFFFFFFFFFF AND DUP2 MSTORE POP CALLVALUE DUP1 ISZERO PUSH1 0x41 JUMPI PUSH0 DUP1 REVERT JUMPDEST POP PUSH1 0x80 MLOAD PUSH2 0x451B PUSH2 0x68 PUSH0 CODECOPY PUSH0 DUP2 DUP2 PUSH2 0x16D0 ADD MSTORE DUP2 DUP2 PUSH2 0x1725 ADD MSTORE PUSH2 0x18DF ADD MSTORE PUSH2 0x451B PUSH0 RETURN INVALID PUSH1 0x80 PUSH1 0x40 MSTORE PUSH1 0x4 CALLDATASIZE LT PUSH2 0x1D7 JUMPI PUSH0 CALLDATALOAD PUSH1 0xE0 SHR DUP1 PUSH4 0x70A08231 GT PUSH2 0x101 JUMPI DUP1 PUSH4 0xA9059CBB GT PUSH2 0x94 JUMPI DUP1 PUSH4 0xDD62ED3E GT PUSH2 0x63 JUMPI DUP1 PUSH4 0xDD62ED3E EQ PUSH2 0x651 JUMPI DUP1 PUSH4 0xF12182A6 EQ PUSH2 0x68D JUMPI DUP1 PUSH4 0xF2FDE38B EQ PUSH2 0x6B5 JUMPI DUP1 PUSH4 0xF77C8439 EQ PUSH2 0x6DD JUMPI PUSH2 0x1D7 JUMP JUMPDEST DUP1 PUSH4 0xA9059CBB EQ PUSH2 0x59B JUMPI DUP1 PUSH4 0xAD3CB1CC EQ PUSH2 0x5D7 JUMPI DUP1 PUSH4 0xC4D66DE8 EQ PUSH2 0x601 JUMPI DUP1 PUSH4 0xD505ACCF EQ PUSH2 0x629 JUMPI PUSH2 0x1D7 JUMP JUMPDEST DUP1 PUSH4 0x8456CB59 GT PUSH2 0xD0 JUMPI DUP1 PUSH4 0x8456CB59 EQ PUSH2 0x501 JUMPI DUP1 PUSH4 0x84B0196E EQ PUSH2 0x517 JUMPI DUP1 PUSH4 0x8DA5CB5B EQ PUSH2 0x547 JUMPI DUP1 PUSH4 0x95D89B41 EQ PUSH2 0x571 JUMPI PUSH2 0x1D7 JUMP JUMPDEST DUP1 PUSH4 0x70A08231 EQ PUSH2 0x44B JUMPI DUP1 PUSH4 0x715018A6 EQ PUSH2 0x487 JUMPI DUP1 PUSH4 0x79CC6790 EQ PUSH2 0x49D JUMPI DUP1 PUSH4 0x7ECEBE00 EQ PUSH2 0x4C5 JUMPI PUSH2 0x1D7 JUMP JUMPDEST DUP1 PUSH4 0x3644E515 GT PUSH2 0x179 JUMPI DUP1 PUSH4 0x4F1EF286 GT PUSH2 0x148 JUMPI DUP1 PUSH4 0x4F1EF286 EQ PUSH2 0x39F JUMPI DUP1 PUSH4 0x52D1902D EQ PUSH2 0x3BB JUMPI DUP1 PUSH4 0x5C975ABB EQ PUSH2 0x3E5 JUMPI DUP1 PUSH4 0x6BE001EC EQ PUSH2 0x40F JUMPI PUSH2 0x1D7 JUMP JUMPDEST DUP1 PUSH4 0x3644E515 EQ PUSH2 0x30F JUMPI DUP1 PUSH4 0x3F4BA83A EQ PUSH2 0x339 JUMPI DUP1 PUSH4 0x40C10F19 EQ PUSH2 0x34F JUMPI DUP1 PUSH4 0x42966C68 EQ PUSH2 0x377 JUMPI PUSH2 0x1D7 JUMP JUMPDEST DUP1 PUSH4 0x18160DDD GT PUSH2 0x1B5 JUMPI DUP1 PUSH4 0x18160DDD EQ PUSH2 0x269 JUMPI DUP1 PUSH4 0x1B0E1FFA EQ PUSH2 0x293 JUMPI DUP1 PUSH4 0x23B872DD EQ PUSH2 0x2A9 JUMPI DUP1 PUSH4 0x313CE567 EQ PUSH2 0x2E5 JUMPI PUSH2 0x1D7 JUMP JUMPDEST DUP1 PUSH4 0x6FDDE03 EQ PUSH2 0x1DB JUMPI DUP1 PUSH4 0x736F844 EQ PUSH2 0x205 JUMPI DUP1 PUSH4 0x95EA7B3 EQ PUSH2 0x22D JUMPI JUMPDEST PUSH0 DUP1 REVERT JUMPDEST CALLVALUE DUP1 ISZERO PUSH2 0x1E6 JUMPI PUSH0 DUP1 REVERT JUMPDEST POP PUSH2 0x1EF PUSH2 0x707 JUMP JUMPDEST PUSH1 0x40 MLOAD PUSH2 0x1FC SWAP2 SWAP1 PUSH2 0x2DC7 JUMP JUMPDEST PUSH1 0x40 MLOAD DUP1 SWAP2 SUB SWAP1 RETURN JUMPDEST CALLVALUE DUP1 ISZERO PUSH2 0x210 JUMPI PUSH0 DUP1 REVERT JUMPDEST POP PUSH2 0x22B PUSH1 0x4 DUP1 CALLDATASIZE SUB DUP2 ADD SWAP1 PUSH2 0x226 SWAP2 SWAP1 PUSH2 0x2E2B JUMP JUMPDEST PUSH2 0x7A5 JUMP JUMPDEST STOP JUMPDEST CALLVALUE DUP1 ISZERO PUSH2 0x238 JUMPI PUSH0 DUP1 REVERT JUMPDEST POP PUSH2 0x253 PUSH1 0x4 DUP1 CALLDATASIZE SUB DUP2 ADD SWAP1 PUSH2 0x24E SWAP2 SWAP1 PUSH2 0x2EB0 JUMP JUMPDEST PUSH2 0x827 JUMP JUMPDEST PUSH1 0x40 MLOAD PUSH2 0x260 SWAP2 SWAP1 PUSH2 0x2F08 JUMP JUMPDEST PUSH1 0x40 MLOAD DUP1 SWAP2 SUB SWAP1 RETURN JUMPDEST CALLVALUE DUP1 ISZERO PUSH2 0x274 JUMPI PUSH0 DUP1 REVERT JUMPDEST POP PUSH2 0x27D PUSH2 0x849 JUMP JUMPDEST PUSH1 0x40 MLOAD PUSH2 0x28A SWAP2 SWAP1 PUSH2 0x2F30 JUMP JUMPDEST PUSH1 0x40 MLOAD DUP1 SWAP2 SUB SWAP1 RETURN JUMPDEST CALLVALUE DUP1 ISZERO PUSH2 0x29E JUMPI PUSH0 DUP1 REVERT JUMPDEST POP PUSH2 0x2A7 PUSH2 0x860 JUMP JUMPDEST STOP JUMPDEST CALLVALUE DUP1 ISZERO PUSH2 0x2B4 JUMPI PUSH0 DUP1 REVERT JUMPDEST POP PUSH2 0x2CF PUSH1 0x4 DUP1 CALLDATASIZE SUB DUP2 ADD SWAP1 PUSH2 0x2CA SWAP2 SWAP1 PUSH2 0x2F49 JUMP JUMPDEST PUSH2 0x8A3 JUMP JUMPDEST PUSH1 0x40 MLOAD PUSH2 0x2DC SWAP2 SWAP1 PUSH2 0x2F08 JUMP JUMPDEST PUSH1 0x40 MLOAD DUP1 SWAP2 SUB SWAP1 RETURN JUMPDEST CALLVALUE DUP1 ISZERO PUSH2 0x2F0 JUMPI PUSH0 DUP1 REVERT JUMPDEST POP PUSH2 0x2F9 PUSH2 0x8D1 JUMP JUMPDEST PUSH1 0x40 MLOAD PUSH2 0x306 SWAP2 SWAP1 PUSH2 0x2FB4 JUMP JUMPDEST PUSH1 0x40 MLOAD DUP1 SWAP2 SUB SWAP1 RETURN JUMPDEST CALLVALUE DUP1 ISZERO PUSH2 0x31A JUMPI PUSH0 DUP1 REVERT JUMPDEST POP PUSH2 0x323 PUSH2 0x8D9 JUMP JUMPDEST PUSH1 0x40 MLOAD PUSH2 0x330 SWAP2 SWAP1 PUSH2 0x2FE5 JUMP JUMPDEST PUSH1 0x40 MLOAD DUP1 SWAP2 SUB SWAP1 RETURN JUMPDEST CALLVALUE DUP1 ISZERO PUSH2 0x344 JUMPI PUSH0 DUP1 REVERT JUMPDEST POP PUSH2 0x34D PUSH2 0x8E7 JUMP JUMPDEST STOP JUMPDEST CALLVALUE DUP1 ISZERO PUSH2 0x35A JUMPI PUSH0 DUP1 REVERT JUMPDEST POP PUSH2 0x375 PUSH1 0x4 DUP1 CALLDATASIZE SUB DUP2 ADD SWAP1 PUSH2 0x370 SWAP2 SWAP1 PUSH2 0x2EB0 JUMP JUMPDEST PUSH2 0x8F9 JUMP JUMPDEST STOP JUMPDEST CALLVALUE DUP1 ISZERO PUSH2 0x382 JUMPI PUSH0 DUP1 REVERT JUMPDEST POP PUSH2 0x39D PUSH1 0x4 DUP1 CALLDATASIZE SUB DUP2 ADD SWAP1 PUSH2 0x398 SWAP2 SWAP1 PUSH2 0x2E2B JUMP JUMPDEST PUSH2 0x962 JUMP JUMPDEST STOP JUMPDEST PUSH2 0x3B9 PUSH1 0x4 DUP1 CALLDATASIZE SUB DUP2 ADD SWAP1 PUSH2 0x3B4 SWAP2 SWAP1 PUSH2 0x312A JUMP JUMPDEST PUSH2 0x976 JUMP JUMPDEST STOP JUMPDEST CALLVALUE DUP1 ISZERO PUSH2 0x3C6 JUMPI PUSH0 DUP1 REVERT JUMPDEST POP PUSH2 0x3CF PUSH2 0x995 JUMP JUMPDEST PUSH1 0x40 MLOAD PUSH2 0x3DC SWAP2 SWAP1 PUSH2 0x2FE5 JUMP JUMPDEST PUSH1 0x40 MLOAD DUP1 SWAP2 SUB SWAP1 RETURN JUMPDEST CALLVALUE DUP1 ISZERO PUSH2 0x3F0 JUMPI PUSH0 DUP1 REVERT JUMPDEST POP PUSH2 0x3F9 PUSH2 0x9C6 JUMP JUMPDEST PUSH1 0x40 MLOAD PUSH2 0x406 SWAP2 SWAP1 PUSH2 0x2F08 JUMP JUMPDEST PUSH1 0x40 MLOAD DUP1 SWAP2 SUB SWAP1 RETURN JUMPDEST CALLVALUE DUP1 ISZERO PUSH2 0x41A JUMPI PUSH0 DUP1 REVERT JUMPDEST POP PUSH2 0x435 PUSH1 0x4 DUP1 CALLDATASIZE SUB DUP2 ADD SWAP1 PUSH2 0x430 SWAP2 SWAP1 PUSH2 0x3184 JUMP JUMPDEST PUSH2 0x9E8 JUMP JUMPDEST PUSH1 0x40 MLOAD PUSH2 0x442 SWAP2 SWAP1 PUSH2 0x2F30 JUMP JUMPDEST PUSH1 0x40 MLOAD DUP1 SWAP2 SUB SWAP1 RETURN JUMPDEST CALLVALUE DUP1 ISZERO PUSH2 0x456 JUMPI PUSH0 DUP1 REVERT JUMPDEST POP PUSH2 0x471 PUSH1 0x4 DUP1 CALLDATASIZE SUB DUP2 ADD SWAP1 PUSH2 0x46C SWAP2 SWAP1 PUSH2 0x3184 JUMP JUMPDEST PUSH2 0x9FD JUMP JUMPDEST PUSH1 0x40 MLOAD PUSH2 0x47E SWAP2 SWAP1 PUSH2 0x2F30 JUMP JUMPDEST PUSH1 0x40 MLOAD DUP1 SWAP2 SUB SWAP1 RETURN JUMPDEST CALLVALUE DUP1 ISZERO PUSH2 0x492 JUMPI PUSH0 DUP1 REVERT JUMPDEST POP PUSH2 0x49B PUSH2 0xA50 JUMP JUMPDEST STOP JUMPDEST CALLVALUE DUP1 ISZERO PUSH2 0x4A8 JUMPI PUSH0 DUP1 REVERT JUMPDEST POP PUSH2 0x4C3 PUSH1 0x4 DUP1 CALLDATASIZE SUB DUP2 ADD SWAP1 PUSH2 0x4BE SWAP2 SWAP1 PUSH2 0x2EB0 JUMP JUMPDEST PUSH2 0xA63 JUMP JUMPDEST STOP JUMPDEST CALLVALUE DUP1 ISZERO PUSH2 0x4D0 JUMPI PUSH0 DUP1 REVERT JUMPDEST POP PUSH2 0x4EB PUSH1 0x4 DUP1 CALLDATASIZE SUB DUP2 ADD SWAP1 PUSH2 0x4E6 SWAP2 SWAP1 PUSH2 0x3184 JUMP JUMPDEST PUSH2 0xA83 JUMP JUMPDEST PUSH1 0x40 MLOAD PUSH2 0x4F8 SWAP2 SWAP1 PUSH2 0x2F30 JUMP JUMPDEST PUSH1 0x40 MLOAD DUP1 SWAP2 SUB SWAP1 RETURN JUMPDEST CALLVALUE DUP1 ISZERO PUSH2 0x50C JUMPI PUSH0 DUP1 REVERT JUMPDEST POP PUSH2 0x515 PUSH2 0xA94 JUMP JUMPDEST STOP JUMPDEST CALLVALUE DUP1 ISZERO PUSH2 0x522 JUMPI PUSH0 DUP1 REVERT JUMPDEST POP PUSH2 0x52B PUSH2 0xAA6 JUMP JUMPDEST PUSH1 0x40 MLOAD PUSH2 0x53E SWAP8 SWAP7 SWAP6 SWAP5 SWAP4 SWAP3 SWAP2 SWAP1 PUSH2 0x32AF JUMP JUMPDEST PUSH1 0x40 MLOAD DUP1 SWAP2 SUB SWAP1 RETURN JUMPDEST CALLVALUE DUP1 ISZERO PUSH2 0x552 JUMPI PUSH0 DUP1 REVERT JUMPDEST POP PUSH2 0x55B PUSH2 0xBAF JUMP JUMPDEST PUSH1 0x40 MLOAD PUSH2 0x568 SWAP2 SWAP1 PUSH2 0x3331 JUMP JUMPDEST PUSH1 0x40 MLOAD DUP1 SWAP2 SUB SWAP1 RETURN JUMPDEST CALLVALUE DUP1 ISZERO PUSH2 0x57C JUMPI PUSH0 DUP1 REVERT JUMPDEST POP PUSH2 0x585 PUSH2 0xBE4 JUMP JUMPDEST PUSH1 0x40 MLOAD PUSH2 0x592 SWAP2 SWAP1 PUSH2 0x2DC7 JUMP JUMPDEST PUSH1 0x40 MLOAD DUP1 SWAP2 SUB SWAP1 RETURN JUMPDEST CALLVALUE DUP1 ISZERO PUSH2 0x5A6 JUMPI PUSH0 DUP1 REVERT JUMPDEST POP PUSH2 0x5C1 PUSH1 0x4 DUP1 CALLDATASIZE SUB DUP2 ADD SWAP1 PUSH2 0x5BC SWAP2 SWAP1 PUSH2 0x2EB0 JUMP JUMPDEST PUSH2 0xC82 JUMP JUMPDEST PUSH1 0x40 MLOAD PUSH2 0x5CE SWAP2 SWAP1 PUSH2 0x2F08 JUMP JUMPDEST PUSH1 0x40 MLOAD DUP1 SWAP2 SUB SWAP1 RETURN JUMPDEST CALLVALUE DUP1 ISZERO PUSH2 0x5E2 JUMPI PUSH0 DUP1 REVERT JUMPDEST POP PUSH2 0x5EB PUSH2 0xCA4 JUMP JUMPDEST PUSH1 0x40 MLOAD PUSH2 0x5F8 SWAP2 SWAP1 PUSH2 0x2DC7 JUMP JUMPDEST PUSH1 0x40 MLOAD DUP1 SWAP2 SUB SWAP1 RETURN JUMPDEST CALLVALUE DUP1 ISZERO PUSH2 0x60C JUMPI PUSH0 DUP1 REVERT JUMPDEST POP PUSH2 0x627 PUSH1 0x4 DUP1 CALLDATASIZE SUB DUP2 ADD SWAP1 PUSH2 0x622 SWAP2 SWAP1 PUSH2 0x3184 JUMP JUMPDEST PUSH2 0xCDD JUMP JUMPDEST STOP JUMPDEST CALLVALUE DUP1 ISZERO PUSH2 0x634 JUMPI PUSH0 DUP1 REVERT JUMPDEST POP PUSH2 0x64F PUSH1 0x4 DUP1 CALLDATASIZE SUB DUP2 ADD SWAP1 PUSH2 0x64A SWAP2 SWAP1 PUSH2 0x339E JUMP JUMPDEST PUSH2 0xFFB JUMP JUMPDEST STOP JUMPDEST CALLVALUE DUP1 ISZERO PUSH2 0x65C JUMPI PUSH0 DUP1 REVERT JUMPDEST POP PUSH2 0x677 PUSH1 0x4 DUP1 CALLDATASIZE SUB DUP2 ADD SWAP1 PUSH2 0x672 SWAP2 SWAP1 PUSH2 0x343B JUMP JUMPDEST PUSH2 0x1140 JUMP JUMPDEST PUSH1 0x40 MLOAD PUSH2 0x684 SWAP2 SWAP1 PUSH2 0x2F30 JUMP JUMPDEST PUSH1 0x40 MLOAD DUP1 SWAP2 SUB SWAP1 RETURN JUMPDEST CALLVALUE DUP1 ISZERO PUSH2 0x698 JUMPI PUSH0 DUP1 REVERT JUMPDEST POP PUSH2 0x6B3 PUSH1 0x4 DUP1 CALLDATASIZE SUB DUP2 ADD SWAP1 PUSH2 0x6AE SWAP2 SWAP1 PUSH2 0x3184 JUMP JUMPDEST PUSH2 0x11D0 JUMP JUMPDEST STOP JUMPDEST CALLVALUE DUP1 ISZERO PUSH2 0x6C0 JUMPI PUSH0 DUP1 REVERT JUMPDEST POP PUSH2 0x6DB PUSH1 0x4 DUP1 CALLDATASIZE SUB DUP2 ADD SWAP1 PUSH2 0x6D6 SWAP2 SWAP1 PUSH2 0x3184 JUMP JUMPDEST PUSH2 0x1262 JUMP JUMPDEST STOP JUMPDEST CALLVALUE DUP1 ISZERO PUSH2 0x6E8 JUMPI PUSH0 DUP1 REVERT JUMPDEST POP PUSH2 0x6F1 PUSH2 0x12E6 JUMP JUMPDEST PUSH1 0x40 MLOAD PUSH2 0x6FE SWAP2 SWAP1 PUSH2 0x34D4 JUMP JUMPDEST PUSH1 0x40 MLOAD DUP1 SWAP2 SUB SWAP1 RETURN JUMPDEST PUSH1 0x60 PUSH0 PUSH2 0x712 PUSH2 0x130B JUMP JUMPDEST SWAP1 POP DUP1 PUSH1 0x3 ADD DUP1 SLOAD PUSH2 0x723 SWAP1 PUSH2 0x351A JUMP JUMPDEST DUP1 PUSH1 0x1F ADD PUSH1 0x20 DUP1 SWAP2 DIV MUL PUSH1 0x20 ADD PUSH1 0x40 MLOAD SWAP1 DUP2 ADD PUSH1 0x40 MSTORE DUP1 SWAP3 SWAP2 SWAP1 DUP2 DUP2 MSTORE PUSH1 0x20 ADD DUP3 DUP1 SLOAD PUSH2 0x74F SWAP1 PUSH2 0x351A JUMP JUMPDEST DUP1 ISZERO PUSH2 0x79A JUMPI DUP1 PUSH1 0x1F LT PUSH2 0x771 JUMPI PUSH2 0x100 DUP1 DUP4 SLOAD DIV MUL DUP4 MSTORE SWAP2 PUSH1 0x20 ADD SWAP2 PUSH2 0x79A JUMP JUMPDEST DUP3 ADD SWAP2 SWAP1 PUSH0 MSTORE PUSH1 0x20 PUSH0 KECCAK256 SWAP1 JUMPDEST DUP2 SLOAD DUP2 MSTORE SWAP1 PUSH1 0x1 ADD SWAP1 PUSH1 0x20 ADD DUP1 DUP4 GT PUSH2 0x77D JUMPI DUP3 SWAP1 SUB PUSH1 0x1F AND DUP3 ADD SWAP2 JUMPDEST POP POP POP POP POP SWAP2 POP POP SWAP1 JUMP JUMPDEST PUSH2 0x7AD PUSH2 0x1332 JUMP JUMPDEST DUP1 PUSH2 0x7B7 ADDRESS PUSH2 0x9FD JUMP JUMPDEST LT ISZERO PUSH2 0x7F8 JUMPI PUSH1 0x40 MLOAD PUSH32 0x8C379A000000000000000000000000000000000000000000000000000000000 DUP2 MSTORE PUSH1 0x4 ADD PUSH2 0x7EF SWAP1 PUSH2 0x35BA JUMP JUMPDEST PUSH1 0x40 MLOAD DUP1 SWAP2 SUB SWAP1 REVERT JUMPDEST PUSH2 0x824 ADDRESS PUSH1 0x2 PUSH0 SWAP1 SLOAD SWAP1 PUSH2 0x100 EXP SWAP1 DIV PUSH20 0xFFFFFFFFFFFFFFFFFFFFFFFFFFFFFFFFFFFFFFFF AND DUP4 PUSH2 0x13B9 JUMP JUMPDEST POP JUMP JUMPDEST PUSH0 DUP1 PUSH2 0x831 PUSH2 0x14A9 JUMP JUMPDEST SWAP1 POP PUSH2 0x83E DUP2 DUP6 DUP6 PUSH2 0x14B0 JUMP JUMPDEST PUSH1 0x1 SWAP2 POP POP SWAP3 SWAP2 POP POP JUMP JUMPDEST PUSH0 DUP1 PUSH2 0x853 PUSH2 0x130B JUMP JUMPDEST SWAP1 POP DUP1 PUSH1 0x2 ADD SLOAD SWAP2 POP POP SWAP1 JUMP JUMPDEST TIMESTAMP PUSH0 DUP1 CALLER PUSH20 0xFFFFFFFFFFFFFFFFFFFFFFFFFFFFFFFFFFFFFFFF AND PUSH20 0xFFFFFFFFFFFFFFFFFFFFFFFFFFFFFFFFFFFFFFFF AND DUP2 MSTORE PUSH1 0x20 ADD SWAP1 DUP2 MSTORE PUSH1 0x20 ADD PUSH0 KECCAK256 DUP2 SWAP1 SSTORE POP JUMP JUMPDEST PUSH0 DUP1 PUSH2 0x8AD PUSH2 0x14A9 JUMP JUMPDEST SWAP1 POP PUSH2 0x8BA DUP6 DUP3 DUP6 PUSH2 0x14C2 JUMP JUMPDEST PUSH2 0x8C5 DUP6 DUP6 DUP6 PUSH2 0x13B9 JUMP JUMPDEST PUSH1 0x1 SWAP2 POP POP SWAP4 SWAP3 POP POP POP JUMP JUMPDEST PUSH0 PUSH1 0x12 SWAP1 POP SWAP1 JUMP JUMPDEST PUSH0 PUSH2 0x8E2 PUSH2 0x1554 JUMP JUMPDEST SWAP1 POP SWAP1 JUMP JUMPDEST PUSH2 0x8EF PUSH2 0x1332 JUMP JUMPDEST PUSH2 0x8F7 PUSH2 0x1562 JUMP JUMPDEST JUMP JUMPDEST PUSH2 0x901 PUSH2 0x1332 JUMP JUMPDEST PUSH2 0x90B DUP3 DUP3 PUSH2 0x15D0 JUMP JUMPDEST DUP1 PUSH1 0x1 PUSH0 DUP5 PUSH20 0xFFFFFFFFFFFFFFFFFFFFFFFFFFFFFFFFFFFFFFFF AND PUSH20 0xFFFFFFFFFFFFFFFFFFFFFFFFFFFFFFFFFFFFFFFF AND DUP2 MSTORE PUSH1 0x20 ADD SWAP1 DUP2 MSTORE PUSH1 0x20 ADD PUSH0 KECCAK256 PUSH0 DUP3 DUP3 SLOAD PUSH2 0x957 SWAP2 SWAP1 PUSH2 0x3605 JUMP JUMPDEST SWAP3 POP POP DUP2 SWAP1 SSTORE POP POP POP JUMP JUMPDEST PUSH2 0x973 PUSH2 0x96D PUSH2 0x14A9 JUMP JUMPDEST DUP3 PUSH2 0x164F JUMP JUMPDEST POP JUMP JUMPDEST PUSH2 0x97E PUSH2 0x16CE JUMP JUMPDEST PUSH2 0x987 DUP3 PUSH2 0x17B4 JUMP JUMPDEST PUSH2 0x991 DUP3 DUP3 PUSH2 0x17BF JUMP JUMPDEST POP POP JUMP JUMPDEST PUSH0 PUSH2 0x99E PUSH2 0x18DD JUMP JUMPDEST PUSH32 0x360894A13BA1A3210667C828492DB98DCA3E2076CC3735A920A3CA505D382BBC PUSH0 SHL SWAP1 POP SWAP1 JUMP JUMPDEST PUSH0 DUP1 PUSH2 0x9D0 PUSH2 0x1964 JUMP JUMPDEST SWAP1 POP DUP1 PUSH0 ADD PUSH0 SWAP1 SLOAD SWAP1 PUSH2 0x100 EXP SWAP1 DIV PUSH1 0xFF AND SWAP2 POP POP SWAP1 JUMP JUMPDEST PUSH1 0x1 PUSH1 0x20 MSTORE DUP1 PUSH0 MSTORE PUSH1 0x40 PUSH0 KECCAK256 PUSH0 SWAP2 POP SWAP1 POP SLOAD DUP2 JUMP JUMPDEST PUSH0 DUP1 PUSH2 0xA07 PUSH2 0x130B JUMP JUMPDEST SWAP1 POP DUP1 PUSH0 ADD PUSH0 DUP5 PUSH20 0xFFFFFFFFFFFFFFFFFFFFFFFFFFFFFFFFFFFFFFFF AND PUSH20 0xFFFFFFFFFFFFFFFFFFFFFFFFFFFFFFFFFFFFFFFF AND DUP2 MSTORE PUSH1 0x20 ADD SWAP1 DUP2 MSTORE PUSH1 0x20 ADD PUSH0 KECCAK256 SLOAD SWAP2 POP POP SWAP2 SWAP1 POP JUMP JUMPDEST PUSH2 0xA58 PUSH2 0x1332 JUMP JUMPDEST PUSH2 0xA61 PUSH0 PUSH2 0x198B JUMP JUMPDEST JUMP JUMPDEST PUSH2 0xA75 DUP3 PUSH2 0xA6F PUSH2 0x14A9 JUMP JUMPDEST DUP4 PUSH2 0x14C2 JUMP JUMPDEST PUSH2 0xA7F DUP3 DUP3 PUSH2 0x164F JUMP JUMPDEST POP POP JUMP JUMPDEST PUSH0 PUSH2 0xA8D DUP3 PUSH2 0x1A5C JUMP JUMPDEST SWAP1 POP SWAP2 SWAP1 POP JUMP JUMPDEST PUSH2 0xA9C PUSH2 0x1332 JUMP JUMPDEST PUSH2 0xAA4 PUSH2 0x1AAF JUMP JUMPDEST JUMP JUMPDEST PUSH0 PUSH1 0x60 DUP1 PUSH0 DUP1 PUSH0 PUSH1 0x60 PUSH0 PUSH2 0xAB8 PUSH2 0x1B1E JUMP JUMPDEST SWAP1 POP PUSH0 DUP1 SHL DUP2 PUSH0 ADD SLOAD EQ DUP1 ISZERO PUSH2 0xAD3 JUMPI POP PUSH0 DUP1 SHL DUP2 PUSH1 0x1 ADD SLOAD EQ JUMPDEST PUSH2 0xB12 JUMPI PUSH1 0x40 MLOAD PUSH32 0x8C379A000000000000000000000000000000000000000000000000000000000 DUP2 MSTORE PUSH1 0x4 ADD PUSH2 0xB09 SWAP1 PUSH2 0x3682 JUMP JUMPDEST PUSH1 0x40 MLOAD DUP1 SWAP2 SUB SWAP1 REVERT JUMPDEST PUSH2 0xB1A PUSH2 0x1B45 JUMP JUMPDEST PUSH2 0xB22 PUSH2 0x1BE3 JUMP JUMPDEST CHAINID ADDRESS PUSH0 DUP1 SHL PUSH0 PUSH8 0xFFFFFFFFFFFFFFFF DUP2 GT ISZERO PUSH2 0xB41 JUMPI PUSH2 0xB40 PUSH2 0x3006 JUMP JUMPDEST JUMPDEST PUSH1 0x40 MLOAD SWAP1 DUP1 DUP3 MSTORE DUP1 PUSH1 0x20 MUL PUSH1 0x20 ADD DUP3 ADD PUSH1 0x40 MSTORE DUP1 ISZERO PUSH2 0xB6F JUMPI DUP2 PUSH1 0x20 ADD PUSH1 0x20 DUP3 MUL DUP1 CALLDATASIZE DUP4 CALLDATACOPY DUP1 DUP3 ADD SWAP2 POP POP SWAP1 POP JUMPDEST POP PUSH32 0xF00000000000000000000000000000000000000000000000000000000000000 SWAP6 SWAP5 SWAP4 SWAP3 SWAP2 SWAP1 SWAP8 POP SWAP8 POP SWAP8 POP SWAP8 POP SWAP8 POP SWAP8 POP SWAP8 POP POP SWAP1 SWAP2 SWAP3 SWAP4 SWAP5 SWAP6 SWAP7 JUMP JUMPDEST PUSH0 DUP1 PUSH2 0xBB9 PUSH2 0x1C81 JUMP JUMPDEST SWAP1 POP DUP1 PUSH0 ADD PUSH0 SWAP1 SLOAD SWAP1 PUSH2 0x100 EXP SWAP1 DIV PUSH20 0xFFFFFFFFFFFFFFFFFFFFFFFFFFFFFFFFFFFFFFFF AND SWAP2 POP POP SWAP1 JUMP JUMPDEST PUSH1 0x60 PUSH0 PUSH2 0xBEF PUSH2 0x130B JUMP JUMPDEST SWAP1 POP DUP1 PUSH1 0x4 ADD DUP1 SLOAD PUSH2 0xC00 SWAP1 PUSH2 0x351A JUMP JUMPDEST DUP1 PUSH1 0x1F ADD PUSH1 0x20 DUP1 SWAP2 DIV MUL PUSH1 0x20 ADD PUSH1 0x40 MLOAD SWAP1 DUP2 ADD PUSH1 0x40 MSTORE DUP1 SWAP3 SWAP2 SWAP1 DUP2 DUP2 MSTORE PUSH1 0x20 ADD DUP3 DUP1 SLOAD PUSH2 0xC2C SWAP1 PUSH2 0x351A JUMP JUMPDEST DUP1 ISZERO PUSH2 0xC77 JUMPI DUP1 PUSH1 0x1F LT PUSH2 0xC4E JUMPI PUSH2 0x100 DUP1 DUP4 SLOAD DIV MUL DUP4 MSTORE SWAP2 PUSH1 0x20 ADD SWAP2 PUSH2 0xC77 JUMP JUMPDEST DUP3 ADD SWAP2 SWAP1 PUSH0 MSTORE PUSH1 0x20 PUSH0 KECCAK256 SWAP1 JUMPDEST DUP2 SLOAD DUP2 MSTORE SWAP1 PUSH1 0x1 ADD SWAP1 PUSH1 0x20 ADD DUP1 DUP4 GT PUSH2 0xC5A JUMPI DUP3 SWAP1 SUB PUSH1 0x1F AND DUP3 ADD SWAP2 JUMPDEST POP POP POP POP POP SWAP2 POP POP SWAP1 JUMP JUMPDEST PUSH0 DUP1 PUSH2 0xC8C PUSH2 0x14A9 JUMP JUMPDEST SWAP1 POP PUSH2 0xC99 DUP2 DUP6 DUP6 PUSH2 0x13B9 JUMP JUMPDEST PUSH1 0x1 SWAP2 POP POP SWAP3 SWAP2 POP POP JUMP JUMPDEST PUSH1 0x40 MLOAD DUP1 PUSH1 0x40 ADD PUSH1 0x40 MSTORE DUP1 PUSH1 0x5 DUP2 MSTORE PUSH1 0x20 ADD PUSH32 0x352E302E30000000000000000000000000000000000000000000000000000000 DUP2 MSTORE POP DUP2 JUMP JUMPDEST PUSH0 PUSH2 0xCE6 PUSH2 0x1CA8 JUMP JUMPDEST SWAP1 POP PUSH0 DUP2 PUSH0 ADD PUSH1 0x8 SWAP1 SLOAD SWAP1 PUSH2 0x100 EXP SWAP1 DIV PUSH1 0xFF AND ISZERO SWAP1 POP PUSH0 DUP3 PUSH0 ADD PUSH0 SWAP1 SLOAD SWAP1 PUSH2 0x100 EXP SWAP1 DIV PUSH8 0xFFFFFFFFFFFFFFFF AND SWAP1 POP PUSH0 DUP1 DUP3 PUSH8 0xFFFFFFFFFFFFFFFF AND EQ DUP1 ISZERO PUSH2 0xD2E JUMPI POP DUP3 JUMPDEST SWAP1 POP PUSH0 PUSH1 0x1 DUP4 PUSH8 0xFFFFFFFFFFFFFFFF AND EQ DUP1 ISZERO PUSH2 0xD61 JUMPI POP PUSH0 ADDRESS PUSH20 0xFFFFFFFFFFFFFFFFFFFFFFFFFFFFFFFFFFFFFFFF AND EXTCODESIZE EQ JUMPDEST SWAP1 POP DUP2 ISZERO DUP1 ISZERO PUSH2 0xD6F JUMPI POP DUP1 ISZERO JUMPDEST ISZERO PUSH2 0xDA6 JUMPI PUSH1 0x40 MLOAD PUSH32 0xF92EE8A900000000000000000000000000000000000000000000000000000000 DUP2 MSTORE PUSH1 0x4 ADD PUSH1 0x40 MLOAD DUP1 SWAP2 SUB SWAP1 REVERT JUMPDEST PUSH1 0x1 DUP6 PUSH0 ADD PUSH0 PUSH2 0x100 EXP DUP2 SLOAD DUP2 PUSH8 0xFFFFFFFFFFFFFFFF MUL NOT AND SWAP1 DUP4 PUSH8 0xFFFFFFFFFFFFFFFF AND MUL OR SWAP1 SSTORE POP DUP4 ISZERO PUSH2 0xDF3 JUMPI PUSH1 0x1 DUP6 PUSH0 ADD PUSH1 0x8 PUSH2 0x100 EXP DUP2 SLOAD DUP2 PUSH1 0xFF MUL NOT AND SWAP1 DUP4 ISZERO ISZERO MUL OR SWAP1 SSTORE POP JUMPDEST PUSH2 0xE67 PUSH1 0x40 MLOAD DUP1 PUSH1 0x40 ADD PUSH1 0x40 MSTORE DUP1 PUSH1 0x9 DUP2 MSTORE PUSH1 0x20 ADD PUSH32 0x4C6F67696E436F696E0000000000000000000000000000000000000000000000 DUP2 MSTORE POP PUSH1 0x40 MLOAD DUP1 PUSH1 0x40 ADD PUSH1 0x40 MSTORE DUP1 PUSH1 0x3 DUP2 MSTORE PUSH1 0x20 ADD PUSH32 0x444C430000000000000000000000000000000000000000000000000000000000 DUP2 MSTORE POP PUSH2 0x1CCF JUMP JUMPDEST PUSH2 0xE6F PUSH2 0x1CE5 JUMP JUMPDEST PUSH2 0xE77 PUSH2 0x1CEF JUMP JUMPDEST PUSH2 0xE80 DUP7 PUSH2 0x1D01 JUMP JUMPDEST PUSH2 0xEBE PUSH1 0x40 MLOAD DUP1 PUSH1 0x40 ADD PUSH1 0x40 MSTORE DUP1 PUSH1 0x9 DUP2 MSTORE PUSH1 0x20 ADD PUSH32 0x4C6F67696E436F696E0000000000000000000000000000000000000000000000 DUP2 MSTORE POP PUSH2 0x1D15 JUMP JUMPDEST PUSH2 0xEC6 PUSH2 0x1D5F JUMP JUMPDEST PUSH2 0xECF DUP7 PUSH2 0x1262 JUMP JUMPDEST PUSH2 0xEFD DUP7 PUSH2 0xEDB PUSH2 0x8D1 JUMP JUMPDEST PUSH1 0xFF AND PUSH1 0xA PUSH2 0xEEA SWAP2 SWAP1 PUSH2 0x37CF JUMP JUMPDEST PUSH3 0x14684C PUSH2 0xEF8 SWAP2 SWAP1 PUSH2 0x3819 JUMP JUMPDEST PUSH2 0x15D0 JUMP JUMPDEST PUSH2 0xF05 PUSH2 0x1D69 JUMP JUMPDEST ADDRESS PUSH2 0xF0E PUSH2 0x8D1 JUMP JUMPDEST PUSH1 0xFF AND PUSH1 0xA PUSH2 0xF1D SWAP2 SWAP1 PUSH2 0x37CF JUMP JUMPDEST PUSH1 0x32 PUSH2 0xF29 SWAP2 SWAP1 PUSH2 0x3819 JUMP JUMPDEST PUSH1 0x40 MLOAD PUSH2 0xF35 SWAP1 PUSH2 0x2D4A JUMP JUMPDEST PUSH2 0xF40 SWAP3 SWAP2 SWAP1 PUSH2 0x385A JUMP JUMPDEST PUSH1 0x40 MLOAD DUP1 SWAP2 SUB SWAP1 PUSH0 CREATE DUP1 ISZERO DUP1 ISZERO PUSH2 0xF59 JUMPI RETURNDATASIZE PUSH0 DUP1 RETURNDATACOPY RETURNDATASIZE PUSH0 REVERT JUMPDEST POP PUSH1 0x2 PUSH0 PUSH2 0x100 EXP DUP2 SLOAD DUP2 PUSH20 0xFFFFFFFFFFFFFFFFFFFFFFFFFFFFFFFFFFFFFFFF MUL NOT AND SWAP1 DUP4 PUSH20 0xFFFFFFFFFFFFFFFFFFFFFFFFFFFFFFFFFFFFFFFF AND MUL OR SWAP1 SSTORE POP DUP4 ISZERO PUSH2 0xFF3 JUMPI PUSH0 DUP6 PUSH0 ADD PUSH1 0x8 PUSH2 0x100 EXP DUP2 SLOAD DUP2 PUSH1 0xFF MUL NOT AND SWAP1 DUP4 ISZERO ISZERO MUL OR SWAP1 SSTORE POP PUSH32 0xC7F505B2F371AE2175EE4913F4499E1F2633A7B5936321EED1CDAEB6115181D2 PUSH1 0x1 PUSH1 0x40 MLOAD PUSH2 0xFEA SWAP2 SWAP1 PUSH2 0x38CD JUMP JUMPDEST PUSH1 0x40 MLOAD DUP1 SWAP2 SUB SWAP1 LOG1 JUMPDEST POP POP POP POP POP POP JUMP JUMPDEST DUP4 TIMESTAMP GT ISZERO PUSH2 0x1040 JUMPI DUP4 PUSH1 0x40 MLOAD PUSH32 0x6279130200000000000000000000000000000000000000000000000000000000 DUP2 MSTORE PUSH1 0x4 ADD PUSH2 0x1037 SWAP2 SWAP1 PUSH2 0x2F30 JUMP JUMPDEST PUSH1 0x40 MLOAD DUP1 SWAP2 SUB SWAP1 REVERT JUMPDEST PUSH0 PUSH32 0x6E71EDAE12B1B97F4D1F60370FEF10105FA2FAAE0126114A169C64845D6126C9 DUP9 DUP9 DUP9 PUSH2 0x106E DUP13 PUSH2 0x1E61 JUMP JUMPDEST DUP10 PUSH1 0x40 MLOAD PUSH1 0x20 ADD PUSH2 0x1084 SWAP7 SWAP6 SWAP5 SWAP4 SWAP3 SWAP2 SWAP1 PUSH2 0x38E6 JUMP JUMPDEST PUSH1 0x40 MLOAD PUSH1 0x20 DUP2 DUP4 SUB SUB DUP2 MSTORE SWAP1 PUSH1 0x40 MSTORE DUP1 MLOAD SWAP1 PUSH1 0x20 ADD KECCAK256 SWAP1 POP PUSH0 PUSH2 0x10A6 DUP3 PUSH2 0x1EC1 JUMP JUMPDEST SWAP1 POP PUSH0 PUSH2 0x10B5 DUP3 DUP8 DUP8 DUP8 PUSH2 0x1EDA JUMP JUMPDEST SWAP1 POP DUP10 PUSH20 0xFFFFFFFFFFFFFFFFFFFFFFFFFFFFFFFFFFFFFFFF AND DUP2 PUSH20 0xFFFFFFFFFFFFFFFFFFFFFFFFFFFFFFFFFFFFFFFF AND EQ PUSH2 0x1129 JUMPI DUP1 DUP11 PUSH1 0x40 MLOAD PUSH32 0x4B800E4600000000000000000000000000000000000000000000000000000000 DUP2 MSTORE PUSH1 0x4 ADD PUSH2 0x1120 SWAP3 SWAP2 SWAP1 PUSH2 0x3945 JUMP JUMPDEST PUSH1 0x40 MLOAD DUP1 SWAP2 SUB SWAP1 REVERT JUMPDEST PUSH2 0x1134 DUP11 DUP11 DUP11 PUSH2 0x14B0 JUMP JUMPDEST POP POP POP POP POP POP POP POP POP POP JUMP JUMPDEST PUSH0 DUP1 PUSH2 0x114A PUSH2 0x130B JUMP JUMPDEST SWAP1 POP DUP1 PUSH1 0x1 ADD PUSH0 DUP6 PUSH20 0xFFFFFFFFFFFFFFFFFFFFFFFFFFFFFFFFFFFFFFFF AND PUSH20 0xFFFFFFFFFFFFFFFFFFFFFFFFFFFFFFFFFFFFFFFF AND DUP2 MSTORE PUSH1 0x20 ADD SWAP1 DUP2 MSTORE PUSH1 0x20 ADD PUSH0 KECCAK256 PUSH0 DUP5 PUSH20 0xFFFFFFFFFFFFFFFFFFFFFFFFFFFFFFFFFFFFFFFF AND PUSH20 0xFFFFFFFFFFFFFFFFFFFFFFFFFFFFFFFFFFFFFFFF AND DUP2 MSTORE PUSH1 0x20 ADD SWAP1 DUP2 MSTORE PUSH1 0x20 ADD PUSH0 KECCAK256 SLOAD SWAP2 POP POP SWAP3 SWAP2 POP POP JUMP JUMPDEST PUSH2 0x11D8 PUSH2 0x1332 JUMP JUMPDEST PUSH1 0x2 PUSH0 SWAP1 SLOAD SWAP1 PUSH2 0x100 EXP SWAP1 DIV PUSH20 0xFFFFFFFFFFFFFFFFFFFFFFFFFFFFFFFFFFFFFFFF AND PUSH20 0xFFFFFFFFFFFFFFFFFFFFFFFFFFFFFFFFFFFFFFFF AND PUSH4 0xF12182A6 DUP3 PUSH1 0x40 MLOAD DUP3 PUSH4 0xFFFFFFFF AND PUSH1 0xE0 SHL DUP2 MSTORE PUSH1 0x4 ADD PUSH2 0x1232 SWAP2 SWAP1 PUSH2 0x3331 JUMP JUMPDEST PUSH0 PUSH1 0x40 MLOAD DUP1 DUP4 SUB DUP2 PUSH0 DUP8 DUP1 EXTCODESIZE ISZERO DUP1 ISZERO PUSH2 0x1249 JUMPI PUSH0 DUP1 REVERT JUMPDEST POP GAS CALL ISZERO DUP1 ISZERO PUSH2 0x125B JUMPI RETURNDATASIZE PUSH0 DUP1 RETURNDATACOPY RETURNDATASIZE PUSH0 REVERT JUMPDEST POP POP POP POP POP JUMP JUMPDEST PUSH2 0x126A PUSH2 0x1332 JUMP JUMPDEST PUSH0 PUSH20 0xFFFFFFFFFFFFFFFFFFFFFFFFFFFFFFFFFFFFFFFF AND DUP2 PUSH20 0xFFFFFFFFFFFFFFFFFFFFFFFFFFFFFFFFFFFFFFFF AND SUB PUSH2 0x12DA JUMPI PUSH0 PUSH1 0x40 MLOAD PUSH32 0x1E4FBDF700000000000000000000000000000000000000000000000000000000 DUP2 MSTORE PUSH1 0x4 ADD PUSH2 0x12D1 SWAP2 SWAP1 PUSH2 0x3331 JUMP JUMPDEST PUSH1 0x40 MLOAD DUP1 SWAP2 SUB SWAP1 REVERT JUMPDEST PUSH2 0x12E3 DUP2 PUSH2 0x198B JUMP JUMPDEST POP JUMP JUMPDEST PUSH1 0x2 PUSH0 SWAP1 SLOAD SWAP1 PUSH2 0x100 EXP SWAP1 DIV PUSH20 0xFFFFFFFFFFFFFFFFFFFFFFFFFFFFFFFFFFFFFFFF AND DUP2 JUMP JUMPDEST PUSH0 PUSH32 0x52C63247E1F47DB19D5CE0460030C497F067CA4CEBF71BA98EEADABE20BACE00 SWAP1 POP SWAP1 JUMP JUMPDEST PUSH2 0x133A PUSH2 0x14A9 JUMP JUMPDEST PUSH20 0xFFFFFFFFFFFFFFFFFFFFFFFFFFFFFFFFFFFFFFFF AND PUSH2 0x1358 PUSH2 0xBAF JUMP JUMPDEST PUSH20 0xFFFFFFFFFFFFFFFFFFFFFFFFFFFFFFFFFFFFFFFF AND EQ PUSH2 0x13B7 JUMPI PUSH2 0x137B PUSH2 0x14A9 JUMP JUMPDEST PUSH1 0x40 MLOAD PUSH32 0x118CDAA700000000000000000000000000000000000000000000000000000000 DUP2 MSTORE PUSH1 0x4 ADD PUSH2 0x13AE SWAP2 SWAP1 PUSH2 0x3331 JUMP JUMPDEST PUSH1 0x40 MLOAD DUP1 SWAP2 SUB SWAP1 REVERT JUMPDEST JUMP JUMPDEST PUSH0 PUSH20 0xFFFFFFFFFFFFFFFFFFFFFFFFFFFFFFFFFFFFFFFF AND DUP4 PUSH20 0xFFFFFFFFFFFFFFFFFFFFFFFFFFFFFFFFFFFFFFFF AND SUB PUSH2 0x1429 JUMPI PUSH0 PUSH1 0x40 MLOAD PUSH32 0x96C6FD1E00000000000000000000000000000000000000000000000000000000 DUP2 MSTORE PUSH1 0x4 ADD PUSH2 0x1420 SWAP2 SWAP1 PUSH2 0x3331 JUMP JUMPDEST PUSH1 0x40 MLOAD DUP1 SWAP2 SUB SWAP1 REVERT JUMPDEST PUSH0 PUSH20 0xFFFFFFFFFFFFFFFFFFFFFFFFFFFFFFFFFFFFFFFF AND DUP3 PUSH20 0xFFFFFFFFFFFFFFFFFFFFFFFFFFFFFFFFFFFFFFFF AND SUB PUSH2 0x1499 JUMPI PUSH0 PUSH1 0x40 MLOAD PUSH32 0xEC442F0500000000000000000000000000000000000000000000000000000000 DUP2 MSTORE PUSH1 0x4 ADD PUSH2 0x1490 SWAP2 SWAP1 PUSH2 0x3331 JUMP JUMPDEST PUSH1 0x40 MLOAD DUP1 SWAP2 SUB SWAP1 REVERT JUMPDEST PUSH2 0x14A4 DUP4 DUP4 DUP4 PUSH2 0x1F08 JUMP JUMPDEST POP POP POP JUMP JUMPDEST PUSH0 CALLER SWAP1 POP SWAP1 JUMP JUMPDEST PUSH2 0x14BD DUP4 DUP4 DUP4 PUSH1 0x1 PUSH2 0x1FE2 JUMP JUMPDEST POP POP POP JUMP JUMPDEST PUSH0 PUSH2 0x14CD DUP5 DUP5 PUSH2 0x1140 JUMP JUMPDEST SWAP1 POP PUSH32 0xFFFFFFFFFFFFFFFFFFFFFFFFFFFFFFFFFFFFFFFFFFFFFFFFFFFFFFFFFFFFFFFF DUP2 EQ PUSH2 0x154E JUMPI DUP2 DUP2 LT ISZERO PUSH2 0x153F JUMPI DUP3 DUP2 DUP4 PUSH1 0x40 MLOAD PUSH32 0xFB8F41B200000000000000000000000000000000000000000000000000000000 DUP2 MSTORE PUSH1 0x4 ADD PUSH2 0x1536 SWAP4 SWAP3 SWAP2 SWAP1 PUSH2 0x396C JUMP JUMPDEST PUSH1 0x40 MLOAD DUP1 SWAP2 SUB SWAP1 REVERT JUMPDEST PUSH2 0x154D DUP5 DUP5 DUP5 DUP5 SUB PUSH0 PUSH2 0x1FE2 JUMP JUMPDEST JUMPDEST POP POP POP POP JUMP JUMPDEST PUSH0 PUSH2 0x155D PUSH2 0x21BF JUMP JUMPDEST SWAP1 POP SWAP1 JUMP JUMPDEST PUSH2 0x156A PUSH2 0x2222 JUMP JUMPDEST PUSH0 PUSH2 0x1573 PUSH2 0x1964 JUMP JUMPDEST SWAP1 POP PUSH0 DUP2 PUSH0 ADD PUSH0 PUSH2 0x100 EXP DUP2 SLOAD DUP2 PUSH1 0xFF MUL NOT AND SWAP1 DUP4 ISZERO ISZERO MUL OR SWAP1 SSTORE POP PUSH32 0x5DB9EE0A495BF2E6FF9C91A7834C1BA4FDD244A5E8AA4E537BD38AEAE4B073AA PUSH2 0x15B8 PUSH2 0x14A9 JUMP JUMPDEST PUSH1 0x40 MLOAD PUSH2 0x15C5 SWAP2 SWAP1 PUSH2 0x3331 JUMP JUMPDEST PUSH1 0x40 MLOAD DUP1 SWAP2 SUB SWAP1 LOG1 POP JUMP JUMPDEST PUSH0 PUSH20 0xFFFFFFFFFFFFFFFFFFFFFFFFFFFFFFFFFFFFFFFF AND DUP3 PUSH20 0xFFFFFFFFFFFFFFFFFFFFFFFFFFFFFFFFFFFFFFFF AND SUB PUSH2 0x1640 JUMPI PUSH0 PUSH1 0x40 MLOAD PUSH32 0xEC442F0500000000000000000000000000000000000000000000000000000000 DUP2 MSTORE PUSH1 0x4 ADD PUSH2 0x1637 SWAP2 SWAP1 PUSH2 0x3331 JUMP JUMPDEST PUSH1 0x40 MLOAD DUP1 SWAP2 SUB SWAP1 REVERT JUMPDEST PUSH2 0x164B PUSH0 DUP4 DUP4 PUSH2 0x1F08 JUMP JUMPDEST POP POP JUMP JUMPDEST PUSH0 PUSH20 0xFFFFFFFFFFFFFFFFFFFFFFFFFFFFFFFFFFFFFFFF AND DUP3 PUSH20 0xFFFFFFFFFFFFFFFFFFFFFFFFFFFFFFFFFFFFFFFF AND SUB PUSH2 0x16BF JUMPI PUSH0 PUSH1 0x40 MLOAD PUSH32 0x96C6FD1E00000000000000000000000000000000000000000000000000000000 DUP2 MSTORE PUSH1 0x4 ADD PUSH2 0x16B6 SWAP2 SWAP1 PUSH2 0x3331 JUMP JUMPDEST PUSH1 0x40 MLOAD DUP1 SWAP2 SUB SWAP1 REVERT JUMPDEST PUSH2 0x16CA DUP3 PUSH0 DUP4 PUSH2 0x1F08 JUMP JUMPDEST POP POP JUMP JUMPDEST PUSH32 0x0 PUSH20 0xFFFFFFFFFFFFFFFFFFFFFFFFFFFFFFFFFFFFFFFF AND ADDRESS PUSH20 0xFFFFFFFFFFFFFFFFFFFFFFFFFFFFFFFFFFFFFFFF AND EQ DUP1 PUSH2 0x177B JUMPI POP PUSH32 0x0 PUSH20 0xFFFFFFFFFFFFFFFFFFFFFFFFFFFFFFFFFFFFFFFF AND PUSH2 0x1762 PUSH2 0x2262 JUMP JUMPDEST PUSH20 0xFFFFFFFFFFFFFFFFFFFFFFFFFFFFFFFFFFFFFFFF AND EQ ISZERO JUMPDEST ISZERO PUSH2 0x17B2 JUMPI PUSH1 0x40 MLOAD PUSH32 0xE07C8DBA00000000000000000000000000000000000000000000000000000000 DUP2 MSTORE PUSH1 0x4 ADD PUSH1 0x40 MLOAD DUP1 SWAP2 SUB SWAP1 REVERT JUMPDEST JUMP JUMPDEST PUSH2 0x17BC PUSH2 0x1332 JUMP JUMPDEST POP JUMP JUMPDEST DUP2 PUSH20 0xFFFFFFFFFFFFFFFFFFFFFFFFFFFFFFFFFFFFFFFF AND PUSH4 0x52D1902D PUSH1 0x40 MLOAD DUP2 PUSH4 0xFFFFFFFF AND PUSH1 0xE0 SHL DUP2 MSTORE PUSH1 0x4 ADD PUSH1 0x20 PUSH1 0x40 MLOAD DUP1 DUP4 SUB DUP2 DUP7 GAS STATICCALL SWAP3 POP POP POP DUP1 ISZERO PUSH2 0x1827 JUMPI POP PUSH1 0x40 MLOAD RETURNDATASIZE PUSH1 0x1F NOT PUSH1 0x1F DUP3 ADD AND DUP3 ADD DUP1 PUSH1 0x40 MSTORE POP DUP2 ADD SWAP1 PUSH2 0x1824 SWAP2 SWAP1 PUSH2 0x39B5 JUMP JUMPDEST PUSH1 0x1 JUMPDEST PUSH2 0x1868 JUMPI DUP2 PUSH1 0x40 MLOAD PUSH32 0x4C9C8CE300000000000000000000000000000000000000000000000000000000 DUP2 MSTORE PUSH1 0x4 ADD PUSH2 0x185F SWAP2 SWAP1 PUSH2 0x3331 JUMP JUMPDEST PUSH1 0x40 MLOAD DUP1 SWAP2 SUB SWAP1 REVERT JUMPDEST PUSH32 0x360894A13BA1A3210667C828492DB98DCA3E2076CC3735A920A3CA505D382BBC PUSH0 SHL DUP2 EQ PUSH2 0x18CE JUMPI DUP1 PUSH1 0x40 MLOAD PUSH32 0xAA1D49A400000000000000000000000000000000000000000000000000000000 DUP2 MSTORE PUSH1 0x4 ADD PUSH2 0x18C5 SWAP2 SWAP1 PUSH2 0x2FE5 JUMP JUMPDEST PUSH1 0x40 MLOAD DUP1 SWAP2 SUB SWAP1 REVERT JUMPDEST PUSH2 0x18D8 DUP4 DUP4 PUSH2 0x22B5 JUMP JUMPDEST POP POP POP JUMP JUMPDEST PUSH32 0x0 PUSH20 0xFFFFFFFFFFFFFFFFFFFFFFFFFFFFFFFFFFFFFFFF AND ADDRESS PUSH20 0xFFFFFFFFFFFFFFFFFFFFFFFFFFFFFFFFFFFFFFFF AND EQ PUSH2 0x1962 JUMPI PUSH1 0x40 MLOAD PUSH32 0xE07C8DBA00000000000000000000000000000000000000000000000000000000 DUP2 MSTORE PUSH1 0x4 ADD PUSH1 0x40 MLOAD DUP1 SWAP2 SUB SWAP1 REVERT JUMPDEST JUMP JUMPDEST PUSH0 PUSH32 0xCD5ED15C6E187E77E9AEE88184C21F4F2182AB5827CB3B7E07FBEDCD63F03300 SWAP1 POP SWAP1 JUMP JUMPDEST PUSH0 PUSH2 0x1994 PUSH2 0x1C81 JUMP JUMPDEST SWAP1 POP PUSH0 DUP2 PUSH0 ADD PUSH0 SWAP1 SLOAD SWAP1 PUSH2 0x100 EXP SWAP1 DIV PUSH20 0xFFFFFFFFFFFFFFFFFFFFFFFFFFFFFFFFFFFFFFFF AND SWAP1 POP DUP3 DUP3 PUSH0 ADD PUSH0 PUSH2 0x100 EXP DUP2 SLOAD DUP2 PUSH20 0xFFFFFFFFFFFFFFFFFFFFFFFFFFFFFFFFFFFFFFFF MUL NOT AND SWAP1 DUP4 PUSH20 0xFFFFFFFFFFFFFFFFFFFFFFFFFFFFFFFFFFFFFFFF AND MUL OR SWAP1 SSTORE POP DUP3 PUSH20 0xFFFFFFFFFFFFFFFFFFFFFFFFFFFFFFFFFFFFFFFF AND DUP2 PUSH20 0xFFFFFFFFFFFFFFFFFFFFFFFFFFFFFFFFFFFFFFFF AND PUSH32 0x8BE0079C531659141344CD1FD0A4F28419497F9722A3DAAFE3B4186F6B6457E0 PUSH1 0x40 MLOAD PUSH1 0x40 MLOAD DUP1 SWAP2 SUB SWAP1 LOG3 POP POP POP JUMP JUMPDEST PUSH0 DUP1 PUSH2 0x1A66 PUSH2 0x2327 JUMP JUMPDEST SWAP1 POP DUP1 PUSH0 ADD PUSH0 DUP5 PUSH20 0xFFFFFFFFFFFFFFFFFFFFFFFFFFFFFFFFFFFFFFFF AND PUSH20 0xFFFFFFFFFFFFFFFFFFFFFFFFFFFFFFFFFFFFFFFF AND DUP2 MSTORE PUSH1 0x20 ADD SWAP1 DUP2 MSTORE PUSH1 0x20 ADD PUSH0 KECCAK256 SLOAD SWAP2 POP POP SWAP2 SWAP1 POP JUMP JUMPDEST PUSH2 0x1AB7 PUSH2 0x234E JUMP JUMPDEST PUSH0 PUSH2 0x1AC0 PUSH2 0x1964 JUMP JUMPDEST SWAP1 POP PUSH1 0x1 DUP2 PUSH0 ADD PUSH0 PUSH2 0x100 EXP DUP2 SLOAD DUP2 PUSH1 0xFF MUL NOT AND SWAP1 DUP4 ISZERO ISZERO MUL OR SWAP1 SSTORE POP PUSH32 0x62E78CEA01BEE320CD4E420270B5EA74000D11B0C9F74754EBDBFC544B05A258 PUSH2 0x1B06 PUSH2 0x14A9 JUMP JUMPDEST PUSH1 0x40 MLOAD PUSH2 0x1B13 SWAP2 SWAP1 PUSH2 0x3331 JUMP JUMPDEST PUSH1 0x40 MLOAD DUP1 SWAP2 SUB SWAP1 LOG1 POP JUMP JUMPDEST PUSH0 PUSH32 0xA16A46D94261C7517CC8FF89F61C0CE93598E3C849801011DEE649A6A557D100 SWAP1 POP SWAP1 JUMP JUMPDEST PUSH1 0x60 PUSH0 PUSH2 0x1B50 PUSH2 0x1B1E JUMP JUMPDEST SWAP1 POP DUP1 PUSH1 0x2 ADD DUP1 SLOAD PUSH2 0x1B61 SWAP1 PUSH2 0x351A JUMP JUMPDEST DUP1 PUSH1 0x1F ADD PUSH1 0x20 DUP1 SWAP2 DIV MUL PUSH1 0x20 ADD PUSH1 0x40 MLOAD SWAP1 DUP2 ADD PUSH1 0x40 MSTORE DUP1 SWAP3 SWAP2 SWAP1 DUP2 DUP2 MSTORE PUSH1 0x20 ADD DUP3 DUP1 SLOAD PUSH2 0x1B8D SWAP1 PUSH2 0x351A JUMP JUMPDEST DUP1 ISZERO PUSH2 0x1BD8 JUMPI DUP1 PUSH1 0x1F LT PUSH2 0x1BAF JUMPI PUSH2 0x100 DUP1 DUP4 SLOAD DIV MUL DUP4 MSTORE SWAP2 PUSH1 0x20 ADD SWAP2 PUSH2 0x1BD8 JUMP JUMPDEST DUP3 ADD SWAP2 SWAP1 PUSH0 MSTORE PUSH1 0x20 PUSH0 KECCAK256 SWAP1 JUMPDEST DUP2 SLOAD DUP2 MSTORE SWAP1 PUSH1 0x1 ADD SWAP1 PUSH1 0x20 ADD DUP1 DUP4 GT PUSH2 0x1BBB JUMPI DUP3 SWAP1 SUB PUSH1 0x1F AND DUP3 ADD SWAP2 JUMPDEST POP POP POP POP POP SWAP2 POP POP SWAP1 JUMP JUMPDEST PUSH1 0x60 PUSH0 PUSH2 0x1BEE PUSH2 0x1B1E JUMP JUMPDEST SWAP1 POP DUP1 PUSH1 0x3 ADD DUP1 SLOAD PUSH2 0x1BFF SWAP1 PUSH2 0x351A JUMP JUMPDEST DUP1 PUSH1 0x1F ADD PUSH1 0x20 DUP1 SWAP2 DIV MUL PUSH1 0x20 ADD PUSH1 0x40 MLOAD SWAP1 DUP2 ADD PUSH1 0x40 MSTORE DUP1 SWAP3 SWAP2 SWAP1 DUP2 DUP2 MSTORE PUSH1 0x20 ADD DUP3 DUP1 SLOAD PUSH2 0x1C2B SWAP1 PUSH2 0x351A JUMP JUMPDEST DUP1 ISZERO PUSH2 0x1C76 JUMPI DUP1 PUSH1 0x1F LT PUSH2 0x1C4D JUMPI PUSH2 0x100 DUP1 DUP4 SLOAD DIV MUL DUP4 MSTORE SWAP2 PUSH1 0x20 ADD SWAP2 PUSH2 0x1C76 JUMP JUMPDEST DUP3 ADD SWAP2 SWAP1 PUSH0 MSTORE PUSH1 0x20 PUSH0 KECCAK256 SWAP1 JUMPDEST DUP2 SLOAD DUP2 MSTORE SWAP1 PUSH1 0x1 ADD SWAP1 PUSH1 0x20 ADD DUP1 DUP4 GT PUSH2 0x1C59 JUMPI DUP3 SWAP1 SUB PUSH1 0x1F AND DUP3 ADD SWAP2 JUMPDEST POP POP POP POP POP SWAP2 POP POP SWAP1 JUMP JUMPDEST PUSH0 PUSH32 0x9016D09D72D40FDAE2FD8CEAC6B6234C7706214FD39C1CD1E609A0528C199300 SWAP1 POP SWAP1 JUMP JUMPDEST PUSH0 PUSH32 0xF0C57E16840DF040F15088DC2F81FE391C3923BEC73E23A9662EFC9C229C6A00 SWAP1 POP SWAP1 JUMP JUMPDEST PUSH2 0x1CD7 PUSH2 0x238F JUMP JUMPDEST PUSH2 0x1CE1 DUP3 DUP3 PUSH2 0x23CF JUMP JUMPDEST POP POP JUMP JUMPDEST PUSH2 0x1CED PUSH2 0x238F JUMP JUMPDEST JUMP JUMPDEST PUSH2 0x1CF7 PUSH2 0x238F JUMP JUMPDEST PUSH2 0x1CFF PUSH2 0x240B JUMP JUMPDEST JUMP JUMPDEST PUSH2 0x1D09 PUSH2 0x238F JUMP JUMPDEST PUSH2 0x1D12 DUP2 PUSH2 0x243B JUMP JUMPDEST POP JUMP JUMPDEST PUSH2 0x1D1D PUSH2 0x238F JUMP JUMPDEST PUSH2 0x1D5C DUP2 PUSH1 0x40 MLOAD DUP1 PUSH1 0x40 ADD PUSH1 0x40 MSTORE DUP1 PUSH1 0x1 DUP2 MSTORE PUSH1 0x20 ADD PUSH32 0x3100000000000000000000000000000000000000000000000000000000000000 DUP2 MSTORE POP PUSH2 0x24BF JUMP JUMPDEST POP JUMP JUMPDEST PUSH2 0x1D67 PUSH2 0x238F JUMP JUMPDEST JUMP JUMPDEST PUSH0 PUSH2 0x1D72 PUSH2 0x1CA8 JUMP JUMPDEST SWAP1 POP DUP1 PUSH0 ADD PUSH1 0x8 SWAP1 SLOAD SWAP1 PUSH2 0x100 EXP SWAP1 DIV PUSH1 0xFF AND ISZERO PUSH2 0x1DBC JUMPI PUSH1 0x40 MLOAD PUSH32 0xF92EE8A900000000000000000000000000000000000000000000000000000000 DUP2 MSTORE PUSH1 0x4 ADD PUSH1 0x40 MLOAD DUP1 SWAP2 SUB SWAP1 REVERT JUMPDEST PUSH8 0xFFFFFFFFFFFFFFFF DUP1 AND DUP2 PUSH0 ADD PUSH0 SWAP1 SLOAD SWAP1 PUSH2 0x100 EXP SWAP1 DIV PUSH8 0xFFFFFFFFFFFFFFFF AND PUSH8 0xFFFFFFFFFFFFFFFF AND EQ PUSH2 0x1E5E JUMPI PUSH8 0xFFFFFFFFFFFFFFFF DUP2 PUSH0 ADD PUSH0 PUSH2 0x100 EXP DUP2 SLOAD DUP2 PUSH8 0xFFFFFFFFFFFFFFFF MUL NOT AND SWAP1 DUP4 PUSH8 0xFFFFFFFFFFFFFFFF AND MUL OR SWAP1 SSTORE POP PUSH32 0xC7F505B2F371AE2175EE4913F4499E1F2633A7B5936321EED1CDAEB6115181D2 PUSH8 0xFFFFFFFFFFFFFFFF PUSH1 0x40 MLOAD PUSH2 0x1E55 SWAP2 SWAP1 PUSH2 0x39EF JUMP JUMPDEST PUSH1 0x40 MLOAD DUP1 SWAP2 SUB SWAP1 LOG1 JUMPDEST POP JUMP JUMPDEST PUSH0 DUP1 PUSH2 0x1E6B PUSH2 0x2327 JUMP JUMPDEST SWAP1 POP DUP1 PUSH0 ADD PUSH0 DUP5 PUSH20 0xFFFFFFFFFFFFFFFFFFFFFFFFFFFFFFFFFFFFFFFF AND PUSH20 0xFFFFFFFFFFFFFFFFFFFFFFFFFFFFFFFFFFFFFFFF AND DUP2 MSTORE PUSH1 0x20 ADD SWAP1 DUP2 MSTORE PUSH1 0x20 ADD PUSH0 KECCAK256 PUSH0 DUP2 SLOAD DUP1 SWAP3 SWAP2 SWAP1 PUSH1 0x1 ADD SWAP2 SWAP1 POP SSTORE SWAP2 POP POP SWAP2 SWAP1 POP JUMP JUMPDEST PUSH0 PUSH2 0x1ED3 PUSH2 0x1ECD PUSH2 0x1554 JUMP JUMPDEST DUP4 PUSH2 0x2510 JUMP JUMPDEST SWAP1 POP SWAP2 SWAP1 POP JUMP JUMPDEST PUSH0 DUP1 PUSH0 DUP1 PUSH2 0x1EEA DUP9 DUP9 DUP9 DUP9 PUSH2 0x2550 JUMP JUMPDEST SWAP3 POP SWAP3 POP SWAP3 POP PUSH2 0x1EFA DUP3 DUP3 PUSH2 0x2637 JUMP JUMPDEST DUP3 SWAP4 POP POP POP POP SWAP5 SWAP4 POP POP POP POP JUMP JUMPDEST PUSH2 0x1F13 DUP4 DUP4 DUP4 PUSH2 0x2799 JUMP JUMPDEST PUSH2 0x1F1B PUSH2 0x9C6 JUMP JUMPDEST ISZERO PUSH2 0x1F5B JUMPI PUSH1 0x40 MLOAD PUSH32 0x8C379A000000000000000000000000000000000000000000000000000000000 DUP2 MSTORE PUSH1 0x4 ADD PUSH2 0x1F52 SWAP1 PUSH2 0x3A78 JUMP JUMPDEST PUSH1 0x40 MLOAD DUP1 SWAP2 SUB SWAP1 REVERT JUMPDEST TIMESTAMP PUSH0 DUP1 DUP6 PUSH20 0xFFFFFFFFFFFFFFFFFFFFFFFFFFFFFFFFFFFFFFFF AND PUSH20 0xFFFFFFFFFFFFFFFFFFFFFFFFFFFFFFFFFFFFFFFF AND DUP2 MSTORE PUSH1 0x20 ADD SWAP1 DUP2 MSTORE PUSH1 0x20 ADD PUSH0 KECCAK256 DUP2 SWAP1 SSTORE POP TIMESTAMP PUSH0 DUP1 DUP5 PUSH20 0xFFFFFFFFFFFFFFFFFFFFFFFFFFFFFFFFFFFFFFFF AND PUSH20 0xFFFFFFFFFFFFFFFFFFFFFFFFFFFFFFFFFFFFFFFF AND DUP2 MSTORE PUSH1 0x20 ADD SWAP1 DUP2 MSTORE PUSH1 0x20 ADD PUSH0 KECCAK256 DUP2 SWAP1 SSTORE POP POP POP POP JUMP JUMPDEST PUSH0 PUSH2 0x1FEB PUSH2 0x130B JUMP JUMPDEST SWAP1 POP PUSH0 PUSH20 0xFFFFFFFFFFFFFFFFFFFFFFFFFFFFFFFFFFFFFFFF AND DUP6 PUSH20 0xFFFFFFFFFFFFFFFFFFFFFFFFFFFFFFFFFFFFFFFF AND SUB PUSH2 0x205D JUMPI PUSH0 PUSH1 0x40 MLOAD PUSH32 0xE602DF0500000000000000000000000000000000000000000000000000000000 DUP2 MSTORE PUSH1 0x4 ADD PUSH2 0x2054 SWAP2 SWAP1 PUSH2 0x3331 JUMP JUMPDEST PUSH1 0x40 MLOAD DUP1 SWAP2 SUB SWAP1 REVERT JUMPDEST PUSH0 PUSH20 0xFFFFFFFFFFFFFFFFFFFFFFFFFFFFFFFFFFFFFFFF AND DUP5 PUSH20 0xFFFFFFFFFFFFFFFFFFFFFFFFFFFFFFFFFFFFFFFF AND SUB PUSH2 0x20CD JUMPI PUSH0 PUSH1 0x40 MLOAD PUSH32 0x94280D6200000000000000000000000000000000000000000000000000000000 DUP2 MSTORE PUSH1 0x4 ADD PUSH2 0x20C4 SWAP2 SWAP1 PUSH2 0x3331 JUMP JUMPDEST PUSH1 0x40 MLOAD DUP1 SWAP2 SUB SWAP1 REVERT JUMPDEST DUP3 DUP2 PUSH1 0x1 ADD PUSH0 DUP8 PUSH20 0xFFFFFFFFFFFFFFFFFFFFFFFFFFFFFFFFFFFFFFFF AND PUSH20 0xFFFFFFFFFFFFFFFFFFFFFFFFFFFFFFFFFFFFFFFF AND DUP2 MSTORE PUSH1 0x20 ADD SWAP1 DUP2 MSTORE PUSH1 0x20 ADD PUSH0 KECCAK256 PUSH0 DUP7 PUSH20 0xFFFFFFFFFFFFFFFFFFFFFFFFFFFFFFFFFFFFFFFF AND PUSH20 0xFFFFFFFFFFFFFFFFFFFFFFFFFFFFFFFFFFFFFFFF AND DUP2 MSTORE PUSH1 0x20 ADD SWAP1 DUP2 MSTORE PUSH1 0x20 ADD PUSH0 KECCAK256 DUP2 SWAP1 SSTORE POP DUP2 ISZERO PUSH2 0x21B8 JUMPI DUP4 PUSH20 0xFFFFFFFFFFFFFFFFFFFFFFFFFFFFFFFFFFFFFFFF AND DUP6 PUSH20 0xFFFFFFFFFFFFFFFFFFFFFFFFFFFFFFFFFFFFFFFF AND PUSH32 0x8C5BE1E5EBEC7D5BD14F71427D1E84F3DD0314C0F7B2291E5B200AC8C7C3B925 DUP6 PUSH1 0x40 MLOAD PUSH2 0x21AF SWAP2 SWAP1 PUSH2 0x2F30 JUMP JUMPDEST PUSH1 0x40 MLOAD DUP1 SWAP2 SUB SWAP1 LOG3 JUMPDEST POP POP POP POP POP JUMP JUMPDEST PUSH0 PUSH32 0x8B73C3C69BB8FE3D512ECC4CF759CC79239F7B179B0FFACAA9A75D522B39400F PUSH2 0x21E9 PUSH2 0x27B1 JUMP JUMPDEST PUSH2 0x21F1 PUSH2 0x2827 JUMP JUMPDEST CHAINID ADDRESS PUSH1 0x40 MLOAD PUSH1 0x20 ADD PUSH2 0x2207 SWAP6 SWAP5 SWAP4 SWAP3 SWAP2 SWAP1 PUSH2 0x3A96 JUMP JUMPDEST PUSH1 0x40 MLOAD PUSH1 0x20 DUP2 DUP4 SUB SUB DUP2 MSTORE SWAP1 PUSH1 0x40 MSTORE DUP1 MLOAD SWAP1 PUSH1 0x20 ADD KECCAK256 SWAP1 POP SWAP1 JUMP JUMPDEST PUSH2 0x222A PUSH2 0x9C6 JUMP JUMPDEST PUSH2 0x2260 JUMPI PUSH1 0x40 MLOAD PUSH32 0x8DFC202B00000000000000000000000000000000000000000000000000000000 DUP2 MSTORE PUSH1 0x4 ADD PUSH1 0x40 MLOAD DUP1 SWAP2 SUB SWAP1 REVERT JUMPDEST JUMP JUMPDEST PUSH0 PUSH2 0x228E PUSH32 0x360894A13BA1A3210667C828492DB98DCA3E2076CC3735A920A3CA505D382BBC PUSH0 SHL PUSH2 0x289E JUMP JUMPDEST PUSH0 ADD PUSH0 SWAP1 SLOAD SWAP1 PUSH2 0x100 EXP SWAP1 DIV PUSH20 0xFFFFFFFFFFFFFFFFFFFFFFFFFFFFFFFFFFFFFFFF AND SWAP1 POP SWAP1 JUMP JUMPDEST PUSH2 0x22BE DUP3 PUSH2 0x28A7 JUMP JUMPDEST DUP2 PUSH20 0xFFFFFFFFFFFFFFFFFFFFFFFFFFFFFFFFFFFFFFFF AND PUSH32 0xBC7CD75A20EE27FD9ADEBAB32041F755214DBC6BFFA90CC0225B39DA2E5C2D3B PUSH1 0x40 MLOAD PUSH1 0x40 MLOAD DUP1 SWAP2 SUB SWAP1 LOG2 PUSH0 DUP2 MLOAD GT ISZERO PUSH2 0x231A JUMPI PUSH2 0x2314 DUP3 DUP3 PUSH2 0x2970 JUMP JUMPDEST POP PUSH2 0x2323 JUMP JUMPDEST PUSH2 0x2322 PUSH2 0x29F0 JUMP JUMPDEST JUMPDEST POP POP JUMP JUMPDEST PUSH0 PUSH32 0x5AB42CED628888259C08AC98DB1EB0CF702FC1501344311D8B100CD1BFE4BB00 SWAP1 POP SWAP1 JUMP JUMPDEST PUSH2 0x2356 PUSH2 0x9C6 JUMP JUMPDEST ISZERO PUSH2 0x238D JUMPI PUSH1 0x40 MLOAD PUSH32 0xD93C066500000000000000000000000000000000000000000000000000000000 DUP2 MSTORE PUSH1 0x4 ADD PUSH1 0x40 MLOAD DUP1 SWAP2 SUB SWAP1 REVERT JUMPDEST JUMP JUMPDEST PUSH2 0x2397 PUSH2 0x2A2C JUMP JUMPDEST PUSH2 0x23CD JUMPI PUSH1 0x40 MLOAD PUSH32 0xD7E6BCF800000000000000000000000000000000000000000000000000000000 DUP2 MSTORE PUSH1 0x4 ADD PUSH1 0x40 MLOAD DUP1 SWAP2 SUB SWAP1 REVERT JUMPDEST JUMP JUMPDEST PUSH2 0x23D7 PUSH2 0x238F JUMP JUMPDEST PUSH0 PUSH2 0x23E0 PUSH2 0x130B JUMP JUMPDEST SWAP1 POP DUP3 DUP2 PUSH1 0x3 ADD SWAP1 DUP2 PUSH2 0x23F3 SWAP2 SWAP1 PUSH2 0x3C7B JUMP JUMPDEST POP DUP2 DUP2 PUSH1 0x4 ADD SWAP1 DUP2 PUSH2 0x2405 SWAP2 SWAP1 PUSH2 0x3C7B JUMP JUMPDEST POP POP POP POP JUMP JUMPDEST PUSH2 0x2413 PUSH2 0x238F JUMP JUMPDEST PUSH0 PUSH2 0x241C PUSH2 0x1964 JUMP JUMPDEST SWAP1 POP PUSH0 DUP2 PUSH0 ADD PUSH0 PUSH2 0x100 EXP DUP2 SLOAD DUP2 PUSH1 0xFF MUL NOT AND SWAP1 DUP4 ISZERO ISZERO MUL OR SWAP1 SSTORE POP POP JUMP JUMPDEST PUSH2 0x2443 PUSH2 0x238F JUMP JUMPDEST PUSH0 PUSH20 0xFFFFFFFFFFFFFFFFFFFFFFFFFFFFFFFFFFFFFFFF AND DUP2 PUSH20 0xFFFFFFFFFFFFFFFFFFFFFFFFFFFFFFFFFFFFFFFF AND SUB PUSH2 0x24B3 JUMPI PUSH0 PUSH1 0x40 MLOAD PUSH32 0x1E4FBDF700000000000000000000000000000000000000000000000000000000 DUP2 MSTORE PUSH1 0x4 ADD PUSH2 0x24AA SWAP2 SWAP1 PUSH2 0x3331 JUMP JUMPDEST PUSH1 0x40 MLOAD DUP1 SWAP2 SUB SWAP1 REVERT JUMPDEST PUSH2 0x24BC DUP2 PUSH2 0x198B JUMP JUMPDEST POP JUMP JUMPDEST PUSH2 0x24C7 PUSH2 0x238F JUMP JUMPDEST PUSH0 PUSH2 0x24D0 PUSH2 0x1B1E JUMP JUMPDEST SWAP1 POP DUP3 DUP2 PUSH1 0x2 ADD SWAP1 DUP2 PUSH2 0x24E3 SWAP2 SWAP1 PUSH2 0x3C7B JUMP JUMPDEST POP DUP2 DUP2 PUSH1 0x3 ADD SWAP1 DUP2 PUSH2 0x24F5 SWAP2 SWAP1 PUSH2 0x3C7B JUMP JUMPDEST POP PUSH0 DUP1 SHL DUP2 PUSH0 ADD DUP2 SWAP1 SSTORE POP PUSH0 DUP1 SHL DUP2 PUSH1 0x1 ADD DUP2 SWAP1 SSTORE POP POP POP POP JUMP JUMPDEST PUSH0 PUSH1 0x40 MLOAD PUSH32 0x1901000000000000000000000000000000000000000000000000000000000000 DUP2 MSTORE DUP4 PUSH1 0x2 DUP3 ADD MSTORE DUP3 PUSH1 0x22 DUP3 ADD MSTORE PUSH1 0x42 DUP2 KECCAK256 SWAP2 POP POP SWAP3 SWAP2 POP POP JUMP JUMPDEST PUSH0 DUP1 PUSH0 PUSH32 0x7FFFFFFFFFFFFFFFFFFFFFFFFFFFFFFF5D576E7357A4501DDFE92F46681B20A0 DUP5 PUSH0 SHR GT ISZERO PUSH2 0x258C JUMPI PUSH0 PUSH1 0x3 DUP6 SWAP3 POP SWAP3 POP SWAP3 POP PUSH2 0x262D JUMP JUMPDEST PUSH0 PUSH1 0x1 DUP9 DUP9 DUP9 DUP9 PUSH1 0x40 MLOAD PUSH0 DUP2 MSTORE PUSH1 0x20 ADD PUSH1 0x40 MSTORE PUSH1 0x40 MLOAD PUSH2 0x25AF SWAP5 SWAP4 SWAP3 SWAP2 SWAP1 PUSH2 0x3D4A JUMP JUMPDEST PUSH1 0x20 PUSH1 0x40 MLOAD PUSH1 0x20 DUP2 SUB SWAP1 DUP1 DUP5 SUB SWAP1 DUP6 GAS STATICCALL ISZERO DUP1 ISZERO PUSH2 0x25CF JUMPI RETURNDATASIZE PUSH0 DUP1 RETURNDATACOPY RETURNDATASIZE PUSH0 REVERT JUMPDEST POP POP POP PUSH1 0x20 PUSH1 0x40 MLOAD SUB MLOAD SWAP1 POP PUSH0 PUSH20 0xFFFFFFFFFFFFFFFFFFFFFFFFFFFFFFFFFFFFFFFF AND DUP2 PUSH20 0xFFFFFFFFFFFFFFFFFFFFFFFFFFFFFFFFFFFFFFFF AND SUB PUSH2 0x2620 JUMPI PUSH0 PUSH1 0x1 PUSH0 DUP1 SHL SWAP4 POP SWAP4 POP SWAP4 POP POP PUSH2 0x262D JUMP JUMPDEST DUP1 PUSH0 DUP1 PUSH0 SHL SWAP4 POP SWAP4 POP SWAP4 POP POP JUMPDEST SWAP5 POP SWAP5 POP SWAP5 SWAP2 POP POP JUMP JUMPDEST PUSH0 PUSH1 0x3 DUP2 GT ISZERO PUSH2 0x264A JUMPI PUSH2 0x2649 PUSH2 0x3D8D JUMP JUMPDEST JUMPDEST DUP3 PUSH1 0x3 DUP2 GT ISZERO PUSH2 0x265D JUMPI PUSH2 0x265C PUSH2 0x3D8D JUMP JUMPDEST JUMPDEST SUB ISZERO PUSH2 0x2795 JUMPI PUSH1 0x1 PUSH1 0x3 DUP2 GT ISZERO PUSH2 0x2677 JUMPI PUSH2 0x2676 PUSH2 0x3D8D JUMP JUMPDEST JUMPDEST DUP3 PUSH1 0x3 DUP2 GT ISZERO PUSH2 0x268A JUMPI PUSH2 0x2689 PUSH2 0x3D8D JUMP JUMPDEST JUMPDEST SUB PUSH2 0x26C1 JUMPI PUSH1 0x40 MLOAD PUSH32 0xF645EEDF00000000000000000000000000000000000000000000000000000000 DUP2 MSTORE PUSH1 0x4 ADD PUSH1 0x40 MLOAD DUP1 SWAP2 SUB SWAP1 REVERT JUMPDEST PUSH1 0x2 PUSH1 0x3 DUP2 GT ISZERO PUSH2 0x26D5 JUMPI PUSH2 0x26D4 PUSH2 0x3D8D JUMP JUMPDEST JUMPDEST DUP3 PUSH1 0x3 DUP2 GT ISZERO PUSH2 0x26E8 JUMPI PUSH2 0x26E7 PUSH2 0x3D8D JUMP JUMPDEST JUMPDEST SUB PUSH2 0x272C JUMPI DUP1 PUSH0 SHR PUSH1 0x40 MLOAD PUSH32 0xFCE698F700000000000000000000000000000000000000000000000000000000 DUP2 MSTORE PUSH1 0x4 ADD PUSH2 0x2723 SWAP2 SWAP1 PUSH2 0x2F30 JUMP JUMPDEST PUSH1 0x40 MLOAD DUP1 SWAP2 SUB SWAP1 REVERT JUMPDEST PUSH1 0x3 DUP1 DUP2 GT ISZERO PUSH2 0x273F JUMPI PUSH2 0x273E PUSH2 0x3D8D JUMP JUMPDEST JUMPDEST DUP3 PUSH1 0x3 DUP2 GT ISZERO PUSH2 0x2752 JUMPI PUSH2 0x2751 PUSH2 0x3D8D JUMP JUMPDEST JUMPDEST SUB PUSH2 0x2794 JUMPI DUP1 PUSH1 0x40 MLOAD PUSH32 0xD78BCE0C00000000000000000000000000000000000000000000000000000000 DUP2 MSTORE PUSH1 0x4 ADD PUSH2 0x278B SWAP2 SWAP1 PUSH2 0x2FE5 JUMP JUMPDEST PUSH1 0x40 MLOAD DUP1 SWAP2 SUB SWAP1 REVERT JUMPDEST JUMPDEST POP POP JUMP JUMPDEST PUSH2 0x27A1 PUSH2 0x234E JUMP JUMPDEST PUSH2 0x27AC DUP4 DUP4 DUP4 PUSH2 0x2A4A JUMP JUMPDEST POP POP POP JUMP JUMPDEST PUSH0 DUP1 PUSH2 0x27BB PUSH2 0x1B1E JUMP JUMPDEST SWAP1 POP PUSH0 PUSH2 0x27C6 PUSH2 0x1B45 JUMP JUMPDEST SWAP1 POP PUSH0 DUP2 MLOAD GT ISZERO PUSH2 0x27E2 JUMPI DUP1 DUP1 MLOAD SWAP1 PUSH1 0x20 ADD KECCAK256 SWAP3 POP POP POP PUSH2 0x2824 JUMP JUMPDEST PUSH0 DUP3 PUSH0 ADD SLOAD SWAP1 POP PUSH0 DUP1 SHL DUP2 EQ PUSH2 0x27FD JUMPI DUP1 SWAP4 POP POP POP POP PUSH2 0x2824 JUMP JUMPDEST PUSH32 0xC5D2460186F7233C927E7DB2DCC703C0E500B653CA82273B7BFAD8045D85A470 SWAP4 POP POP POP POP JUMPDEST SWAP1 JUMP JUMPDEST PUSH0 DUP1 PUSH2 0x2831 PUSH2 0x1B1E JUMP JUMPDEST SWAP1 POP PUSH0 PUSH2 0x283C PUSH2 0x1BE3 JUMP JUMPDEST SWAP1 POP PUSH0 DUP2 MLOAD GT ISZERO PUSH2 0x2858 JUMPI DUP1 DUP1 MLOAD SWAP1 PUSH1 0x20 ADD KECCAK256 SWAP3 POP POP POP PUSH2 0x289B JUMP JUMPDEST PUSH0 DUP3 PUSH1 0x1 ADD SLOAD SWAP1 POP PUSH0 DUP1 SHL DUP2 EQ PUSH2 0x2874 JUMPI DUP1 SWAP4 POP POP POP POP PUSH2 0x289B JUMP JUMPDEST PUSH32 0xC5D2460186F7233C927E7DB2DCC703C0E500B653CA82273B7BFAD8045D85A470 SWAP4 POP POP POP POP JUMPDEST SWAP1 JUMP JUMPDEST PUSH0 DUP2 SWAP1 POP SWAP2 SWAP1 POP JUMP JUMPDEST PUSH0 DUP2 PUSH20 0xFFFFFFFFFFFFFFFFFFFFFFFFFFFFFFFFFFFFFFFF AND EXTCODESIZE SUB PUSH2 0x2902 JUMPI DUP1 PUSH1 0x40 MLOAD PUSH32 0x4C9C8CE300000000000000000000000000000000000000000000000000000000 DUP2 MSTORE PUSH1 0x4 ADD PUSH2 0x28F9 SWAP2 SWAP1 PUSH2 0x3331 JUMP JUMPDEST PUSH1 0x40 MLOAD DUP1 SWAP2 SUB SWAP1 REVERT JUMPDEST DUP1 PUSH2 0x292E PUSH32 0x360894A13BA1A3210667C828492DB98DCA3E2076CC3735A920A3CA505D382BBC PUSH0 SHL PUSH2 0x289E JUMP JUMPDEST PUSH0 ADD PUSH0 PUSH2 0x100 EXP DUP2 SLOAD DUP2 PUSH20 0xFFFFFFFFFFFFFFFFFFFFFFFFFFFFFFFFFFFFFFFF MUL NOT AND SWAP1 DUP4 PUSH20 0xFFFFFFFFFFFFFFFFFFFFFFFFFFFFFFFFFFFFFFFF AND MUL OR SWAP1 SSTORE POP POP JUMP JUMPDEST PUSH1 0x60 PUSH0 DUP1 DUP5 PUSH20 0xFFFFFFFFFFFFFFFFFFFFFFFFFFFFFFFFFFFFFFFF AND DUP5 PUSH1 0x40 MLOAD PUSH2 0x2999 SWAP2 SWAP1 PUSH2 0x3DFE JUMP JUMPDEST PUSH0 PUSH1 0x40 MLOAD DUP1 DUP4 SUB DUP2 DUP6 GAS DELEGATECALL SWAP2 POP POP RETURNDATASIZE DUP1 PUSH0 DUP2 EQ PUSH2 0x29D1 JUMPI PUSH1 0x40 MLOAD SWAP2 POP PUSH1 0x1F NOT PUSH1 0x3F RETURNDATASIZE ADD AND DUP3 ADD PUSH1 0x40 MSTORE RETURNDATASIZE DUP3 MSTORE RETURNDATASIZE PUSH0 PUSH1 0x20 DUP5 ADD RETURNDATACOPY PUSH2 0x29D6 JUMP JUMPDEST PUSH1 0x60 SWAP2 POP JUMPDEST POP SWAP2 POP SWAP2 POP PUSH2 0x29E6 DUP6 DUP4 DUP4 PUSH2 0x2C79 JUMP JUMPDEST SWAP3 POP POP POP SWAP3 SWAP2 POP POP JUMP JUMPDEST PUSH0 CALLVALUE GT ISZERO PUSH2 0x2A2A JUMPI PUSH1 0x40 MLOAD PUSH32 0xB398979F00000000000000000000000000000000000000000000000000000000 DUP2 MSTORE PUSH1 0x4 ADD PUSH1 0x40 MLOAD DUP1 SWAP2 SUB SWAP1 REVERT JUMPDEST JUMP JUMPDEST PUSH0 PUSH2 0x2A35 PUSH2 0x1CA8 JUMP JUMPDEST PUSH0 ADD PUSH1 0x8 SWAP1 SLOAD SWAP1 PUSH2 0x100 EXP SWAP1 DIV PUSH1 0xFF AND SWAP1 POP SWAP1 JUMP JUMPDEST PUSH0 PUSH2 0x2A53 PUSH2 0x130B JUMP JUMPDEST SWAP1 POP PUSH0 PUSH20 0xFFFFFFFFFFFFFFFFFFFFFFFFFFFFFFFFFFFFFFFF AND DUP5 PUSH20 0xFFFFFFFFFFFFFFFFFFFFFFFFFFFFFFFFFFFFFFFF AND SUB PUSH2 0x2AA7 JUMPI DUP2 DUP2 PUSH1 0x2 ADD PUSH0 DUP3 DUP3 SLOAD PUSH2 0x2A9B SWAP2 SWAP1 PUSH2 0x3605 JUMP JUMPDEST SWAP3 POP POP DUP2 SWAP1 SSTORE POP PUSH2 0x2B79 JUMP JUMPDEST PUSH0 DUP2 PUSH0 ADD PUSH0 DUP7 PUSH20 0xFFFFFFFFFFFFFFFFFFFFFFFFFFFFFFFFFFFFFFFF AND PUSH20 0xFFFFFFFFFFFFFFFFFFFFFFFFFFFFFFFFFFFFFFFF AND DUP2 MSTORE PUSH1 0x20 ADD SWAP1 DUP2 MSTORE PUSH1 0x20 ADD PUSH0 KECCAK256 SLOAD SWAP1 POP DUP3 DUP2 LT ISZERO PUSH2 0x2B32 JUMPI DUP5 DUP2 DUP5 PUSH1 0x40 MLOAD PUSH32 0xE450D38C00000000000000000000000000000000000000000000000000000000 DUP2 MSTORE PUSH1 0x4 ADD PUSH2 0x2B29 SWAP4 SWAP3 SWAP2 SWAP1 PUSH2 0x396C JUMP JUMPDEST PUSH1 0x40 MLOAD DUP1 SWAP2 SUB SWAP1 REVERT JUMPDEST DUP3 DUP2 SUB DUP3 PUSH0 ADD PUSH0 DUP8 PUSH20 0xFFFFFFFFFFFFFFFFFFFFFFFFFFFFFFFFFFFFFFFF AND PUSH20 0xFFFFFFFFFFFFFFFFFFFFFFFFFFFFFFFFFFFFFFFF AND DUP2 MSTORE PUSH1 0x20 ADD SWAP1 DUP2 MSTORE PUSH1 0x20 ADD PUSH0 KECCAK256 DUP2 SWAP1 SSTORE POP POP JUMPDEST PUSH0 PUSH20 0xFFFFFFFFFFFFFFFFFFFFFFFFFFFFFFFFFFFFFFFF AND DUP4 PUSH20 0xFFFFFFFFFFFFFFFFFFFFFFFFFFFFFFFFFFFFFFFF AND SUB PUSH2 0x2BC2 JUMPI DUP2 DUP2 PUSH1 0x2 ADD PUSH0 DUP3 DUP3 SLOAD SUB SWAP3 POP POP DUP2 SWAP1 SSTORE POP PUSH2 0x2C0E JUMP JUMPDEST DUP2 DUP2 PUSH0 ADD PUSH0 DUP6 PUSH20 0xFFFFFFFFFFFFFFFFFFFFFFFFFFFFFFFFFFFFFFFF AND PUSH20 0xFFFFFFFFFFFFFFFFFFFFFFFFFFFFFFFFFFFFFFFF AND DUP2 MSTORE PUSH1 0x20 ADD SWAP1 DUP2 MSTORE PUSH1 0x20 ADD PUSH0 KECCAK256 PUSH0 DUP3 DUP3 SLOAD ADD SWAP3 POP POP DUP2 SWAP1 SSTORE POP JUMPDEST DUP3 PUSH20 0xFFFFFFFFFFFFFFFFFFFFFFFFFFFFFFFFFFFFFFFF AND DUP5 PUSH20 0xFFFFFFFFFFFFFFFFFFFFFFFFFFFFFFFFFFFFFFFF AND PUSH32 0xDDF252AD1BE2C89B69C2B068FC378DAA952BA7F163C4A11628F55A4DF523B3EF DUP5 PUSH1 0x40 MLOAD PUSH2 0x2C6B SWAP2 SWAP1 PUSH2 0x2F30 JUMP JUMPDEST PUSH1 0x40 MLOAD DUP1 SWAP2 SUB SWAP1 LOG3 POP POP POP POP JUMP JUMPDEST PUSH1 0x60 DUP3 PUSH2 0x2C8E JUMPI PUSH2 0x2C89 DUP3 PUSH2 0x2D06 JUMP JUMPDEST PUSH2 0x2CFE JUMP JUMPDEST PUSH0 DUP3 MLOAD EQ DUP1 ISZERO PUSH2 0x2CB4 JUMPI POP PUSH0 DUP5 PUSH20 0xFFFFFFFFFFFFFFFFFFFFFFFFFFFFFFFFFFFFFFFF AND EXTCODESIZE EQ JUMPDEST ISZERO PUSH2 0x2CF6 JUMPI DUP4 PUSH1 0x40 MLOAD PUSH32 0x9996B31500000000000000000000000000000000000000000000000000000000 DUP2 MSTORE PUSH1 0x4 ADD PUSH2 0x2CED SWAP2 SWAP1 PUSH2 0x3331 JUMP JUMPDEST PUSH1 0x40 MLOAD DUP1 SWAP2 SUB SWAP1 REVERT JUMPDEST DUP2 SWAP1 POP PUSH2 0x2CFF JUMP JUMPDEST JUMPDEST SWAP4 SWAP3 POP POP POP JUMP JUMPDEST PUSH0 DUP2 MLOAD GT ISZERO PUSH2 0x2D18 JUMPI DUP1 MLOAD DUP1 DUP3 PUSH1 0x20 ADD REVERT JUMPDEST PUSH1 0x40 MLOAD PUSH32 0x1425EA4200000000000000000000000000000000000000000000000000000000 DUP2 MSTORE PUSH1 0x4 ADD PUSH1 0x40 MLOAD DUP1 SWAP2 SUB SWAP1 REVERT JUMPDEST PUSH2 0x6D1 DUP1 PUSH2 0x3E15 DUP4 CODECOPY ADD SWAP1 JUMP JUMPDEST PUSH0 DUP2 MLOAD SWAP1 POP SWAP2 SWAP1 POP JUMP JUMPDEST PUSH0 DUP3 DUP3 MSTORE PUSH1 0x20 DUP3 ADD SWAP1 POP SWAP3 SWAP2 POP POP JUMP JUMPDEST DUP3 DUP2 DUP4 MCOPY PUSH0 DUP4 DUP4 ADD MSTORE POP POP POP JUMP JUMPDEST PUSH0 PUSH1 0x1F NOT PUSH1 0x1F DUP4 ADD AND SWAP1 POP SWAP2 SWAP1 POP JUMP JUMPDEST PUSH0 PUSH2 0x2D99 DUP3 PUSH2 0x2D57 JUMP JUMPDEST PUSH2 0x2DA3 DUP2 DUP6 PUSH2 0x2D61 JUMP JUMPDEST SWAP4 POP PUSH2 0x2DB3 DUP2 DUP6 PUSH1 0x20 DUP7 ADD PUSH2 0x2D71 JUMP JUMPDEST PUSH2 0x2DBC DUP2 PUSH2 0x2D7F JUMP JUMPDEST DUP5 ADD SWAP2 POP POP SWAP3 SWAP2 POP POP JUMP JUMPDEST PUSH0 PUSH1 0x20 DUP3 ADD SWAP1 POP DUP2 DUP2 SUB PUSH0 DUP4 ADD MSTORE PUSH2 0x2DDF DUP2 DUP5 PUSH2 0x2D8F JUMP JUMPDEST SWAP1 POP SWAP3 SWAP2 POP POP JUMP JUMPDEST PUSH0 PUSH1 0x40 MLOAD SWAP1 POP SWAP1 JUMP JUMPDEST PUSH0 DUP1 REVERT JUMPDEST PUSH0 DUP1 REVERT JUMPDEST PUSH0 DUP2 SWAP1 POP SWAP2 SWAP1 POP JUMP JUMPDEST PUSH2 0x2E0A DUP2 PUSH2 0x2DF8 JUMP JUMPDEST DUP2 EQ PUSH2 0x2E14 JUMPI PUSH0 DUP1 REVERT JUMPDEST POP JUMP JUMPDEST PUSH0 DUP2 CALLDATALOAD SWAP1 POP PUSH2 0x2E25 DUP2 PUSH2 0x2E01 JUMP JUMPDEST SWAP3 SWAP2 POP POP JUMP JUMPDEST PUSH0 PUSH1 0x20 DUP3 DUP5 SUB SLT ISZERO PUSH2 0x2E40 JUMPI PUSH2 0x2E3F PUSH2 0x2DF0 JUMP JUMPDEST JUMPDEST PUSH0 PUSH2 0x2E4D DUP5 DUP3 DUP6 ADD PUSH2 0x2E17 JUMP JUMPDEST SWAP2 POP POP SWAP3 SWAP2 POP POP JUMP JUMPDEST PUSH0 PUSH20 0xFFFFFFFFFFFFFFFFFFFFFFFFFFFFFFFFFFFFFFFF DUP3 AND SWAP1 POP SWAP2 SWAP1 POP JUMP JUMPDEST PUSH0 PUSH2 0x2E7F DUP3 PUSH2 0x2E56 JUMP JUMPDEST SWAP1 POP SWAP2 SWAP1 POP JUMP JUMPDEST PUSH2 0x2E8F DUP2 PUSH2 0x2E75 JUMP JUMPDEST DUP2 EQ PUSH2 0x2E99 JUMPI PUSH0 DUP1 REVERT JUMPDEST POP JUMP JUMPDEST PUSH0 DUP2 CALLDATALOAD SWAP1 POP PUSH2 0x2EAA DUP2 PUSH2 0x2E86 JUMP JUMPDEST SWAP3 SWAP2 POP POP JUMP JUMPDEST PUSH0 DUP1 PUSH1 0x40 DUP4 DUP6 SUB SLT ISZERO PUSH2 0x2EC6 JUMPI PUSH2 0x2EC5 PUSH2 0x2DF0 JUMP JUMPDEST JUMPDEST PUSH0 PUSH2 0x2ED3 DUP6 DUP3 DUP7 ADD PUSH2 0x2E9C JUMP JUMPDEST SWAP3 POP POP PUSH1 0x20 PUSH2 0x2EE4 DUP6 DUP3 DUP7 ADD PUSH2 0x2E17 JUMP JUMPDEST SWAP2 POP POP SWAP3 POP SWAP3 SWAP1 POP JUMP JUMPDEST PUSH0 DUP2 ISZERO ISZERO SWAP1 POP SWAP2 SWAP1 POP JUMP JUMPDEST PUSH2 0x2F02 DUP2 PUSH2 0x2EEE JUMP JUMPDEST DUP3 MSTORE POP POP JUMP JUMPDEST PUSH0 PUSH1 0x20 DUP3 ADD SWAP1 POP PUSH2 0x2F1B PUSH0 DUP4 ADD DUP5 PUSH2 0x2EF9 JUMP JUMPDEST SWAP3 SWAP2 POP POP JUMP JUMPDEST PUSH2 0x2F2A DUP2 PUSH2 0x2DF8 JUMP JUMPDEST DUP3 MSTORE POP POP JUMP JUMPDEST PUSH0 PUSH1 0x20 DUP3 ADD SWAP1 POP PUSH2 0x2F43 PUSH0 DUP4 ADD DUP5 PUSH2 0x2F21 JUMP JUMPDEST SWAP3 SWAP2 POP POP JUMP JUMPDEST PUSH0 DUP1 PUSH0 PUSH1 0x60 DUP5 DUP7 SUB SLT ISZERO PUSH2 0x2F60 JUMPI PUSH2 0x2F5F PUSH2 0x2DF0 JUMP JUMPDEST JUMPDEST PUSH0 PUSH2 0x2F6D DUP7 DUP3 DUP8 ADD PUSH2 0x2E9C JUMP JUMPDEST SWAP4 POP POP PUSH1 0x20 PUSH2 0x2F7E DUP7 DUP3 DUP8 ADD PUSH2 0x2E9C JUMP JUMPDEST SWAP3 POP POP PUSH1 0x40 PUSH2 0x2F8F DUP7 DUP3 DUP8 ADD PUSH2 0x2E17 JUMP JUMPDEST SWAP2 POP POP SWAP3 POP SWAP3 POP SWAP3 JUMP JUMPDEST PUSH0 PUSH1 0xFF DUP3 AND SWAP1 POP SWAP2 SWAP1 POP JUMP JUMPDEST PUSH2 0x2FAE DUP2 PUSH2 0x2F99 JUMP JUMPDEST DUP3 MSTORE POP POP JUMP JUMPDEST PUSH0 PUSH1 0x20 DUP3 ADD SWAP1 POP PUSH2 0x2FC7 PUSH0 DUP4 ADD DUP5 PUSH2 0x2FA5 JUMP JUMPDEST SWAP3 SWAP2 POP POP JUMP JUMPDEST PUSH0 DUP2 SWAP1 POP SWAP2 SWAP1 POP JUMP JUMPDEST PUSH2 0x2FDF DUP2 PUSH2 0x2FCD JUMP JUMPDEST DUP3 MSTORE POP POP JUMP JUMPDEST PUSH0 PUSH1 0x20 DUP3 ADD SWAP1 POP PUSH2 0x2FF8 PUSH0 DUP4 ADD DUP5 PUSH2 0x2FD6 JUMP JUMPDEST SWAP3 SWAP2 POP POP JUMP JUMPDEST PUSH0 DUP1 REVERT JUMPDEST PUSH0 DUP1 REVERT JUMPDEST PUSH32 0x4E487B7100000000000000000000000000000000000000000000000000000000 PUSH0 MSTORE PUSH1 0x41 PUSH1 0x4 MSTORE PUSH1 0x24 PUSH0 REVERT JUMPDEST PUSH2 0x303C DUP3 PUSH2 0x2D7F JUMP JUMPDEST DUP2 ADD DUP2 DUP2 LT PUSH8 0xFFFFFFFFFFFFFFFF DUP3 GT OR ISZERO PUSH2 0x305B JUMPI PUSH2 0x305A PUSH2 0x3006 JUMP JUMPDEST JUMPDEST DUP1 PUSH1 0x40 MSTORE POP POP POP JUMP JUMPDEST PUSH0 PUSH2 0x306D PUSH2 0x2DE7 JUMP JUMPDEST SWAP1 POP PUSH2 0x3079 DUP3 DUP3 PUSH2 0x3033 JUMP JUMPDEST SWAP2 SWAP1 POP JUMP JUMPDEST PUSH0 PUSH8 0xFFFFFFFFFFFFFFFF DUP3 GT ISZERO PUSH2 0x3098 JUMPI PUSH2 0x3097 PUSH2 0x3006 JUMP JUMPDEST JUMPDEST PUSH2 0x30A1 DUP3 PUSH2 0x2D7F JUMP JUMPDEST SWAP1 POP PUSH1 0x20 DUP2 ADD SWAP1 POP SWAP2 SWAP1 POP JUMP JUMPDEST DUP3 DUP2 DUP4 CALLDATACOPY PUSH0 DUP4 DUP4 ADD MSTORE POP POP POP JUMP JUMPDEST PUSH0 PUSH2 0x30CE PUSH2 0x30C9 DUP5 PUSH2 0x307E JUMP JUMPDEST PUSH2 0x3064 JUMP JUMPDEST SWAP1 POP DUP3 DUP2 MSTORE PUSH1 0x20 DUP2 ADD DUP5 DUP5 DUP5 ADD GT ISZERO PUSH2 0x30EA JUMPI PUSH2 0x30E9 PUSH2 0x3002 JUMP JUMPDEST JUMPDEST PUSH2 0x30F5 DUP5 DUP3 DUP6 PUSH2 0x30AE JUMP JUMPDEST POP SWAP4 SWAP3 POP POP POP JUMP JUMPDEST PUSH0 DUP3 PUSH1 0x1F DUP4 ADD SLT PUSH2 0x3111 JUMPI PUSH2 0x3110 PUSH2 0x2FFE JUMP JUMPDEST JUMPDEST DUP2 CALLDATALOAD PUSH2 0x3121 DUP5 DUP3 PUSH1 0x20 DUP7 ADD PUSH2 0x30BC JUMP JUMPDEST SWAP2 POP POP SWAP3 SWAP2 POP POP JUMP JUMPDEST PUSH0 DUP1 PUSH1 0x40 DUP4 DUP6 SUB SLT ISZERO PUSH2 0x3140 JUMPI PUSH2 0x313F PUSH2 0x2DF0 JUMP JUMPDEST JUMPDEST PUSH0 PUSH2 0x314D DUP6 DUP3 DUP7 ADD PUSH2 0x2E9C JUMP JUMPDEST SWAP3 POP POP PUSH1 0x20 DUP4 ADD CALLDATALOAD PUSH8 0xFFFFFFFFFFFFFFFF DUP2 GT ISZERO PUSH2 0x316E JUMPI PUSH2 0x316D PUSH2 0x2DF4 JUMP JUMPDEST JUMPDEST PUSH2 0x317A DUP6 DUP3 DUP7 ADD PUSH2 0x30FD JUMP JUMPDEST SWAP2 POP POP SWAP3 POP SWAP3 SWAP1 POP JUMP JUMPDEST PUSH0 PUSH1 0x20 DUP3 DUP5 SUB SLT ISZERO PUSH2 0x3199 JUMPI PUSH2 0x3198 PUSH2 0x2DF0 JUMP JUMPDEST JUMPDEST PUSH0 PUSH2 0x31A6 DUP5 DUP3 DUP6 ADD PUSH2 0x2E9C JUMP JUMPDEST SWAP2 POP POP SWAP3 SWAP2 POP POP JUMP JUMPDEST PUSH0 PUSH32 0xFF00000000000000000000000000000000000000000000000000000000000000 DUP3 AND SWAP1 POP SWAP2 SWAP1 POP JUMP JUMPDEST PUSH2 0x31E3 DUP2 PUSH2 0x31AF JUMP JUMPDEST DUP3 MSTORE POP POP JUMP JUMPDEST PUSH2 0x31F2 DUP2 PUSH2 0x2E75 JUMP JUMPDEST DUP3 MSTORE POP POP JUMP JUMPDEST PUSH0 DUP2 MLOAD SWAP1 POP SWAP2 SWAP1 POP JUMP JUMPDEST PUSH0 DUP3 DUP3 MSTORE PUSH1 0x20 DUP3 ADD SWAP1 POP SWAP3 SWAP2 POP POP JUMP JUMPDEST PUSH0 DUP2 SWAP1 POP PUSH1 0x20 DUP3 ADD SWAP1 POP SWAP2 SWAP1 POP JUMP JUMPDEST PUSH2 0x322A DUP2 PUSH2 0x2DF8 JUMP JUMPDEST DUP3 MSTORE POP POP JUMP JUMPDEST PUSH0 PUSH2 0x323B DUP4 DUP4 PUSH2 0x3221 JUMP JUMPDEST PUSH1 0x20 DUP4 ADD SWAP1 POP SWAP3 SWAP2 POP POP JUMP JUMPDEST PUSH0 PUSH1 0x20 DUP3 ADD SWAP1 POP SWAP2 SWAP1 POP JUMP JUMPDEST PUSH0 PUSH2 0x325D DUP3 PUSH2 0x31F8 JUMP JUMPDEST PUSH2 0x3267 DUP2 DUP6 PUSH2 0x3202 JUMP JUMPDEST SWAP4 POP PUSH2 0x3272 DUP4 PUSH2 0x3212 JUMP JUMPDEST DUP1 PUSH0 JUMPDEST DUP4 DUP2 LT ISZERO PUSH2 0x32A2 JUMPI DUP2 MLOAD PUSH2 0x3289 DUP9 DUP3 PUSH2 0x3230 JUMP JUMPDEST SWAP8 POP PUSH2 0x3294 DUP4 PUSH2 0x3247 JUMP JUMPDEST SWAP3 POP POP PUSH1 0x1 DUP2 ADD SWAP1 POP PUSH2 0x3275 JUMP JUMPDEST POP DUP6 SWAP4 POP POP POP POP SWAP3 SWAP2 POP POP JUMP JUMPDEST PUSH0 PUSH1 0xE0 DUP3 ADD SWAP1 POP PUSH2 0x32C2 PUSH0 DUP4 ADD DUP11 PUSH2 0x31DA JUMP JUMPDEST DUP2 DUP2 SUB PUSH1 0x20 DUP4 ADD MSTORE PUSH2 0x32D4 DUP2 DUP10 PUSH2 0x2D8F JUMP JUMPDEST SWAP1 POP DUP2 DUP2 SUB PUSH1 0x40 DUP4 ADD MSTORE PUSH2 0x32E8 DUP2 DUP9 PUSH2 0x2D8F JUMP JUMPDEST SWAP1 POP PUSH2 0x32F7 PUSH1 0x60 DUP4 ADD DUP8 PUSH2 0x2F21 JUMP JUMPDEST PUSH2 0x3304 PUSH1 0x80 DUP4 ADD DUP7 PUSH2 0x31E9 JUMP JUMPDEST PUSH2 0x3311 PUSH1 0xA0 DUP4 ADD DUP6 PUSH2 0x2FD6 JUMP JUMPDEST DUP2 DUP2 SUB PUSH1 0xC0 DUP4 ADD MSTORE PUSH2 0x3323 DUP2 DUP5 PUSH2 0x3253 JUMP JUMPDEST SWAP1 POP SWAP9 SWAP8 POP POP POP POP POP POP POP POP JUMP JUMPDEST PUSH0 PUSH1 0x20 DUP3 ADD SWAP1 POP PUSH2 0x3344 PUSH0 DUP4 ADD DUP5 PUSH2 0x31E9 JUMP JUMPDEST SWAP3 SWAP2 POP POP JUMP JUMPDEST PUSH2 0x3353 DUP2 PUSH2 0x2F99 JUMP JUMPDEST DUP2 EQ PUSH2 0x335D JUMPI PUSH0 DUP1 REVERT JUMPDEST POP JUMP JUMPDEST PUSH0 DUP2 CALLDATALOAD SWAP1 POP PUSH2 0x336E DUP2 PUSH2 0x334A JUMP JUMPDEST SWAP3 SWAP2 POP POP JUMP JUMPDEST PUSH2 0x337D DUP2 PUSH2 0x2FCD JUMP JUMPDEST DUP2 EQ PUSH2 0x3387 JUMPI PUSH0 DUP1 REVERT JUMPDEST POP JUMP JUMPDEST PUSH0 DUP2 CALLDATALOAD SWAP1 POP PUSH2 0x3398 DUP2 PUSH2 0x3374 JUMP JUMPDEST SWAP3 SWAP2 POP POP JUMP JUMPDEST PUSH0 DUP1 PUSH0 DUP1 PUSH0 DUP1 PUSH0 PUSH1 0xE0 DUP9 DUP11 SUB SLT ISZERO PUSH2 0x33B9 JUMPI PUSH2 0x33B8 PUSH2 0x2DF0 JUMP JUMPDEST JUMPDEST PUSH0 PUSH2 0x33C6 DUP11 DUP3 DUP12 ADD PUSH2 0x2E9C JUMP JUMPDEST SWAP8 POP POP PUSH1 0x20 PUSH2 0x33D7 DUP11 DUP3 DUP12 ADD PUSH2 0x2E9C JUMP JUMPDEST SWAP7 POP POP PUSH1 0x40 PUSH2 0x33E8 DUP11 DUP3 DUP12 ADD PUSH2 0x2E17 JUMP JUMPDEST SWAP6 POP POP PUSH1 0x60 PUSH2 0x33F9 DUP11 DUP3 DUP12 ADD PUSH2 0x2E17 JUMP JUMPDEST SWAP5 POP POP PUSH1 0x80 PUSH2 0x340A DUP11 DUP3 DUP12 ADD PUSH2 0x3360 JUMP JUMPDEST SWAP4 POP POP PUSH1 0xA0 PUSH2 0x341B DUP11 DUP3 DUP12 ADD PUSH2 0x338A JUMP JUMPDEST SWAP3 POP POP PUSH1 0xC0 PUSH2 0x342C DUP11 DUP3 DUP12 ADD PUSH2 0x338A JUMP JUMPDEST SWAP2 POP POP SWAP3 SWAP6 SWAP9 SWAP2 SWAP5 SWAP8 POP SWAP3 SWAP6 POP JUMP JUMPDEST PUSH0 DUP1 PUSH1 0x40 DUP4 DUP6 SUB SLT ISZERO PUSH2 0x3451 JUMPI PUSH2 0x3450 PUSH2 0x2DF0 JUMP JUMPDEST JUMPDEST PUSH0 PUSH2 0x345E DUP6 DUP3 DUP7 ADD PUSH2 0x2E9C JUMP JUMPDEST SWAP3 POP POP PUSH1 0x20 PUSH2 0x346F DUP6 DUP3 DUP7 ADD PUSH2 0x2E9C JUMP JUMPDEST SWAP2 POP POP SWAP3 POP SWAP3 SWAP1 POP JUMP JUMPDEST PUSH0 DUP2 SWAP1 POP SWAP2 SWAP1 POP JUMP JUMPDEST PUSH0 PUSH2 0x349C PUSH2 0x3497 PUSH2 0x3492 DUP5 PUSH2 0x2E56 JUMP JUMPDEST PUSH2 0x3479 JUMP JUMPDEST PUSH2 0x2E56 JUMP JUMPDEST SWAP1 POP SWAP2 SWAP1 POP JUMP JUMPDEST PUSH0 PUSH2 0x34AD DUP3 PUSH2 0x3482 JUMP JUMPDEST SWAP1 POP SWAP2 SWAP1 POP JUMP JUMPDEST PUSH0 PUSH2 0x34BE DUP3 PUSH2 0x34A3 JUMP JUMPDEST SWAP1 POP SWAP2 SWAP1 POP JUMP JUMPDEST PUSH2 0x34CE DUP2 PUSH2 0x34B4 JUMP JUMPDEST DUP3 MSTORE POP POP JUMP JUMPDEST PUSH0 PUSH1 0x20 DUP3 ADD SWAP1 POP PUSH2 0x34E7 PUSH0 DUP4 ADD DUP5 PUSH2 0x34C5 JUMP JUMPDEST SWAP3 SWAP2 POP POP JUMP JUMPDEST PUSH32 0x4E487B7100000000000000000000000000000000000000000000000000000000 PUSH0 MSTORE PUSH1 0x22 PUSH1 0x4 MSTORE PUSH1 0x24 PUSH0 REVERT JUMPDEST PUSH0 PUSH1 0x2 DUP3 DIV SWAP1 POP PUSH1 0x1 DUP3 AND DUP1 PUSH2 0x3531 JUMPI PUSH1 0x7F DUP3 AND SWAP2 POP JUMPDEST PUSH1 0x20 DUP3 LT DUP2 SUB PUSH2 0x3544 JUMPI PUSH2 0x3543 PUSH2 0x34ED JUMP JUMPDEST JUMPDEST POP SWAP2 SWAP1 POP JUMP JUMPDEST PUSH32 0x496E73756666696369656E742062616C616E636520696E207265736572766F69 PUSH0 DUP3 ADD MSTORE PUSH32 0x7200000000000000000000000000000000000000000000000000000000000000 PUSH1 0x20 DUP3 ADD MSTORE POP JUMP JUMPDEST PUSH0 PUSH2 0x35A4 PUSH1 0x21 DUP4 PUSH2 0x2D61 JUMP JUMPDEST SWAP2 POP PUSH2 0x35AF DUP3 PUSH2 0x354A JUMP JUMPDEST PUSH1 0x40 DUP3 ADD SWAP1 POP SWAP2 SWAP1 POP JUMP JUMPDEST PUSH0 PUSH1 0x20 DUP3 ADD SWAP1 POP DUP2 DUP2 SUB PUSH0 DUP4 ADD MSTORE PUSH2 0x35D1 DUP2 PUSH2 0x3598 JUMP JUMPDEST SWAP1 POP SWAP2 SWAP1 POP JUMP JUMPDEST PUSH32 0x4E487B7100000000000000000000000000000000000000000000000000000000 PUSH0 MSTORE PUSH1 0x11 PUSH1 0x4 MSTORE PUSH1 0x24 PUSH0 REVERT JUMPDEST PUSH0 PUSH2 0x360F DUP3 PUSH2 0x2DF8 JUMP JUMPDEST SWAP2 POP PUSH2 0x361A DUP4 PUSH2 0x2DF8 JUMP JUMPDEST SWAP3 POP DUP3 DUP3 ADD SWAP1 POP DUP1 DUP3 GT ISZERO PUSH2 0x3632 JUMPI PUSH2 0x3631 PUSH2 0x35D8 JUMP JUMPDEST JUMPDEST SWAP3 SWAP2 POP POP JUMP JUMPDEST PUSH32 0x4549503731323A20556E696E697469616C697A65640000000000000000000000 PUSH0 DUP3 ADD MSTORE POP JUMP JUMPDEST PUSH0 PUSH2 0x366C PUSH1 0x15 DUP4 PUSH2 0x2D61 JUMP JUMPDEST SWAP2 POP PUSH2 0x3677 DUP3 PUSH2 0x3638 JUMP JUMPDEST PUSH1 0x20 DUP3 ADD SWAP1 POP SWAP2 SWAP1 POP JUMP JUMPDEST PUSH0 PUSH1 0x20 DUP3 ADD SWAP1 POP DUP2 DUP2 SUB PUSH0 DUP4 ADD MSTORE PUSH2 0x3699 DUP2 PUSH2 0x3660 JUMP JUMPDEST SWAP1 POP SWAP2 SWAP1 POP JUMP JUMPDEST PUSH0 DUP2 PUSH1 0x1 SHR SWAP1 POP SWAP2 SWAP1 POP JUMP JUMPDEST PUSH0 DUP1 DUP3 SWAP2 POP DUP4 SWAP1 POP JUMPDEST PUSH1 0x1 DUP6 GT ISZERO PUSH2 0x36F5 JUMPI DUP1 DUP7 DIV DUP2 GT ISZERO PUSH2 0x36D1 JUMPI PUSH2 0x36D0 PUSH2 0x35D8 JUMP JUMPDEST JUMPDEST PUSH1 0x1 DUP6 AND ISZERO PUSH2 0x36E0 JUMPI DUP1 DUP3 MUL SWAP2 POP JUMPDEST DUP1 DUP2 MUL SWAP1 POP PUSH2 0x36EE DUP6 PUSH2 0x36A0 JUMP JUMPDEST SWAP5 POP PUSH2 0x36B5 JUMP JUMPDEST SWAP5 POP SWAP5 SWAP3 POP POP POP JUMP JUMPDEST PUSH0 DUP3 PUSH2 0x370D JUMPI PUSH1 0x1 SWAP1 POP PUSH2 0x37C8 JUMP JUMPDEST DUP2 PUSH2 0x371A JUMPI PUSH0 SWAP1 POP PUSH2 0x37C8 JUMP JUMPDEST DUP2 PUSH1 0x1 DUP2 EQ PUSH2 0x3730 JUMPI PUSH1 0x2 DUP2 EQ PUSH2 0x373A JUMPI PUSH2 0x3769 JUMP JUMPDEST PUSH1 0x1 SWAP2 POP POP PUSH2 0x37C8 JUMP JUMPDEST PUSH1 0xFF DUP5 GT ISZERO PUSH2 0x374C JUMPI PUSH2 0x374B PUSH2 0x35D8 JUMP JUMPDEST JUMPDEST DUP4 PUSH1 0x2 EXP SWAP2 POP DUP5 DUP3 GT ISZERO PUSH2 0x3763 JUMPI PUSH2 0x3762 PUSH2 0x35D8 JUMP JUMPDEST JUMPDEST POP PUSH2 0x37C8 JUMP JUMPDEST POP PUSH1 0x20 DUP4 LT PUSH2 0x133 DUP4 LT AND PUSH1 0x4E DUP5 LT PUSH1 0xB DUP5 LT AND OR ISZERO PUSH2 0x379E JUMPI DUP3 DUP3 EXP SWAP1 POP DUP4 DUP2 GT ISZERO PUSH2 0x3799 JUMPI PUSH2 0x3798 PUSH2 0x35D8 JUMP JUMPDEST JUMPDEST PUSH2 0x37C8 JUMP JUMPDEST PUSH2 0x37AB DUP5 DUP5 DUP5 PUSH1 0x1 PUSH2 0x36AC JUMP JUMPDEST SWAP3 POP SWAP1 POP DUP2 DUP5 DIV DUP2 GT ISZERO PUSH2 0x37C2 JUMPI PUSH2 0x37C1 PUSH2 0x35D8 JUMP JUMPDEST JUMPDEST DUP2 DUP2 MUL SWAP1 POP JUMPDEST SWAP4 SWAP3 POP POP POP JUMP JUMPDEST PUSH0 PUSH2 0x37D9 DUP3 PUSH2 0x2DF8 JUMP JUMPDEST SWAP2 POP PUSH2 0x37E4 DUP4 PUSH2 0x2DF8 JUMP JUMPDEST SWAP3 POP PUSH2 0x3811 PUSH32 0xFFFFFFFFFFFFFFFFFFFFFFFFFFFFFFFFFFFFFFFFFFFFFFFFFFFFFFFFFFFFFFFF DUP5 DUP5 PUSH2 0x36FE JUMP JUMPDEST SWAP1 POP SWAP3 SWAP2 POP POP JUMP JUMPDEST PUSH0 PUSH2 0x3823 DUP3 PUSH2 0x2DF8 JUMP JUMPDEST SWAP2 POP PUSH2 0x382E DUP4 PUSH2 0x2DF8 JUMP JUMPDEST SWAP3 POP DUP3 DUP3 MUL PUSH2 0x383C DUP2 PUSH2 0x2DF8 JUMP JUMPDEST SWAP2 POP DUP3 DUP3 DIV DUP5 EQ DUP4 ISZERO OR PUSH2 0x3853 JUMPI PUSH2 0x3852 PUSH2 0x35D8 JUMP JUMPDEST JUMPDEST POP SWAP3 SWAP2 POP POP JUMP JUMPDEST PUSH0 PUSH1 0x40 DUP3 ADD SWAP1 POP PUSH2 0x386D PUSH0 DUP4 ADD DUP6 PUSH2 0x31E9 JUMP JUMPDEST PUSH2 0x387A PUSH1 0x20 DUP4 ADD DUP5 PUSH2 0x2F21 JUMP JUMPDEST SWAP4 SWAP3 POP POP POP JUMP JUMPDEST PUSH0 DUP2 SWAP1 POP SWAP2 SWAP1 POP JUMP JUMPDEST PUSH0 PUSH8 0xFFFFFFFFFFFFFFFF DUP3 AND SWAP1 POP SWAP2 SWAP1 POP JUMP JUMPDEST PUSH0 PUSH2 0x38B7 PUSH2 0x38B2 PUSH2 0x38AD DUP5 PUSH2 0x3881 JUMP JUMPDEST PUSH2 0x3479 JUMP JUMPDEST PUSH2 0x388A JUMP JUMPDEST SWAP1 POP SWAP2 SWAP1 POP JUMP JUMPDEST PUSH2 0x38C7 DUP2 PUSH2 0x389D JUMP JUMPDEST DUP3 MSTORE POP POP JUMP JUMPDEST PUSH0 PUSH1 0x20 DUP3 ADD SWAP1 POP PUSH2 0x38E0 PUSH0 DUP4 ADD DUP5 PUSH2 0x38BE JUMP JUMPDEST SWAP3 SWAP2 POP POP JUMP JUMPDEST PUSH0 PUSH1 0xC0 DUP3 ADD SWAP1 POP PUSH2 0x38F9 PUSH0 DUP4 ADD DUP10 PUSH2 0x2FD6 JUMP JUMPDEST PUSH2 0x3906 PUSH1 0x20 DUP4 ADD DUP9 PUSH2 0x31E9 JUMP JUMPDEST PUSH2 0x3913 PUSH1 0x40 DUP4 ADD DUP8 PUSH2 0x31E9 JUMP JUMPDEST PUSH2 0x3920 PUSH1 0x60 DUP4 ADD DUP7 PUSH2 0x2F21 JUMP JUMPDEST PUSH2 0x392D PUSH1 0x80 DUP4 ADD DUP6 PUSH2 0x2F21 JUMP JUMPDEST PUSH2 0x393A PUSH1 0xA0 DUP4 ADD DUP5 PUSH2 0x2F21 JUMP JUMPDEST SWAP8 SWAP7 POP POP POP POP POP POP POP JUMP JUMPDEST PUSH0 PUSH1 0x40 DUP3 ADD SWAP1 POP PUSH2 0x3958 PUSH0 DUP4 ADD DUP6 PUSH2 0x31E9 JUMP JUMPDEST PUSH2 0x3965 PUSH1 0x20 DUP4 ADD DUP5 PUSH2 0x31E9 JUMP JUMPDEST SWAP4 SWAP3 POP POP POP JUMP JUMPDEST PUSH0 PUSH1 0x60 DUP3 ADD SWAP1 POP PUSH2 0x397F PUSH0 DUP4 ADD DUP7 PUSH2 0x31E9 JUMP JUMPDEST PUSH2 0x398C PUSH1 0x20 DUP4 ADD DUP6 PUSH2 0x2F21 JUMP JUMPDEST PUSH2 0x3999 PUSH1 0x40 DUP4 ADD DUP5 PUSH2 0x2F21 JUMP JUMPDEST SWAP5 SWAP4 POP POP POP POP JUMP JUMPDEST PUSH0 DUP2 MLOAD SWAP1 POP PUSH2 0x39AF DUP2 PUSH2 0x3374 JUMP JUMPDEST SWAP3 SWAP2 POP POP JUMP JUMPDEST PUSH0 PUSH1 0x20 DUP3 DUP5 SUB SLT ISZERO PUSH2 0x39CA JUMPI PUSH2 0x39C9 PUSH2 0x2DF0 JUMP JUMPDEST JUMPDEST PUSH0 PUSH2 0x39D7 DUP5 DUP3 DUP6 ADD PUSH2 0x39A1 JUMP JUMPDEST SWAP2 POP POP SWAP3 SWAP2 POP POP JUMP JUMPDEST PUSH2 0x39E9 DUP2 PUSH2 0x388A JUMP JUMPDEST DUP3 MSTORE POP POP JUMP JUMPDEST PUSH0 PUSH1 0x20 DUP3 ADD SWAP1 POP PUSH2 0x3A02 PUSH0 DUP4 ADD DUP5 PUSH2 0x39E0 JUMP JUMPDEST SWAP3 SWAP2 POP POP JUMP JUMPDEST PUSH32 0x45524332305061757361626C653A20746F6B656E207472616E73666572207768 PUSH0 DUP3 ADD MSTORE PUSH32 0x696C652070617573656400000000000000000000000000000000000000000000 PUSH1 0x20 DUP3 ADD MSTORE POP JUMP JUMPDEST PUSH0 PUSH2 0x3A62 PUSH1 0x2A DUP4 PUSH2 0x2D61 JUMP JUMPDEST SWAP2 POP PUSH2 0x3A6D DUP3 PUSH2 0x3A08 JUMP JUMPDEST PUSH1 0x40 DUP3 ADD SWAP1 POP SWAP2 SWAP1 POP JUMP JUMPDEST PUSH0 PUSH1 0x20 DUP3 ADD SWAP1 POP DUP2 DUP2 SUB PUSH0 DUP4 ADD MSTORE PUSH2 0x3A8F DUP2 PUSH2 0x3A56 JUMP JUMPDEST SWAP1 POP SWAP2 SWAP1 POP JUMP JUMPDEST PUSH0 PUSH1 0xA0 DUP3 ADD SWAP1 POP PUSH2 0x3AA9 PUSH0 DUP4 ADD DUP9 PUSH2 0x2FD6 JUMP JUMPDEST PUSH2 0x3AB6 PUSH1 0x20 DUP4 ADD DUP8 PUSH2 0x2FD6 JUMP JUMPDEST PUSH2 0x3AC3 PUSH1 0x40 DUP4 ADD DUP7 PUSH2 0x2FD6 JUMP JUMPDEST PUSH2 0x3AD0 PUSH1 0x60 DUP4 ADD DUP6 PUSH2 0x2F21 JUMP JUMPDEST PUSH2 0x3ADD PUSH1 0x80 DUP4 ADD DUP5 PUSH2 0x31E9 JUMP JUMPDEST SWAP7 SWAP6 POP POP POP POP POP POP JUMP JUMPDEST PUSH0 DUP2 SWAP1 POP DUP2 PUSH0 MSTORE PUSH1 0x20 PUSH0 KECCAK256 SWAP1 POP SWAP2 SWAP1 POP JUMP JUMPDEST PUSH0 PUSH1 0x20 PUSH1 0x1F DUP4 ADD DIV SWAP1 POP SWAP2 SWAP1 POP JUMP JUMPDEST PUSH0 DUP3 DUP3 SHL SWAP1 POP SWAP3 SWAP2 POP POP JUMP JUMPDEST PUSH0 PUSH1 0x8 DUP4 MUL PUSH2 0x3B43 PUSH32 0xFFFFFFFFFFFFFFFFFFFFFFFFFFFFFFFFFFFFFFFFFFFFFFFFFFFFFFFFFFFFFFFF DUP3 PUSH2 0x3B08 JUMP JUMPDEST PUSH2 0x3B4D DUP7 DUP4 PUSH2 0x3B08 JUMP JUMPDEST SWAP6 POP DUP1 NOT DUP5 AND SWAP4 POP DUP1 DUP7 AND DUP5 OR SWAP3 POP POP POP SWAP4 SWAP3 POP POP POP JUMP JUMPDEST PUSH0 PUSH2 0x3B7F PUSH2 0x3B7A PUSH2 0x3B75 DUP5 PUSH2 0x2DF8 JUMP JUMPDEST PUSH2 0x3479 JUMP JUMPDEST PUSH2 0x2DF8 JUMP JUMPDEST SWAP1 POP SWAP2 SWAP1 POP JUMP JUMPDEST PUSH0 DUP2 SWAP1 POP SWAP2 SWAP1 POP JUMP JUMPDEST PUSH2 0x3B98 DUP4 PUSH2 0x3B65 JUMP JUMPDEST PUSH2 0x3BAC PUSH2 0x3BA4 DUP3 PUSH2 0x3B86 JUMP JUMPDEST DUP5 DUP5 SLOAD PUSH2 0x3B14 JUMP JUMPDEST DUP3 SSTORE POP POP POP POP JUMP JUMPDEST PUSH0 SWAP1 JUMP JUMPDEST PUSH2 0x3BC0 PUSH2 0x3BB4 JUMP JUMPDEST PUSH2 0x3BCB DUP2 DUP5 DUP5 PUSH2 0x3B8F JUMP JUMPDEST POP POP POP JUMP JUMPDEST JUMPDEST DUP2 DUP2 LT ISZERO PUSH2 0x3BEE JUMPI PUSH2 0x3BE3 PUSH0 DUP3 PUSH2 0x3BB8 JUMP JUMPDEST PUSH1 0x1 DUP2 ADD SWAP1 POP PUSH2 0x3BD1 JUMP JUMPDEST POP POP JUMP JUMPDEST PUSH1 0x1F DUP3 GT ISZERO PUSH2 0x3C33 JUMPI PUSH2 0x3C04 DUP2 PUSH2 0x3AE7 JUMP JUMPDEST PUSH2 0x3C0D DUP5 PUSH2 0x3AF9 JUMP JUMPDEST DUP2 ADD PUSH1 0x20 DUP6 LT ISZERO PUSH2 0x3C1C JUMPI DUP2 SWAP1 POP JUMPDEST PUSH2 0x3C30 PUSH2 0x3C28 DUP6 PUSH2 0x3AF9 JUMP JUMPDEST DUP4 ADD DUP3 PUSH2 0x3BD0 JUMP JUMPDEST POP POP JUMPDEST POP POP POP JUMP JUMPDEST PUSH0 DUP3 DUP3 SHR SWAP1 POP SWAP3 SWAP2 POP POP JUMP JUMPDEST PUSH0 PUSH2 0x3C53 PUSH0 NOT DUP5 PUSH1 0x8 MUL PUSH2 0x3C38 JUMP JUMPDEST NOT DUP1 DUP4 AND SWAP2 POP POP SWAP3 SWAP2 POP POP JUMP JUMPDEST PUSH0 PUSH2 0x3C6B DUP4 DUP4 PUSH2 0x3C44 JUMP JUMPDEST SWAP2 POP DUP3 PUSH1 0x2 MUL DUP3 OR SWAP1 POP SWAP3 SWAP2 POP POP JUMP JUMPDEST PUSH2 0x3C84 DUP3 PUSH2 0x2D57 JUMP JUMPDEST PUSH8 0xFFFFFFFFFFFFFFFF DUP2 GT ISZERO PUSH2 0x3C9D JUMPI PUSH2 0x3C9C PUSH2 0x3006 JUMP JUMPDEST JUMPDEST PUSH2 0x3CA7 DUP3 SLOAD PUSH2 0x351A JUMP JUMPDEST PUSH2 0x3CB2 DUP3 DUP3 DUP6 PUSH2 0x3BF2 JUMP JUMPDEST PUSH0 PUSH1 0x20 SWAP1 POP PUSH1 0x1F DUP4 GT PUSH1 0x1 DUP2 EQ PUSH2 0x3CE3 JUMPI PUSH0 DUP5 ISZERO PUSH2 0x3CD1 JUMPI DUP3 DUP8 ADD MLOAD SWAP1 POP JUMPDEST PUSH2 0x3CDB DUP6 DUP3 PUSH2 0x3C60 JUMP JUMPDEST DUP7 SSTORE POP PUSH2 0x3D42 JUMP JUMPDEST PUSH1 0x1F NOT DUP5 AND PUSH2 0x3CF1 DUP7 PUSH2 0x3AE7 JUMP JUMPDEST PUSH0 JUMPDEST DUP3 DUP2 LT ISZERO PUSH2 0x3D18 JUMPI DUP5 DUP10 ADD MLOAD DUP3 SSTORE PUSH1 0x1 DUP3 ADD SWAP2 POP PUSH1 0x20 DUP6 ADD SWAP5 POP PUSH1 0x20 DUP2 ADD SWAP1 POP PUSH2 0x3CF3 JUMP JUMPDEST DUP7 DUP4 LT ISZERO PUSH2 0x3D35 JUMPI DUP5 DUP10 ADD MLOAD PUSH2 0x3D31 PUSH1 0x1F DUP10 AND DUP3 PUSH2 0x3C44 JUMP JUMPDEST DUP4 SSTORE POP JUMPDEST PUSH1 0x1 PUSH1 0x2 DUP9 MUL ADD DUP9 SSTORE POP POP POP JUMPDEST POP POP POP POP POP POP JUMP JUMPDEST PUSH0 PUSH1 0x80 DUP3 ADD SWAP1 POP PUSH2 0x3D5D PUSH0 DUP4 ADD DUP8 PUSH2 0x2FD6 JUMP JUMPDEST PUSH2 0x3D6A PUSH1 0x20 DUP4 ADD DUP7 PUSH2 0x2FA5 JUMP JUMPDEST PUSH2 0x3D77 PUSH1 0x40 DUP4 ADD DUP6 PUSH2 0x2FD6 JUMP JUMPDEST PUSH2 0x3D84 PUSH1 0x60 DUP4 ADD DUP5 PUSH2 0x2FD6 JUMP JUMPDEST SWAP6 SWAP5 POP POP POP POP POP JUMP JUMPDEST PUSH32 0x4E487B7100000000000000000000000000000000000000000000000000000000 PUSH0 MSTORE PUSH1 0x21 PUSH1 0x4 MSTORE PUSH1 0x24 PUSH0 REVERT JUMPDEST PUSH0 DUP2 MLOAD SWAP1 POP SWAP2 SWAP1 POP JUMP JUMPDEST PUSH0 DUP2 SWAP1 POP SWAP3 SWAP2 POP POP JUMP JUMPDEST PUSH0 PUSH2 0x3DD8 DUP3 PUSH2 0x3DBA JUMP JUMPDEST PUSH2 0x3DE2 DUP2 DUP6 PUSH2 0x3DC4 JUMP JUMPDEST SWAP4 POP PUSH2 0x3DF2 DUP2 DUP6 PUSH1 0x20 DUP7 ADD PUSH2 0x2D71 JUMP JUMPDEST DUP1 DUP5 ADD SWAP2 POP POP SWAP3 SWAP2 POP POP JUMP JUMPDEST PUSH0 PUSH2 0x3E09 DUP3 DUP5 PUSH2 0x3DCE JUMP JUMPDEST SWAP2 POP DUP2 SWAP1 POP SWAP3 SWAP2 POP POP JUMP INVALID PUSH1 0x80 PUSH1 0x40 MSTORE CALLVALUE DUP1 ISZERO PUSH2 0xF JUMPI PUSH0 DUP1 REVERT JUMPDEST POP PUSH1 0x40 MLOAD PUSH2 0x6D1 CODESIZE SUB DUP1 PUSH2 0x6D1 DUP4 CODECOPY DUP2 DUP2 ADD PUSH1 0x40 MSTORE DUP2 ADD SWAP1 PUSH2 0x31 SWAP2 SWAP1 PUSH2 0x10F JUMP JUMPDEST DUP2 PUSH0 DUP1 PUSH2 0x100 EXP DUP2 SLOAD DUP2 PUSH20 0xFFFFFFFFFFFFFFFFFFFFFFFFFFFFFFFFFFFFFFFF MUL NOT AND SWAP1 DUP4 PUSH20 0xFFFFFFFFFFFFFFFFFFFFFFFFFFFFFFFFFFFFFFFF AND MUL OR SWAP1 SSTORE POP DUP1 PUSH1 0x2 DUP2 SWAP1 SSTORE POP POP POP PUSH2 0x14D JUMP JUMPDEST PUSH0 DUP1 REVERT JUMPDEST PUSH0 PUSH20 0xFFFFFFFFFFFFFFFFFFFFFFFFFFFFFFFFFFFFFFFF DUP3 AND SWAP1 POP SWAP2 SWAP1 POP JUMP JUMPDEST PUSH0 PUSH2 0xAB DUP3 PUSH2 0x82 JUMP JUMPDEST SWAP1 POP SWAP2 SWAP1 POP JUMP JUMPDEST PUSH2 0xBB DUP2 PUSH2 0xA1 JUMP JUMPDEST DUP2 EQ PUSH2 0xC5 JUMPI PUSH0 DUP1 REVERT JUMPDEST POP JUMP JUMPDEST PUSH0 DUP2 MLOAD SWAP1 POP PUSH2 0xD6 DUP2 PUSH2 0xB2 JUMP JUMPDEST SWAP3 SWAP2 POP POP JUMP JUMPDEST PUSH0 DUP2 SWAP1 POP SWAP2 SWAP1 POP JUMP JUMPDEST PUSH2 0xEE DUP2 PUSH2 0xDC JUMP JUMPDEST DUP2 EQ PUSH2 0xF8 JUMPI PUSH0 DUP1 REVERT JUMPDEST POP JUMP JUMPDEST PUSH0 DUP2 MLOAD SWAP1 POP PUSH2 0x109 DUP2 PUSH2 0xE5 JUMP JUMPDEST SWAP3 SWAP2 POP POP JUMP JUMPDEST PUSH0 DUP1 PUSH1 0x40 DUP4 DUP6 SUB SLT ISZERO PUSH2 0x125 JUMPI PUSH2 0x124 PUSH2 0x7E JUMP JUMPDEST JUMPDEST PUSH0 PUSH2 0x132 DUP6 DUP3 DUP7 ADD PUSH2 0xC8 JUMP JUMPDEST SWAP3 POP POP PUSH1 0x20 PUSH2 0x143 DUP6 DUP3 DUP7 ADD PUSH2 0xFB JUMP JUMPDEST SWAP2 POP POP SWAP3 POP SWAP3 SWAP1 POP JUMP JUMPDEST PUSH2 0x577 DUP1 PUSH2 0x15A PUSH0 CODECOPY PUSH0 RETURN INVALID PUSH1 0x80 PUSH1 0x40 MSTORE CALLVALUE DUP1 ISZERO PUSH2 0xF JUMPI PUSH0 DUP1 REVERT JUMPDEST POP PUSH1 0x4 CALLDATASIZE LT PUSH2 0x55 JUMPI PUSH0 CALLDATALOAD PUSH1 0xE0 SHR DUP1 PUSH4 0x1F4894B1 EQ PUSH2 0x59 JUMPI DUP1 PUSH4 0xA8A65A78 EQ PUSH2 0x89 JUMPI DUP1 PUSH4 0xF12182A6 EQ PUSH2 0xA5 JUMPI DUP1 PUSH4 0xF4EA77F3 EQ PUSH2 0xC1 JUMPI DUP1 PUSH4 0xF7B2A7BE EQ PUSH2 0xDF JUMPI JUMPDEST PUSH0 DUP1 REVERT JUMPDEST PUSH2 0x73 PUSH1 0x4 DUP1 CALLDATASIZE SUB DUP2 ADD SWAP1 PUSH2 0x6E SWAP2 SWAP1 PUSH2 0x315 JUMP JUMPDEST PUSH2 0xFD JUMP JUMPDEST PUSH1 0x40 MLOAD PUSH2 0x80 SWAP2 SWAP1 PUSH2 0x35A JUMP JUMPDEST PUSH1 0x40 MLOAD DUP1 SWAP2 SUB SWAP1 RETURN JUMPDEST PUSH2 0xA3 PUSH1 0x4 DUP1 CALLDATASIZE SUB DUP2 ADD SWAP1 PUSH2 0x9E SWAP2 SWAP1 PUSH2 0x3A6 JUMP JUMPDEST PUSH2 0x11A JUMP JUMPDEST STOP JUMPDEST PUSH2 0xBF PUSH1 0x4 DUP1 CALLDATASIZE SUB DUP2 ADD SWAP1 PUSH2 0xBA SWAP2 SWAP1 PUSH2 0x315 JUMP JUMPDEST PUSH2 0x124 JUMP JUMPDEST STOP JUMPDEST PUSH2 0xC9 PUSH2 0x28E JUMP JUMPDEST PUSH1 0x40 MLOAD PUSH2 0xD6 SWAP2 SWAP1 PUSH2 0x42C JUMP JUMPDEST PUSH1 0x40 MLOAD DUP1 SWAP2 SUB SWAP1 RETURN JUMPDEST PUSH2 0xE7 PUSH2 0x2B1 JUMP JUMPDEST PUSH1 0x40 MLOAD PUSH2 0xF4 SWAP2 SWAP1 PUSH2 0x454 JUMP JUMPDEST PUSH1 0x40 MLOAD DUP1 SWAP2 SUB SWAP1 RETURN JUMPDEST PUSH1 0x1 PUSH1 0x20 MSTORE DUP1 PUSH0 MSTORE PUSH1 0x40 PUSH0 KECCAK256 PUSH0 SWAP2 POP SLOAD SWAP1 PUSH2 0x100 EXP SWAP1 DIV PUSH1 0xFF AND DUP2 JUMP JUMPDEST DUP1 PUSH1 0x2 DUP2 SWAP1 SSTORE POP POP JUMP JUMPDEST PUSH1 0x1 PUSH0 DUP3 PUSH20 0xFFFFFFFFFFFFFFFFFFFFFFFFFFFFFFFFFFFFFFFF AND PUSH20 0xFFFFFFFFFFFFFFFFFFFFFFFFFFFFFFFFFFFFFFFF AND DUP2 MSTORE PUSH1 0x20 ADD SWAP1 DUP2 MSTORE PUSH1 0x20 ADD PUSH0 KECCAK256 PUSH0 SWAP1 SLOAD SWAP1 PUSH2 0x100 EXP SWAP1 DIV PUSH1 0xFF AND ISZERO PUSH2 0x1AE JUMPI PUSH1 0x40 MLOAD PUSH32 0x8C379A000000000000000000000000000000000000000000000000000000000 DUP2 MSTORE PUSH1 0x4 ADD PUSH2 0x1A5 SWAP1 PUSH2 0x4ED JUMP JUMPDEST PUSH1 0x40 MLOAD DUP1 SWAP2 SUB SWAP1 REVERT JUMPDEST PUSH1 0x1 DUP1 PUSH0 DUP4 PUSH20 0xFFFFFFFFFFFFFFFFFFFFFFFFFFFFFFFFFFFFFFFF AND PUSH20 0xFFFFFFFFFFFFFFFFFFFFFFFFFFFFFFFFFFFFFFFF AND DUP2 MSTORE PUSH1 0x20 ADD SWAP1 DUP2 MSTORE PUSH1 0x20 ADD PUSH0 KECCAK256 PUSH0 PUSH2 0x100 EXP DUP2 SLOAD DUP2 PUSH1 0xFF MUL NOT AND SWAP1 DUP4 ISZERO ISZERO MUL OR SWAP1 SSTORE POP PUSH0 DUP1 SLOAD SWAP1 PUSH2 0x100 EXP SWAP1 DIV PUSH20 0xFFFFFFFFFFFFFFFFFFFFFFFFFFFFFFFFFFFFFFFF AND PUSH20 0xFFFFFFFFFFFFFFFFFFFFFFFFFFFFFFFFFFFFFFFF AND PUSH4 0xCA634519 DUP3 PUSH1 0x2 SLOAD PUSH1 0x40 MLOAD DUP4 PUSH4 0xFFFFFFFF AND PUSH1 0xE0 SHL DUP2 MSTORE PUSH1 0x4 ADD PUSH2 0x25E SWAP3 SWAP2 SWAP1 PUSH2 0x51A JUMP JUMPDEST PUSH0 PUSH1 0x40 MLOAD DUP1 DUP4 SUB DUP2 PUSH0 DUP8 DUP1 EXTCODESIZE ISZERO DUP1 ISZERO PUSH2 0x275 JUMPI PUSH0 DUP1 REVERT JUMPDEST POP GAS CALL ISZERO DUP1 ISZERO PUSH2 0x287 JUMPI RETURNDATASIZE PUSH0 DUP1 RETURNDATACOPY RETURNDATASIZE PUSH0 REVERT JUMPDEST POP POP POP POP POP JUMP JUMPDEST PUSH0 DUP1 SLOAD SWAP1 PUSH2 0x100 EXP SWAP1 DIV PUSH20 0xFFFFFFFFFFFFFFFFFFFFFFFFFFFFFFFFFFFFFFFF AND DUP2 JUMP JUMPDEST PUSH1 0x2 SLOAD DUP2 JUMP JUMPDEST PUSH0 DUP1 REVERT JUMPDEST PUSH0 PUSH20 0xFFFFFFFFFFFFFFFFFFFFFFFFFFFFFFFFFFFFFFFF DUP3 AND SWAP1 POP SWAP2 SWAP1 POP JUMP JUMPDEST PUSH0 PUSH2 0x2E4 DUP3 PUSH2 0x2BB JUMP JUMPDEST SWAP1 POP SWAP2 SWAP1 POP JUMP JUMPDEST PUSH2 0x2F4 DUP2 PUSH2 0x2DA JUMP JUMPDEST DUP2 EQ PUSH2 0x2FE JUMPI PUSH0 DUP1 REVERT JUMPDEST POP JUMP JUMPDEST PUSH0 DUP2 CALLDATALOAD SWAP1 POP PUSH2 0x30F DUP2 PUSH2 0x2EB JUMP JUMPDEST SWAP3 SWAP2 POP POP JUMP JUMPDEST PUSH0 PUSH1 0x20 DUP3 DUP5 SUB SLT ISZERO PUSH2 0x32A JUMPI PUSH2 0x329 PUSH2 0x2B7 JUMP JUMPDEST JUMPDEST PUSH0 PUSH2 0x337 DUP5 DUP3 DUP6 ADD PUSH2 0x301 JUMP JUMPDEST SWAP2 POP POP SWAP3 SWAP2 POP POP JUMP JUMPDEST PUSH0 DUP2 ISZERO ISZERO SWAP1 POP SWAP2 SWAP1 POP JUMP JUMPDEST PUSH2 0x354 DUP2 PUSH2 0x340 JUMP JUMPDEST DUP3 MSTORE POP POP JUMP JUMPDEST PUSH0 PUSH1 0x20 DUP3 ADD SWAP1 POP PUSH2 0x36D PUSH0 DUP4 ADD DUP5 PUSH2 0x34B JUMP JUMPDEST SWAP3 SWAP2 POP POP JUMP JUMPDEST PUSH0 DUP2 SWAP1 POP SWAP2 SWAP1 POP JUMP JUMPDEST PUSH2 0x385 DUP2 PUSH2 0x373 JUMP JUMPDEST DUP2 EQ PUSH2 0x38F JUMPI PUSH0 DUP1 REVERT JUMPDEST POP JUMP JUMPDEST PUSH0 DUP2 CALLDATALOAD SWAP1 POP PUSH2 0x3A0 DUP2 PUSH2 0x37C JUMP JUMPDEST SWAP3 SWAP2 POP POP JUMP JUMPDEST PUSH0 PUSH1 0x20 DUP3 DUP5 SUB SLT ISZERO PUSH2 0x3BB JUMPI PUSH2 0x3BA PUSH2 0x2B7 JUMP JUMPDEST JUMPDEST PUSH0 PUSH2 0x3C8 DUP5 DUP3 DUP6 ADD PUSH2 0x392 JUMP JUMPDEST SWAP2 POP POP SWAP3 SWAP2 POP POP JUMP JUMPDEST PUSH0 DUP2 SWAP1 POP SWAP2 SWAP1 POP JUMP JUMPDEST PUSH0 PUSH2 0x3F4 PUSH2 0x3EF PUSH2 0x3EA DUP5 PUSH2 0x2BB JUMP JUMPDEST PUSH2 0x3D1 JUMP JUMPDEST PUSH2 0x2BB JUMP JUMPDEST SWAP1 POP SWAP2 SWAP1 POP JUMP JUMPDEST PUSH0 PUSH2 0x405 DUP3 PUSH2 0x3DA JUMP JUMPDEST SWAP1 POP SWAP2 SWAP1 POP JUMP JUMPDEST PUSH0 PUSH2 0x416 DUP3 PUSH2 0x3FB JUMP JUMPDEST SWAP1 POP SWAP2 SWAP1 POP JUMP JUMPDEST PUSH2 0x426 DUP2 PUSH2 0x40C JUMP JUMPDEST DUP3 MSTORE POP POP JUMP JUMPDEST PUSH0 PUSH1 0x20 DUP3 ADD SWAP1 POP PUSH2 0x43F PUSH0 DUP4 ADD DUP5 PUSH2 0x41D JUMP JUMPDEST SWAP3 SWAP2 POP POP JUMP JUMPDEST PUSH2 0x44E DUP2 PUSH2 0x373 JUMP JUMPDEST DUP3 MSTORE POP POP JUMP JUMPDEST PUSH0 PUSH1 0x20 DUP3 ADD SWAP1 POP PUSH2 0x467 PUSH0 DUP4 ADD DUP5 PUSH2 0x445 JUMP JUMPDEST SWAP3 SWAP2 POP POP JUMP JUMPDEST PUSH0 DUP3 DUP3 MSTORE PUSH1 0x20 DUP3 ADD SWAP1 POP SWAP3 SWAP2 POP POP JUMP JUMPDEST PUSH32 0x417474656E6465652068617320616C7265616479206265656E20726577617264 PUSH0 DUP3 ADD MSTORE PUSH32 0x6564000000000000000000000000000000000000000000000000000000000000 PUSH1 0x20 DUP3 ADD MSTORE POP JUMP JUMPDEST PUSH0 PUSH2 0x4D7 PUSH1 0x22 DUP4 PUSH2 0x46D JUMP JUMPDEST SWAP2 POP PUSH2 0x4E2 DUP3 PUSH2 0x47D JUMP JUMPDEST PUSH1 0x40 DUP3 ADD SWAP1 POP SWAP2 SWAP1 POP JUMP JUMPDEST PUSH0 PUSH1 0x20 DUP3 ADD SWAP1 POP DUP2 DUP2 SUB PUSH0 DUP4 ADD MSTORE PUSH2 0x504 DUP2 PUSH2 0x4CB JUMP JUMPDEST SWAP1 POP SWAP2 SWAP1 POP JUMP JUMPDEST PUSH2 0x514 DUP2 PUSH2 0x2DA JUMP JUMPDEST DUP3 MSTORE POP POP JUMP JUMPDEST PUSH0 PUSH1 0x40 DUP3 ADD SWAP1 POP PUSH2 0x52D PUSH0 DUP4 ADD DUP6 PUSH2 0x50B JUMP JUMPDEST PUSH2 0x53A PUSH1 0x20 DUP4 ADD DUP5 PUSH2 0x445 JUMP JUMPDEST SWAP4 SWAP3 POP POP POP JUMP INVALID LOG2 PUSH5 0x6970667358 0x22 SLT KECCAK256 0xB0 PUSH15 0xB081F154F68922B9749A96C9669892 PUSH17 0x493AD893A74B97F881A136BB106064736F PUSH13 0x63430008190033A26469706673 PC 0x22 SLT KECCAK256 DELEGATECALL STOP 0xCE PUSH15 0xB8EC151849D2FFB9747F3AE9E97295 JUMPDEST MULMOD 0xD1 JUMP 0xB6 0xF8 TIMESTAMP PUSH11 0x16026F6D3964736F6C6343 STOP ADDMOD NOT STOP CALLER "
		},
		"gasEstimates": {
			"creation": {
				"codeDepositCost": "3538200",
				"executionCost": "infinite",
				"totalCost": "infinite"
			},
			"external": {
				"DOMAIN_SEPARATOR()": "infinite",
				"UPGRADE_INTERFACE_VERSION()": "infinite",
				"allowance(address,address)": "infinite",
				"approve(address,uint256)": "infinite",
				"balanceOf(address)": "2927",
				"burn(uint256)": "infinite",
				"burnFrom(address,uint256)": "infinite",
				"decimals()": "450",
				"eip712Domain()": "infinite",
				"eventRewards()": "infinite",
				"fundEventRewards(uint256)": "infinite",
				"initialize(address)": "infinite",
				"lifetimeEarnings(address)": "2913",
				"mint(address,uint256)": "infinite",
				"name()": "infinite",
				"nonces(address)": "3035",
				"owner()": "2656",
				"pause()": "infinite",
				"paused()": "2614",
				"permit(address,address,uint256,uint256,uint8,bytes32,bytes32)": "infinite",
				"proxiableUUID()": "infinite",
				"renounceOwnership()": "infinite",
				"rewardAttendance(address)": "infinite",
				"symbol()": "infinite",
				"totalSupply()": "2531",
				"transfer(address,uint256)": "infinite",
				"transferFrom(address,address,uint256)": "infinite",
				"transferOwnership(address)": "infinite",
				"unpause()": "infinite",
				"updateActivity()": "22411",
				"upgradeToAndCall(address,bytes)": "infinite"
			},
			"internal": {
				"_authorizeUpgrade(address)": "infinite",
				"_update(address,address,uint256)": "infinite"
			}
		},
		"methodIdentifiers": {
			"DOMAIN_SEPARATOR()": "3644e515",
			"UPGRADE_INTERFACE_VERSION()": "ad3cb1cc",
			"allowance(address,address)": "dd62ed3e",
			"approve(address,uint256)": "095ea7b3",
			"balanceOf(address)": "70a08231",
			"burn(uint256)": "42966c68",
			"burnFrom(address,uint256)": "79cc6790",
			"decimals()": "313ce567",
			"eip712Domain()": "84b0196e",
			"eventRewards()": "f77c8439",
			"fundEventRewards(uint256)": "0736f844",
			"initialize(address)": "c4d66de8",
			"lifetimeEarnings(address)": "6be001ec",
			"mint(address,uint256)": "40c10f19",
			"name()": "06fdde03",
			"nonces(address)": "7ecebe00",
			"owner()": "8da5cb5b",
			"pause()": "8456cb59",
			"paused()": "5c975abb",
			"permit(address,address,uint256,uint256,uint8,bytes32,bytes32)": "d505accf",
			"proxiableUUID()": "52d1902d",
			"renounceOwnership()": "715018a6",
			"rewardAttendance(address)": "f12182a6",
			"symbol()": "95d89b41",
			"totalSupply()": "18160ddd",
			"transfer(address,uint256)": "a9059cbb",
			"transferFrom(address,address,uint256)": "23b872dd",
			"transferOwnership(address)": "f2fde38b",
			"unpause()": "3f4ba83a",
			"updateActivity()": "1b0e1ffa",
			"upgradeToAndCall(address,bytes)": "4f1ef286"
		}
	},
	"abi": [
		{
			"inputs": [
				{
					"internalType": "address",
					"name": "target",
					"type": "address"
				}
			],
			"name": "AddressEmptyCode",
			"type": "error"
		},
		{
			"inputs": [],
			"name": "ECDSAInvalidSignature",
			"type": "error"
		},
		{
			"inputs": [
				{
					"internalType": "uint256",
					"name": "length",
					"type": "uint256"
				}
			],
			"name": "ECDSAInvalidSignatureLength",
			"type": "error"
		},
		{
			"inputs": [
				{
					"internalType": "bytes32",
					"name": "s",
					"type": "bytes32"
				}
			],
			"name": "ECDSAInvalidSignatureS",
			"type": "error"
		},
		{
			"inputs": [
				{
					"internalType": "address",
					"name": "implementation",
					"type": "address"
				}
			],
			"name": "ERC1967InvalidImplementation",
			"type": "error"
		},
		{
			"inputs": [],
			"name": "ERC1967NonPayable",
			"type": "error"
		},
		{
			"inputs": [
				{
					"internalType": "address",
					"name": "spender",
					"type": "address"
				},
				{
					"internalType": "uint256",
					"name": "allowance",
					"type": "uint256"
				},
				{
					"internalType": "uint256",
					"name": "needed",
					"type": "uint256"
				}
			],
			"name": "ERC20InsufficientAllowance",
			"type": "error"
		},
		{
			"inputs": [
				{
					"internalType": "address",
					"name": "sender",
					"type": "address"
				},
				{
					"internalType": "uint256",
					"name": "balance",
					"type": "uint256"
				},
				{
					"internalType": "uint256",
					"name": "needed",
					"type": "uint256"
				}
			],
			"name": "ERC20InsufficientBalance",
			"type": "error"
		},
		{
			"inputs": [
				{
					"internalType": "address",
					"name": "approver",
					"type": "address"
				}
			],
			"name": "ERC20InvalidApprover",
			"type": "error"
		},
		{
			"inputs": [
				{
					"internalType": "address",
					"name": "receiver",
					"type": "address"
				}
			],
			"name": "ERC20InvalidReceiver",
			"type": "error"
		},
		{
			"inputs": [
				{
					"internalType": "address",
					"name": "sender",
					"type": "address"
				}
			],
			"name": "ERC20InvalidSender",
			"type": "error"
		},
		{
			"inputs": [
				{
					"internalType": "address",
					"name": "spender",
					"type": "address"
				}
			],
			"name": "ERC20InvalidSpender",
			"type": "error"
		},
		{
			"inputs": [
				{
					"internalType": "uint256",
					"name": "deadline",
					"type": "uint256"
				}
			],
			"name": "ERC2612ExpiredSignature",
			"type": "error"
		},
		{
			"inputs": [
				{
					"internalType": "address",
					"name": "signer",
					"type": "address"
				},
				{
					"internalType": "address",
					"name": "owner",
					"type": "address"
				}
			],
			"name": "ERC2612InvalidSigner",
			"type": "error"
		},
		{
			"inputs": [],
			"name": "EnforcedPause",
			"type": "error"
		},
		{
			"inputs": [],
			"name": "ExpectedPause",
			"type": "error"
		},
		{
			"inputs": [],
			"name": "FailedInnerCall",
			"type": "error"
		},
		{
			"inputs": [
				{
					"internalType": "address",
					"name": "account",
					"type": "address"
				},
				{
					"internalType": "uint256",
					"name": "currentNonce",
					"type": "uint256"
				}
			],
			"name": "InvalidAccountNonce",
			"type": "error"
		},
		{
			"inputs": [],
			"name": "InvalidInitialization",
			"type": "error"
		},
		{
			"inputs": [],
			"name": "NotInitializing",
			"type": "error"
		},
		{
			"inputs": [
				{
					"internalType": "address",
					"name": "owner",
					"type": "address"
				}
			],
			"name": "OwnableInvalidOwner",
			"type": "error"
		},
		{
			"inputs": [
				{
					"internalType": "address",
					"name": "account",
					"type": "address"
				}
			],
			"name": "OwnableUnauthorizedAccount",
			"type": "error"
		},
		{
			"inputs": [],
			"name": "UUPSUnauthorizedCallContext",
			"type": "error"
		},
		{
			"inputs": [
				{
					"internalType": "bytes32",
					"name": "slot",
					"type": "bytes32"
				}
			],
			"name": "UUPSUnsupportedProxiableUUID",
			"type": "error"
		},
		{
			"anonymous": false,
			"inputs": [
				{
					"indexed": true,
					"internalType": "address",
					"name": "owner",
					"type": "address"
				},
				{
					"indexed": true,
					"internalType": "address",
					"name": "spender",
					"type": "address"
				},
				{
					"indexed": false,
					"internalType": "uint256",
					"name": "value",
					"type": "uint256"
				}
			],
			"name": "Approval",
			"type": "event"
		},
		{
			"anonymous": false,
			"inputs": [],
			"name": "EIP712DomainChanged",
			"type": "event"
		},
		{
			"anonymous": false,
			"inputs": [
				{
					"indexed": false,
					"internalType": "uint64",
					"name": "version",
					"type": "uint64"
				}
			],
			"name": "Initialized",
			"type": "event"
		},
		{
			"anonymous": false,
			"inputs": [
				{
					"indexed": true,
					"internalType": "address",
					"name": "previousOwner",
					"type": "address"
				},
				{
					"indexed": true,
					"internalType": "address",
					"name": "newOwner",
					"type": "address"
				}
			],
			"name": "OwnershipTransferred",
			"type": "event"
		},
		{
			"anonymous": false,
			"inputs": [
				{
					"indexed": false,
					"internalType": "address",
					"name": "account",
					"type": "address"
				}
			],
			"name": "Paused",
			"type": "event"
		},
		{
			"anonymous": false,
			"inputs": [
				{
					"indexed": true,
					"internalType": "address",
					"name": "from",
					"type": "address"
				},
				{
					"indexed": true,
					"internalType": "address",
					"name": "to",
					"type": "address"
				},
				{
					"indexed": false,
					"internalType": "uint256",
					"name": "value",
					"type": "uint256"
				}
			],
			"name": "Transfer",
			"type": "event"
		},
		{
			"anonymous": false,
			"inputs": [
				{
					"indexed": false,
					"internalType": "address",
					"name": "account",
					"type": "address"
				}
			],
			"name": "Unpaused",
			"type": "event"
		},
		{
			"anonymous": false,
			"inputs": [
				{
					"indexed": true,
					"internalType": "address",
					"name": "implementation",
					"type": "address"
				}
			],
			"name": "Upgraded",
			"type": "event"
		},
		{
			"inputs": [],
			"name": "DOMAIN_SEPARATOR",
			"outputs": [
				{
					"internalType": "bytes32",
					"name": "",
					"type": "bytes32"
				}
			],
			"stateMutability": "view",
			"type": "function"
		},
		{
			"inputs": [],
			"name": "UPGRADE_INTERFACE_VERSION",
			"outputs": [
				{
					"internalType": "string",
					"name": "",
					"type": "string"
				}
			],
			"stateMutability": "view",
			"type": "function"
		},
		{
			"inputs": [
				{
					"internalType": "address",
					"name": "owner",
					"type": "address"
				},
				{
					"internalType": "address",
					"name": "spender",
					"type": "address"
				}
			],
			"name": "allowance",
			"outputs": [
				{
					"internalType": "uint256",
					"name": "",
					"type": "uint256"
				}
			],
			"stateMutability": "view",
			"type": "function"
		},
		{
			"inputs": [
				{
					"internalType": "address",
					"name": "spender",
					"type": "address"
				},
				{
					"internalType": "uint256",
					"name": "value",
					"type": "uint256"
				}
			],
			"name": "approve",
			"outputs": [
				{
					"internalType": "bool",
					"name": "",
					"type": "bool"
				}
			],
			"stateMutability": "nonpayable",
			"type": "function"
		},
		{
			"inputs": [
				{
					"internalType": "address",
					"name": "account",
					"type": "address"
				}
			],
			"name": "balanceOf",
			"outputs": [
				{
					"internalType": "uint256",
					"name": "",
					"type": "uint256"
				}
			],
			"stateMutability": "view",
			"type": "function"
		},
		{
			"inputs": [
				{
					"internalType": "uint256",
					"name": "value",
					"type": "uint256"
				}
			],
			"name": "burn",
			"outputs": [],
			"stateMutability": "nonpayable",
			"type": "function"
		},
		{
			"inputs": [
				{
					"internalType": "address",
					"name": "account",
					"type": "address"
				},
				{
					"internalType": "uint256",
					"name": "value",
					"type": "uint256"
				}
			],
			"name": "burnFrom",
			"outputs": [],
			"stateMutability": "nonpayable",
			"type": "function"
		},
		{
			"inputs": [],
			"name": "decimals",
			"outputs": [
				{
					"internalType": "uint8",
					"name": "",
					"type": "uint8"
				}
			],
			"stateMutability": "view",
			"type": "function"
		},
		{
			"inputs": [],
			"name": "eip712Domain",
			"outputs": [
				{
					"internalType": "bytes1",
					"name": "fields",
					"type": "bytes1"
				},
				{
					"internalType": "string",
					"name": "name",
					"type": "string"
				},
				{
					"internalType": "string",
					"name": "version",
					"type": "string"
				},
				{
					"internalType": "uint256",
					"name": "chainId",
					"type": "uint256"
				},
				{
					"internalType": "address",
					"name": "verifyingContract",
					"type": "address"
				},
				{
					"internalType": "bytes32",
					"name": "salt",
					"type": "bytes32"
				},
				{
					"internalType": "uint256[]",
					"name": "extensions",
					"type": "uint256[]"
				}
			],
			"stateMutability": "view",
			"type": "function"
		},
		{
			"inputs": [],
			"name": "eventRewards",
			"outputs": [
				{
					"internalType": "contract EventRewards",
					"name": "",
					"type": "address"
				}
			],
			"stateMutability": "view",
			"type": "function"
		},
		{
			"inputs": [
				{
					"internalType": "uint256",
					"name": "amount",
					"type": "uint256"
				}
			],
			"name": "fundEventRewards",
			"outputs": [],
			"stateMutability": "nonpayable",
			"type": "function"
		},
		{
			"inputs": [
				{
					"internalType": "address",
					"name": "initialOwner",
					"type": "address"
				}
			],
			"name": "initialize",
			"outputs": [],
			"stateMutability": "nonpayable",
			"type": "function"
		},
		{
			"inputs": [
				{
					"internalType": "address",
					"name": "",
					"type": "address"
				}
			],
			"name": "lifetimeEarnings",
			"outputs": [
				{
					"internalType": "uint256",
					"name": "",
					"type": "uint256"
				}
			],
			"stateMutability": "view",
			"type": "function"
		},
		{
			"inputs": [
				{
					"internalType": "address",
					"name": "to",
					"type": "address"
				},
				{
					"internalType": "uint256",
					"name": "amount",
					"type": "uint256"
				}
			],
			"name": "mint",
			"outputs": [],
			"stateMutability": "nonpayable",
			"type": "function"
		},
		{
			"inputs": [],
			"name": "name",
			"outputs": [
				{
					"internalType": "string",
					"name": "",
					"type": "string"
				}
			],
			"stateMutability": "view",
			"type": "function"
		},
		{
			"inputs": [
				{
					"internalType": "address",
					"name": "owner",
					"type": "address"
				}
			],
			"name": "nonces",
			"outputs": [
				{
					"internalType": "uint256",
					"name": "",
					"type": "uint256"
				}
			],
			"stateMutability": "view",
			"type": "function"
		},
		{
			"inputs": [],
			"name": "owner",
			"outputs": [
				{
					"internalType": "address",
					"name": "",
					"type": "address"
				}
			],
			"stateMutability": "view",
			"type": "function"
		},
		{
			"inputs": [],
			"name": "pause",
			"outputs": [],
			"stateMutability": "nonpayable",
			"type": "function"
		},
		{
			"inputs": [],
			"name": "paused",
			"outputs": [
				{
					"internalType": "bool",
					"name": "",
					"type": "bool"
				}
			],
			"stateMutability": "view",
			"type": "function"
		},
		{
			"inputs": [
				{
					"internalType": "address",
					"name": "owner",
					"type": "address"
				},
				{
					"internalType": "address",
					"name": "spender",
					"type": "address"
				},
				{
					"internalType": "uint256",
					"name": "value",
					"type": "uint256"
				},
				{
					"internalType": "uint256",
					"name": "deadline",
					"type": "uint256"
				},
				{
					"internalType": "uint8",
					"name": "v",
					"type": "uint8"
				},
				{
					"internalType": "bytes32",
					"name": "r",
					"type": "bytes32"
				},
				{
					"internalType": "bytes32",
					"name": "s",
					"type": "bytes32"
				}
			],
			"name": "permit",
			"outputs": [],
			"stateMutability": "nonpayable",
			"type": "function"
		},
		{
			"inputs": [],
			"name": "proxiableUUID",
			"outputs": [
				{
					"internalType": "bytes32",
					"name": "",
					"type": "bytes32"
				}
			],
			"stateMutability": "view",
			"type": "function"
		},
		{
			"inputs": [],
			"name": "renounceOwnership",
			"outputs": [],
			"stateMutability": "nonpayable",
			"type": "function"
		},
		{
			"inputs": [
				{
					"internalType": "address",
					"name": "attendee",
					"type": "address"
				}
			],
			"name": "rewardAttendance",
			"outputs": [],
			"stateMutability": "nonpayable",
			"type": "function"
		},
		{
			"inputs": [],
			"name": "symbol",
			"outputs": [
				{
					"internalType": "string",
					"name": "",
					"type": "string"
				}
			],
			"stateMutability": "view",
			"type": "function"
		},
		{
			"inputs": [],
			"name": "totalSupply",
			"outputs": [
				{
					"internalType": "uint256",
					"name": "",
					"type": "uint256"
				}
			],
			"stateMutability": "view",
			"type": "function"
		},
		{
			"inputs": [
				{
					"internalType": "address",
					"name": "to",
					"type": "address"
				},
				{
					"internalType": "uint256",
					"name": "value",
					"type": "uint256"
				}
			],
			"name": "transfer",
			"outputs": [
				{
					"internalType": "bool",
					"name": "",
					"type": "bool"
				}
			],
			"stateMutability": "nonpayable",
			"type": "function"
		},
		{
			"inputs": [
				{
					"internalType": "address",
					"name": "from",
					"type": "address"
				},
				{
					"internalType": "address",
					"name": "to",
					"type": "address"
				},
				{
					"internalType": "uint256",
					"name": "value",
					"type": "uint256"
				}
			],
			"name": "transferFrom",
			"outputs": [
				{
					"internalType": "bool",
					"name": "",
					"type": "bool"
				}
			],
			"stateMutability": "nonpayable",
			"type": "function"
		},
		{
			"inputs": [
				{
					"internalType": "address",
					"name": "newOwner",
					"type": "address"
				}
			],
			"name": "transferOwnership",
			"outputs": [],
			"stateMutability": "nonpayable",
			"type": "function"
		},
		{
			"inputs": [],
			"name": "unpause",
			"outputs": [],
			"stateMutability": "nonpayable",
			"type": "function"
		},
		{
			"inputs": [],
			"name": "updateActivity",
			"outputs": [],
			"stateMutability": "nonpayable",
			"type": "function"
		},
		{
			"inputs": [
				{
					"internalType": "address",
					"name": "newImplementation",
					"type": "address"
				},
				{
					"internalType": "bytes",
					"name": "data",
					"type": "bytes"
				}
			],
			"name": "upgradeToAndCall",
			"outputs": [],
			"stateMutability": "payable",
			"type": "function"
		}
	]
}